:020000040800F2
:1000000000040020C1010008211700082117000882
:1000100061150008211700082117000821170008A2
:10002000211700082117000821170008D133000804
:100030002117000821170008211700084176000841
:100040002117000841570008D1580008215900081D
:10005000211700082117000881540008D154000816
:100060002155000871550008C1550008014B0008D2
:10007000514B0008A14B0008F14B0008414C00080F
:10008000914C0008E14C0008F1510008B15A0008F9
:10009000215B0008D15B0008815C00081156000854
:1000A0002117000821170008917300082117000884
:1000B000C174000801750008417500084168000816
:1000C000716900082117000821170008211700088E
:1000D00021170008211700082117000801770008E0
:1000E000A156000891570008E157000821170008A1
:1000F000211700082117000821170008314D0008BA
:1001000021170008115E00088175000821170008FA
:100110002117000821170008317300082117000873
:10012000814D0008D14D0008214E0008714E000895
:10013000C14E000821170008315800082117000897
:10014000211700082117000821170008D16F0008A7
:10015000114F0008614F0008B14F00082117000837
:10016000211700082117000821170008211700088F
:1001700081580008211700085113000821170008B2
:10018000211700082117000821170008211700086F
:10019000211700082117000821170008211700085F
:1001A000211700082117000821170008211700084F
:1001B000211700082117000821170008211700083F
:1001C00072B62E4880F3098840F20000CCF200009D
:1001D0004EF63471CEF20001086040F20000C0F229
:1001E000F0004EF68851CEF2000108604FF000009A
:1001F000E1EE100A4EF63C71CEF2000108600620D6
:1002000080F31488BFF36F8F07F06AFB4FF055300F
:100210001B491C4A91423CBF41F8040BFAE71A49BA
:10022000164A91423CBF41F8040BFAE71749184AB5
:10023000184B9A423EBF51F8040B42F8040BF8E702
:1002400000201549154A91423CBF41F8040BFAE7DA
:1002500001F04EFA124C134DAC4203DA54F8041B71
:100260008847F9E701F014F80F4C104DAC4203DA5F
:1002700054F8041B8847F9E701F04ABA0008002047
:1002800000000020000400200004002038BD000809
:1002900000080020C4110020C811002028230020DD
:1002A000C0010008C0010008C0010008C00100082A
:1002B0002DE9F04F2DED108AC1F80CD0D0F80CD0FC
:1002C000BDEC108ABDE8F08F01F06AFB02F040FB44
:1002D000002383F311882846A047002002F008F984
:1002E00002F01EFB01F03CFB01F032FF01F058FB75
:1002F00002F02EFB00DFFEE700000000000000001F
:1003000081F0004102E000BF83F0004330B54FEAC6
:1003100041044FEA430594EA050F08BF90EA020F33
:100320001FBF54EA000C55EA020C7FEA645C7FEAC6
:10033000655C00F0E2804FEA5454D4EB5555B8BFE9
:100340006D420CDD2C4480EA020281EA030382EA5A
:10035000000083EA010180EA020281EA0303362DEC
:1003600088BF30BD11F0004F4FEA01314FF4801CBF
:100370004CEA113102D0404261EB410113F0004FD1
:100380004FEA03334CEA133302D0524263EB430388
:1003900094EA050F00F0A780A4F10104D5F1200E26
:1003A0000DDB02FA0EFC22FA05F2801841F1000181
:1003B00003FA0EF2801843FA05F359410EE0A5F155
:1003C00020050EF1200E012A03FA0EFC28BF4CF086
:1003D000020C43FA05F3C01851EBE37101F000453C
:1003E00007D54FF0000EDCF1000C7EEB00006EEB49
:1003F0000101B1F5801F1BD3B1F5001F0CD34908D3
:100400005FEA30004FEA3C0C04F101044FEA445229
:1004100012F5800F80F09A80BCF1004F08BF5FEAB0
:10042000500C50F1000041EB045141EA050130BD90
:100430005FEA4C0C404141EB010111F4801FA4F133
:100440000104E9D191F0000F04BF01460020B1FA88
:1004500081F308BF2033A3F10B03B3F120020CDAC0
:100460000C3208DD02F1140CC2F10C0201FA0CF09E
:1004700021FA02F10CE002F11402D8BFC2F1200C03
:1004800001FA02F120FA0CFCDCBF41EA0C019040B9
:10049000E41AA2BF01EB0451294330BD6FEA040402
:1004A0001F3C1CDA0C340EDC04F11404C4F12002ED
:1004B00020FA04F001FA02F340EA030021FA04F3FF
:1004C00045EA030130BDC4F10C04C4F1200220FA56
:1004D00002F001FA04F340EA0300294630BD21FA94
:1004E00004F0294630BD94F0000F83F4801306BF5A
:1004F00081F480110134013D4EE77FEA645C18BF4E
:100500007FEA655C29D094EA050F08BF90EA020FE4
:1005100005D054EA000C04BF1946104630BD91EADC
:10052000030F1EBF0021002030BD5FEA545C05D1DF
:100530004000494128BF41F0004130BD14F580041E
:100540003CBF01F5801130BD01F0004545F0FE4192
:1005500041F470014FF0000030BD7FEA645C1ABFC7
:10056000194610467FEA655C1CBF0B46024650EAFE
:10057000013406BF52EA033591EA030F41F400212A
:1005800030BD00BF90F0000F04BF0021704730B5B0
:100590004FF4806404F132044FF000054FF0000185
:1005A00050E700BF90F0000F04BF0021704730B546
:1005B0004FF4806404F1320410F0004548BF40421B
:1005C0004FF000013EE700BF42004FEAE2014FEA70
:1005D00031014FEA02701FBF12F07F4393F07F4F4B
:1005E00081F06051704732F07F4208BF704793F04E
:1005F0007F4F04BF41F40021704730B54FF4607461
:1006000001F0004521F000411CE700BF50EA010263
:1006100008BF704730B54FF000050AE050EA01020C
:1006200008BF704730B511F0004502D5404261EB7C
:1006300041014FF4806404F132045FEA915C3FF4BD
:10064000D8AE4FF003025FEADC0C18BF03325FEA5A
:10065000DC0C18BF033202EBDC02C2F1200300FA0B
:1006600003FC20FA02F001FA03FE40EA0E0021FA30
:1006700002F11444BDE600BF0000000000000000CD
:1006800070B54FF0FF0C4CF4E06C1CEA11541DBF28
:100690001CEA135594EA0C0F95EA0C0F00F0DEF8F3
:1006A0002C4481EA030621EA4C5123EA4C5350EAD8
:1006B000013518BF52EA033541F4801143F4801329
:1006C00038D0A0FB02CE4FF00005E1FB02E506F0BA
:1006D0000042E0FB03E54FF00006E1FB03569CF00F
:1006E000000F18BF4EF0010EA4F1FF04B6F5007F15
:1006F00064F5407404D25FEA4E0E6D4146EB060687
:1007000042EAC62141EA55514FEAC52040EA5E500F
:100710004FEACE2EB4F1FD0C88BFBCF5E06F1ED8B9
:10072000BEF1004F08BF5FEA500E50F1000041EBF0
:10073000045170BD06F0004646EA010140EA02009D
:1007400081EA0301B4EB5C04C2BFD4EB0C0541EABF
:10075000045170BD41F480114FF0000E013C00F3D4
:10076000AB8014F1360FDEBF002001F0004170BDF8
:10077000C4F10004203C35DA0C341BDC04F1140411
:10078000C4F1200500FA05F320FA04F001FA05F29D
:1007900040EA020001F0004221F0004110EBD3706A
:1007A00021FA04F642EB06015EEA430E08BF20EA96
:1007B000D37070BDC4F10C04C4F1200500FA04F339
:1007C00020FA05F001FA04F240EA020001F00041CB
:1007D00010EBD37041F100015EEA430E08BF20EA3E
:1007E000D37070BDC4F1200500FA05F24EEA020E86
:1007F00020FA04F301FA05F243EA020321FA04F0B5
:1008000001F0004121FA04F220EA020000EBD3706B
:100810005EEA430E08BF20EAD37070BD94F0000F6B
:100820000FD101F00046400041EB010111F4801F9F
:1008300008BF013CF7D041EA060195F0000F18BF50
:10084000704703F00046520043EB030313F4801F8C
:1008500008BF013DF7D043EA0603704794EA0C0F46
:100860000CEA135518BF95EA0C0F0CD050EA41065C
:1008700018BF52EA4306D1D181EA030101F00041D9
:100880004FF0000070BD50EA410606BF1046194601
:1008900052EA430619D094EA0C0F02D150EA01360D
:1008A00013D195EA0C0F05D152EA03361CBF10464E
:1008B00019460AD181EA030101F0004141F0FE41ED
:1008C00041F470014FF0000070BD41F0FE4141F471
:1008D000780170BD70B54FF0FF0C4CF4E06C1CEA71
:1008E00011541DBF1CEA135594EA0C0F95EA0C0F26
:1008F00000F0A7F8A4EB050481EA030E52EA0335E1
:100900004FEA013100F088804FEA03334FF0805501
:1009100045EA131343EA12634FEA022245EA11152E
:1009200045EA10654FEA00260EF000419D4208BFDF
:10093000964244F1FD0404F5407402D25B084FEA8C
:100940003202B61A65EB03055B084FEA32024FF438
:1009500080104FF4002CB6EB020E75EB030E22BF95
:10096000B61A754640EA0C005B084FEA3202B6EB55
:10097000020E75EB030E22BFB61A754640EA5C0004
:100980005B084FEA3202B6EB020E75EB030E22BF94
:10099000B61A754640EA9C005B084FEA3202B6EB95
:1009A000020E75EB030E22BFB61A754640EADC0054
:1009B00055EA060E18D04FEA051545EA16754FEAB6
:1009C00006164FEAC30343EA52734FEAC2025FEAD4
:1009D0001C1CC0D111F4801F0BD141EA00014FF063
:1009E00000004FF0004CB6E711F4801F04BF014334
:1009F0000020B4F1FD0C88BFBCF5E06F3FF6AFAE50
:100A0000B5EB030C04BFB6EB020C5FEA500C50F1DF
:100A1000000041EB045170BD0EF0004E4EEA113162
:100A200014EB5C04C2BFD4EB0C0541EA045170BD69
:100A300041F480114FF0000E013C90E645EA060EAD
:100A40008DE60CEA135594EA0C0F08BF95EA0C0FDB
:100A50003FF43BAF94EA0C0F0AD150EA01347FF423
:100A600034AF95EA0C0F7FF425AF104619462CE7FA
:100A700095EA0C0F06D152EA03353FF4FDAE10465D
:100A8000194622E750EA410618BF52EA43067FF4AE
:100A9000C5AE50EA41047FF40DAF52EA43057FF43E
:100AA000EBAE12E7000000000000000000000000B4
:100AB0004FEA410212F5001215D211D56FF4787386
:100AC000B3EB625212D94FEAC12343F0004343EA29
:100AD000505311F0004F23FA02F018BF4042704704
:100AE0004FF00000704750EA013005D111F000408E
:100AF00008BF6FF0004070474FF00000704700BF24
:100B000053B94AB9002908BF00281CBF4FF0FF3174
:100B10004FF0FF3000F074B9ADF1080C6DE904CE70
:100B200000F006F8DDF804E0DDE9022304B07047C8
:100B30002DE9F047089E04468846002B4BD18A4297
:100B4000154667D9B2FA82F24AB1C2F1200701FA1A
:100B500002F320FA07F7954047EA030894404FEA6A
:100B6000154E230CB8FBFEF71FFA85FC0EFB178809
:100B700043EA084307FB0CF1994209D9EB1807F146
:100B8000FF3080F01B81994240F21881023F2B44D4
:100B90005B1AA4B2B3FBFEF00EFB103344EA03442D
:100BA00000FB0CFCA44509D92C1900F1FF3380F09F
:100BB0000781A44540F2048102382C4440EA0740F2
:100BC000A4EB0C0400271EB1D4400023C6E9004367
:100BD0003946BDE8F0878B4209D9002E00F0EB8042
:100BE0000027C6E9000138463946BDE8F087B3FA68
:100BF00083F7002F47D18B4202D3824200F2FA8062
:100C0000841A61EB030301209846002EE0D0C6E968
:100C10000048DDE702B9FFDEB2FA82F2002A40F0B6
:100C20008F80491B4FEA154E1FFA85F80127B1FB4B
:100C3000FEFC230C0EFB1C1143EA014308FB0CF1E4
:100C4000994207D9EB180CF1FF3002D2994200F219
:100C5000CD808446591AA3B2B1FBFEF00EFB1014EE
:100C600043EA044408FB00F8A04507D92C1900F119
:100C7000FF3302D2A04500F2B6801846A4EB080468
:100C800040EA0C409FE7C7F1200CBB4022FA0CFE63
:100C90004EEA030E01FA07F420FA0CF521FA0CF3E0
:100CA0004FEA1E482543B3FBF8F92C0C08FB193317
:100CB0001FFA8EFA44EA034309FB0AF49C4202FA43
:100CC00007F200FA07F10BD91EEB030309F1FF301D
:100CD00080F087809C4240F28480A9F1020973442D
:100CE0001B1BADB2B3FBF8F008FB103345EA03441D
:100CF00000FB0AFAA24508D91EEB040400F1FF33F9
:100D00006BD2A24569D90238744440EA0940A0FB7D
:100D10000289A4EB0A044C45C2464B4654D351D039
:100D2000002E69D0B1EB0A0564EB030404FA0CFC55
:100D3000FD40FC404CEA0505C6E90054002747E7A2
:100D4000C2F1200320FA03F7954001FA02F021FADC
:100D500003F34FEA154E3843010CB3FBFEF71FFABD
:100D600085F80EFB173341EA034107FB08F38B427A
:100D700004FA02F407D9691807F1FF3C2FD28B421D
:100D80002DD9023F2944CB1A81B2B3FBFEF00EFBF2
:100D9000103341EA034100FB08F38B4207D969187D
:100DA00000F1FF3C17D28B4215D902382944C91AE9
:100DB00040EA07473BE73746304609E70746E7E69C
:100DC0001846FBE64145ABD2B8EB020A69EB0E02CE
:100DD00001381346A4E76046E9E7184695E76746F9
:100DE000D1E781467CE702382C4447E7ACF1020C9E
:100DF0002B442FE7384608E73746E9E600000000B5
:100E0000704700BF0000000000000000000000006C
:100E1000844641EA000313F003036DD1403A41D305
:100E200051F8043B40F8043B51F8043B40F8043BC4
:100E300051F8043B40F8043B51F8043B40F8043BB4
:100E400051F8043B40F8043B51F8043B40F8043BA4
:100E500051F8043B40F8043B51F8043B40F8043B94
:100E600051F8043B40F8043B51F8043B40F8043B84
:100E700051F8043B40F8043B51F8043B40F8043B74
:100E800051F8043B40F8043B51F8043B40F8043B64
:100E900051F8043B40F8043B51F8043B40F8043B54
:100EA000403ABDD2303211D351F8043B40F8043BF4
:100EB00051F8043B40F8043B51F8043B40F8043B34
:100EC00051F8043B40F8043B103AEDD20C3205D304
:100ED00051F8043B40F8043B043AF9D2043208D0FC
:100EE000D2071CBF11F8013B00F8013B01D30B886E
:100EF00003806046704700BF082A13D38B078DD04C
:100F000010F003038AD0C3F10403D21ADB071CBF1D
:100F100011F8013B00F8013B80D331F8023B20F887
:100F2000023B7BE7043AD9D3013A11F8013B00F8C0
:100F3000013BF9D20B7803704B7843708B78837048
:100F40006046704700000000000000000000000044
:100F500090F800F06DE9024520F007016FF0000CF9
:100F600010F0070491F820F040F049804FF00004A1
:100F70006FF00700D1E9002391F840F000F108007C
:100F800082FA4CF2A4FA8CF283FA4CF3A2FA8CF3B4
:100F90004BBBD1E9022382FA4CF200F10800A4FA1B
:100FA0008CF283FA4CF3A2FA8CF3E3B9D1E904236F
:100FB00082FA4CF200F10800A4FA8CF283FA4CF3A6
:100FC000A2FA8CF37BB9D1E9062301F1200182FA60
:100FD0004CF200F10800A4FA8CF283FA4CF3A2FA66
:100FE0008CF3002BC6D0002A04BF04301A4612BA74
:100FF000B2FA82F2FDE8024500EBD2007047D1E977
:10100000002304F00305C4F100004FEAC50514F005
:10101000040F91F840F00CFA05F562EA05021CBFD6
:1010200063EA050362464FF00004A9E700000000F0
:1010300001F0FF01102A2BDB10F0070F08D010F889
:10104000013B013A8B422DD010F0070F42B3F6D18D
:10105000F0B441EA012141EA014122F007047FF0A6
:1010600000070023F0E80256083C85EA010586EAFD
:10107000010685FA47F5A3FA87F586FA47F6A5FA39
:1010800087F68EB9EED1F0BC01F0FF0102F0070245
:1010900032B110F8013B013A83EA010313B1F8D1F0
:1010A0000020704701387047002D06BF35460338D1
:1010B000073815F0010F07D1013015F4807F02BF0A
:1010C000013015F4C03F0130F0BC0138704700BF5B
:1010D0004FF0FF3C06E000BF4FF0010C02E000BF04
:1010E0004FF0010C4DF804CD4FEA410C7FEA6C5CE7
:1010F0004FEA430C18BF7FEA6C5C1BD001B050EA8A
:10110000410C0CBF52EA430C91EA030F02BF90EA74
:10111000020F0020704710F1000F91EA030F58BF33
:10112000994208BF90422CBFD8176FEAE37040F095
:10113000010070474FEA410C7FEA6C5C02D150EA33
:10114000013C07D14FEA430C7FEA6C5CD6D152EAEE
:10115000033CD3D05DF8040B704700BF84461046B3
:1011600062468C461946634600E000BF01B5FFF7B2
:10117000B7FF002848BF10F1000F01BD4DF808ED82
:10118000FFF7F4FF0CBF012000205DF808FB00BF53
:101190004DF808EDFFF7EAFF34BF012000205DF8AD
:1011A00008FB00BF4DF808EDFFF7E0FF94BF0120FA
:1011B00000205DF808FB00BF4DF808EDFFF7CEFFFB
:1011C00094BF012000205DF808FB00BF4DF808ED3A
:1011D000FFF7C4FF34BF012000205DF808FB00BF0B
:1011E0004FEA410C7FEA6C5C02D150EA013C0AD123
:1011F0004FEA430C7FEA6C5C02D152EA033C02D115
:101200004FF0000070474FF00100704700000000F1
:101210002DE9F041174C184BA26918491B68DFF8FB
:101220006480174E916182B02027019387F3118863
:1012300001F076FB00F094FBA56A00F0B1FB01F031
:1012400087FB2368A34207D0A2699B6892689A42F1
:1012500002D2404600F0E4FA002383F31188736958
:1012600083F48043736105F16401284601F0C0F8FE
:10127000DCE700BF5814002000080020B0B20008CE
:10128000000C0240C0B20008000000000000000096
:1012900000B50C4B85B01B68039302F0F9F800F021
:1012A00057FA00F005F9002300930748074B402246
:1012B0004FF4FC7101F004F84FF47A7001F058F823
:1012C000FAE700BF00080020C81100201112000832
:1012D00000B5084B83B01A680192019A1B689A42C4
:1012E00005D1054803B05DF804EB00F099BAFFF7AB
:1012F000EFFF00BF00080020D0B20008000000008F
:1013000030B50F4D82682B680E4983B00193136886
:1013100023F0010313608C6A03E08B6A1B1BC72B4D
:1013200009D8106810F00100F7D1019A2B689A4291
:1013300004D103B030BD4FF0FF30F6E7FFF7C8FF30
:1013400000080020581400200000000000000000E9
:10135000F0B5284D83B02B68019301F0A9FA00F095
:101360007FFB254B1E69F20715D5244C5A69277857
:10137000B91F42F0010201295A612AD963681B682A
:10138000052222700BB120469847042F27D0022F48
:1013900025D003232370B30710D5174A174C536980
:1013A000217843F00203032953611DD063689B68D1
:1013B0000622227013B101211048984700F078FBF3
:1013C000019A2B689A4213D103B0BDE8F04002F0B5
:1013D0001FB8019A2B689A420AD103B0F0BD0223CC
:1013E0002370B307EAD5D8E72046FFF789FFDDE78A
:1013F000FFF76EFF0008002000000550C01300201A
:101400002DE9F043254E83B034680194042A9DF8F9
:101410002890144605460F46984639D9B9F1000F71
:1014200014BF00224FF08052640002EB0863013CBD
:101430001C4405F00F0527F01F07202383F31188B4
:1014400001F06EFA3D4300F08BFA154B1035DD606C
:101450001C6100F0A5FA01F07BFA124B1A689A425F
:1014600004D0996993688A689A420DD3002383F364
:101470001188BFF36F8FBFF34F8F019A33689A4281
:101480000AD103B0BDE8F083074800F0C9F9EDE7E1
:10149000064800F0C5F9C1E7FFF71AFF0008002071
:1014A00090ED00E05814002070B3000850B300081D
:1014B00030B5224D224C2B68224A85B003936368D5
:1014C00043F004036360536A43F480335362202380
:1014D00083F3118801F024FA00F042FA17221A4B24
:1014E000E260236100F05CFA01F032FA174B1A68EF
:1014F0009A4204D0996993688A689A4218D3002066
:1015000080F31188BFF36F8FBFF34F8F03231D222A
:1015100000904FF00051FFF773FF094A536843F002
:1015200001035360039A2B689A4205D105B030BD80
:10153000074800F075F9E2E7FFF7CAFE000800204F
:1015400090ED00E000ED00E00900001058140020CC
:1015500070B3000800000000000000000000000060
:1015600070B51A4D1A4C1B4E0FCD0FC49EB02A6891
:10157000336822801D93EFF30981682203A8FFF7E7
:1015800047FC154B9D6AAA0714D4EB0708D5124BEC
:1015900008995B6B114A00910D48802106F008FD07
:1015A0001D9A33689A420FD109481EB0BDE87040B9
:1015B00000F036B9099A5B6B0092A4F11000084A5A
:1015C000802106F0F5FCE0E7FFF782FE34B3000867
:1015D000D41300200008002000ED00E010B3000844
:1015E000F0B2000800000000000000000000000051
:1015F0000A490B4B09680B4A82B020200191402117
:1016000058834FF4806559834FF400644FF4804051
:1016100004215D835C8358835183FEE7000800202A
:10162000000C024000040240000000000000000026
:1016300000B5084B83B01A680192019A1B689A4260
:1016400005D1054803B05DF804EB01F0A9BAFFF736
:101650003FFE00BF0008002004080020000000003A
:1016600000B5084B83B01A680192019A1B689A4230
:1016700005D1054803B05DF804EB01F0C9BAFFF7E6
:1016800027FE00BF00080020040800200000000022
:1016900070B50D4C82B0236801930D1E06460DDD1A
:1016A000284601F02DFE18B90C2333604FF0FF30AF
:1016B000019A23689A4205D102B070BD034800F038
:1016C000AFF8EDE7FFF704FE0008002080B3000844
:1016D00000B5064B83B01A680192019A1B689A42C2
:1016E00002D103B05DF804FBFFF7F2FD0008002013
:1016F00000B5064B83B01A680192019A1B689A42A2
:1017000002D103B05DF804FBFFF7E2FD0008002002
:10171000024B82B01B680193FEE700BF0008002067
:1017200000B5044B04481B6883B0019300F078F8BF
:10173000FEE700BF0008002090B300080000000092
:10174000024B82B01B680193FEE700BF0008002037
:10175000F0B5294E294B3268294885B00024039200
:101760009C60D968274A4FF6FF0529400A43DA6092
:10177000C2682549254D42F08072C2600A6842F075
:1017800001020A6010202022D87783F8222000F07E
:10179000D7FA00F045FA01F013F801F089FD01F0E5
:1017A000F7FD01F065F800F0FBF9402105F58860D0
:1017B00000F0F6FC0127164BC36180F82070A86189
:1017C00000F0A6F884F3118862B6AB69114A9A61F9
:1017D0004FF4C4713A46104B009405F59D6000F03B
:1017E0006FFD039A33680D4981619A4201D105B0BA
:1017F000F0BDFFF76DFD00BF0008002000ED00E028
:10180000F0ED00E00003FA05001000E0581400209D
:101810000004002010B5000841170008B0B300080C
:1018200000B5054B83B01B680193044672B6FFF701
:10183000DFFE024BDC62FEE70008002058140020A7
:101840002DE9F047DFF88C90204DD9F8003082B0B8
:10185000019300F055F9AB6993F8232012B1013AD6
:1018600083F823205A6A1A4F01325A6200F048F96D
:10187000AB6AEC690133BC42AB621DD0A668013E85
:10188000A660CEB94FF020082368D4F80CA0E6601B
:101890005F60EB6100F0C4F801F08AF886F311880C
:1018A0002069D04788F3118801F06AF800F098F8B1
:1018B000EC69A368002BE7D0019AD9F800309A426E
:1018C00002D102B0BDE8F087FFF702FD58140020F6
:1018D0007414002000080020000000000000000038
:1018E00010B5094C094A236882B0019351685368C6
:1018F0005B1A9842FBD8019A23689A4201D102B040
:1019000010BDFFF7E5FC00BF00080020001000E05C
:1019100000B50E4A0E4B116B186883B0019009B9DF
:10192000526B4AB1019A1B689A420CD1094803B024
:101930005DF804EBFFF774BF019A1B689A4202D16D
:1019400003B05DF804FBFFF7C3FC00BF5814002090
:1019500000080020C0B300080000000000000000E4
:1019600030B50B4C0B4D236B2A6883B001920BB939
:10197000636B13B10848FFF753FF019A2B680121ED
:101980009A42616301D103B030BDFFF7A1FC00BFF3
:101990005814002000080020F0B3000800000000E8
:1019A00030B50C4C0C4D236B2A6883B0019253B9AF
:1019B000636B002B07DD019A2B6800219A4261635B
:1019C00005D103B030BD0548FFF72AFFF3E7FFF765
:1019D0007FFC00BF581400200008002010B400084D
:1019E00030B50B4C0B4D236B2A6883B0002B019252
:1019F00001DD636B13B10848FFF712FF019A2B68F2
:101A000001219A42616301D103B030BDFFF760FC50
:101A1000581400200008002000B400080000000056
:101A200030B50C4C0C4D236B2A6883B0002B01920F
:101A30000ADD636B002B07DD019A2B6800219A42B7
:101A4000616305D103B030BD0448FFF7E9FEF3E759
:101A5000FFF73EFC581400200008002020B40008C6
:101A600030B50F4D83B02B680193202383F3118889
:101A70000C4C236B002B01DB626B1AB10A48FFF799
:101A8000CFFE236B01332363002383F31188019A74
:101A90002B689A4201D103B030BDFFF719FC00BF9B
:101AA0000008002058140020D0B3000800000000F7
:101AB00030B50F4D83B02B680193202383F3118839
:101AC0000C4C236B002B01DD626B1AB10A48FFF747
:101AD000A7FE236B013B2363002383F31188019A44
:101AE0002B689A4201D103B030BDFFF7F1FB00BF74
:101AF0000008002058140020E0B300080000000097
:101B000000B50F4A0F4B116B186883B00029019084
:101B100009DB526B002A06DD019A1B689A420CD140
:101B200003B05DF804FB019A1B689A4205D1064890
:101B300003B05DF804EBFFF773BEFFF7C9FB00BF0E
:101B4000581400200008002030B4000800000000F5
:101B500000B50E4A0E4B116B186883B0019049B95D
:101B6000526B002A06DD019A1B689A420CD103B021
:101B70005DF804FB019A1B689A4205D1054803B041
:101B80005DF804EBFFF74CBEFFF7A2FB58140020F2
:101B90000008002040B40008000000000000000021
:101BA00010B5084A084B116882B040240191019990
:101BB000126818199142C3E90E4001D102B010BD5C
:101BC000FFF786FB000800205814002000000000EA
:101BD00030B50F490F4A0B68956983B00193D36BF9
:101BE000946A1C60846AC3E9015490F82000187359
:101BF000103302F58860834228BF02F14003D363AB
:101C0000019A0B689A4201D103B030BDFFF760FB27
:101C10000008002058140020000000000000000010
:101C200010B50B4A0B4B116882B04FF0FF34019195
:101C300000219962019811685C6203F11C028842DC
:101C4000C3E9072201D102B010BDFFF741FB00BF7D
:101C500000080020581400200000000000000000D0
:101C60002DE9F041194E82B00546306801900C46CE
:101C700017469846FFF744FF0DB307B3FCB114486D
:101C8000C5F81080C369EF609A68944204D91B6854
:101C9000A41A9A68A242FAD35A68C5E900321560BC
:101CA0005D60AC609968019D3268091B95424FF0F8
:101CB000FF349960446206D102B0BDE8F081054866
:101CC000FFF7AEFDDBE7FFF703FB00BF00080020D6
:101CD0005814002050B4000800000000000000006C
:101CE00070B5144D82B004462B680193FFF708FFCE
:101CF000D4B1E368A3B12368A0689A68616802441C
:101D00009A600B602668019A2B680B487160002569
:101D10004FF0FF319A42E560416209D102B070BDD7
:101D20000648FFF77DFDE6E70448FFF779FDE0E7A9
:101D3000FFF7CEFA000800205814002060B4000815
:101D400000B50A4A0A4B11681B6083B0002001915C
:101D5000019912685B609142C3E90433986002D133
:101D600003B05DF804FBFFF7B3FA00BF00080020E2
:101D700058140020000000000000000000000000D7
:101D800070B5164D82B004462B680193FFF7B8FE7C
:101D9000ECB194F82030B3B10F2B14D00022A1681D
:101DA0000F4B84F820201B689A688A42FBD2019E60
:101DB00029685A688E42C4E90032204614605C608B
:101DC00009D102B070BD0748FFF72AFDE6E70548D4
:101DD000FFF726FDDDE7FFF77BFA00BF00080020D4
:101DE0005814002070B4000800000000000000003B
:101DF00070B5204D82B02B6801930446202383F3F5
:101E0000118800F0BDFDFFF7EBFD94F82030072BA3
:101E100010D8DFE803F0150F0F220A040F0AA66A94
:101E2000FFF76EFEB3680133B360D4E900231A6094
:101E3000226853604FF0FF33A3622046FFF7A0FFF4
:101E4000FFF7EEFD00F0B4FD002383F31188019A43
:101E50002B689A420BD102B070BDA36A00221A60AF
:101E60004FF0FF33A3622046FFF78AFFE8E7FFF752
:101E70002FFA00BF00080020000000000000000052
:101E8000F0B5194E194C336883B007460193FFF73C
:101E90005FFEA569236885F82070142285F8232049
:101EA0001A68226001215460284683F82010A3613B
:101EB000FFF78EFE2946A06900F012FDEFF30983BB
:101EC000EA69643B9A4202D90948FFF7A9FC019AE2
:101ED00033689A4206D1A069294603B0BDE8F040B4
:101EE000FEF7E6B9FFF7F4F90008002058140020C7
:101EF00080B40008000000000000000000000000A6
:101F0000F0B5154C87B0236805930E460746FFF7DA
:101F10001FFE731C18D0114D114AAB69314668463B
:101F2000FFF79EFE3846FFF7ABFFFFF7E9FD039B87
:101F300013B16846FFF7D4FE059A2368A9699A424F
:101F4000886A06D107B0F0BD3846FFF799FF034D08
:101F5000F2E7FFF7BDF900BF000800205814002089
:101F6000F11D00080000000000000000000000005B
:101F7000F0B51E4D1E4E2B6883B0044601930F46EC
:101F8000FFF7E6FDB069A2688368A7629A421DD98F
:101F9000FFF7F6FE0123074684F82030B461FFF70F
:101FA00017FE3946204600F09BFCEFF30983FA69DF
:101FB000643B9A4214D8019A2B689A4214D139464C
:101FC000204603B0BDE8F040FEF772B9019A2B68D5
:101FD0009A4209D1204603B0BDE8F040FFF7D0BED9
:101FE0000448FFF71DFCE6E7FFF772F90008002040
:101FF0005814002080B40008000000000000000019
:1020000010B50E490E4B8A69086892F823101C68B7
:102010008068926882B0019449B9904234BF002030
:102020000120019A1B689A4206D102B010BD90426D
:1020300094BF00200120F4E7FFF74AF9581400206C
:102040000008002000000000000000000000000068
:1020500070B5184C184E2368A5691A682260546040
:10206000012283F8202082B01422316885F82320D1
:102070002846A3610191FFF783FE2846FFF7A8FDDC
:102080002946A06900F02CFCEFF30983EA69643B60
:102090009A4202D90948FFF7C3FB019A33689A4272
:1020A00006D1A069294602B0BDE87040FEF700B92C
:1020B000FFF70EF9581400200008002080B4000833
:1020C0001D4BF0B51A689C6910681C4EA168186019
:1020D00043601D4683B09A61012382F8203037683F
:1020E0000197002384F820302B461B689A689142A0
:1020F000FBD35A682046C4E9003214605C60FFF7E5
:1021000067FD2146A86900F0EBFBEFF30983E26964
:10211000643B9A4202D90A48FFF782FB019A33686E
:102120009A4206D1A869214603B0BDE8F040FEF707
:10213000BFB8FFF7CDF800BF5814002000080020FA
:1021400080B4000800000000000000000000000053
:1021500000B50E4A0E4B9269196892F8232083B09D
:10216000019142B1019A1B689A420DD103B05DF80A
:1021700004EBFFF7A5BF019A1B689A4204D103B094
:102180005DF804EBFFF764BFFFF7A2F858140020D6
:102190000008002000000000000000000000000017
:1021A000F0B51A4D1A4A2B68416483B00446019376
:1021B0000223576981600126238400234FF0140C09
:1021C00004F1680184F82260C4E90F33A3616362FB
:1021D0002C3004F1300304F15006C4E9042784F8DC
:1021E00023C03C61C4E90C33E062E16130465461D4
:1021F00000F07EFA304600F09BFA019A2B689A4272
:1022000002D1204603B0F0BDFFF762F800080020BD
:102210005814002000000000000000000000000032
:1022200010B5094B82B01C680194884203D200F8B3
:10223000012B8142FBD1019A1B689A4201D102B065
:1022400010BDFFF745F800BF0008002000000000A7
:102250002DE9F043174E83B0346801940546DDF84C
:1022600028900C4617469846FFF74AFC15B1B4F57E
:10227000BC7F17D21048FFF7D3FA019A33680F4892
:10228000A4F1640129449A42E960C1F84080C1F890
:10229000449008660CD13946284603B0BDE8F043A7
:1022A000FFF77EBF7F2FE5D8B8F1000FE5D1E1E75A
:1022B000FFF70EF800080020D0B40008C90200089B
:1022C0002DE9F04FDFF8A48087B0D8F80040DDF8A2
:1022D0004090059407468A46934600F168060446F6
:1022E000FF2504F8015BA642FBD107EB0A05A542D6
:1022F00004D9552604F8016BA542FBD10393202293
:1023000082F3118800F00CFBFFF72AFB039BCDF84A
:1023100000905A4651463846FFF79AFF002104467E
:10232000FFF726FEFFF73CFB00F012FB0D4B1A688F
:102330009A4204D0996993688A689A420BD3002321
:1023400083F31188059AD8F800309A42204606D1C6
:1023500007B0BDE8F08F0448FFF762FAEFE7FEF739
:10236000B7FF00BF5814002090B4000800080020F8
:1023700030B5184C83B0236801930546202383F3BE
:10238000118800F0CDFAFFF7EBFA15B91248FFF704
:1023900047FA29460820FFF7B3FDFFF701FB00F0DD
:1023A000D7FA0E4B1A689A4204D0996993688A68E2
:1023B0009A4208D3002383F31188019A23689A4232
:1023C00005D103B030BD0648FFF72AFAF2E7FEF761
:1023D0007FFF00BF00080020A0B4000858140020B0
:1023E00090B40008000000000000000000000000A1
:1023F000F0B51C4F83B03B68019304460E46202382
:1024000083F31188184D00F08BFAFFF7A9FAA96A37
:10241000331B0C1B9C4219D3FFF7C2FA00F098FA49
:102420002B68AB4204D0AA699B6892689A4209D390
:10243000002383F31188019A3B689A4230460FD1FA
:1024400003B0F0BD0948FFF7EBF9F1E7741A02D1C8
:102450000748FFF7E5F921460820FFF751FDDBE7C4
:10246000FEF736FF000800205814002090B4000842
:10247000A0B4000800000000000000000000000000
:1024800070B5164B164E9C693268E36AA06282B042
:1024900004F12C05AB42019207D01A68E26218469B
:1024A000FFF76EFCE36AAB42F7D194F821309B074B
:1024B00004D1D4E904231A61226953610F20FFF784
:1024C000DFFC019A33689A4205D1064802B0BDE8A4
:1024D0007040FFF7A5B9FEF7FBFE00BF58140020BF
:1024E00000080020E0B40008000000000000000028
:1024F00030B50C4C83B0236801930546202383F349
:10250000118800F00DFAFFF72BFA019A23689A421E
:1025100005D1284603B0BDE83040FFF7B1BFFEF754
:10252000D7FE00BF000800200000000000000000EF
:10253000F0B50D4D0D4E03682A68B76983B00446A7
:10254000019213B10A48FFF76BF927600320BC62C0
:10255000FFF796FC019A2B68B1699A42886A01D10B
:1025600003B0F0BDFEF7B4FE0008002058140020B0
:10257000F0B40008000000000000000000000000AF
:10258000F0B5124D04682B6883B00193B4B194F890
:102590002030032B06460F460CD100233360019AEE
:1025A0002B68A7629A420FD1204603B0BDE8F040E5
:1025B000FFF7E6BB0648FFF733F9EEE7019A2B6811
:1025C0009A4201D103B0F0BDFEF782FE0008002060
:1025D00000B500080000000000000000000000003E
:1025E00030B5104A83B01368019381B10E4B019D41
:1025F000126844689B699542C3E900042360436004
:102600000DD1042003B0BDE83040FFF779BC01993B
:10261000136899424FF0FF3001D103B030BDFEF78F
:1026200057FE00BF000800205814002000000000E2
:1026300070B5124D04682B6882B0A042019315D08A
:1026400023680360586094F82030042B0E4602D0B3
:102650000B48FFF7E5F8019A2B68A6629A420BD166
:10266000204602B0BDE87040FFF78ABB019A2B6894
:102670009A4201D102B070BDFEF72AFE0008002088
:10268000B0B40008000000000000000000000000DE
:102690002DE9F041DFF850800468D8F8003082B0AE
:1026A000A042019313D00F4F05460E4623682B60BE
:1026B0005D6094F82030042B02D03846FFF7B0F864
:1026C000A6622046FFF75CFB2C68A542EED1019A7A
:1026D000D8F800309A4202D102B0BDE8F081FEF78E
:1026E000F7FD00BFB0B400080008002000000000A3
:1026F00030B50C4B83B01A68019201991A684FF0FB
:10270000FF3300240025036091424FF00003C0E92D
:102710000445C0E90133C36001D103B030BDFEF709
:10272000D7FD00BF000800200000000000000000EE
:1027300000B5084B084A196883B001915168019AA5
:102740001B6881609A4202D103B05DF804FBFEF77A
:10275000BFFD00BF00080020001000E000000000E6
:10276000F0B51449144B0A68846883B00192134A87
:102770005B68D2F8A864C2681B1BD0E9044501322B
:102780009B1BC26042688360E61845F100079342D4
:10279000C0E9046709D80268934238BF0360019A10
:1027A0000B689A4203D103B0F0BD4360F7E7FEF730
:1027B0008FFD00BF00080020001000E0581400202A
:1027C00030B5114D114C2B6889B04FF0FF31079394
:1027D000002300226846C4F8A834CDE901330393EE
:1027E0000023CDE904230091FFF7A2FF6846FFF71D
:1027F000B7FF079A2B680299C4F8A8149A4201D12E
:1028000009B030BDFEF764FD000800205814002018
:102810002DE97048134E144B326883B001925B6807
:102820008B60D0E902411B1BD0E90445426814EBE0
:10283000030B45F1000C01319342C0E90231C0E9BC
:1028400004BC0AD80268934238BF0360019A336817
:102850009A4204D103B0BDE870884360F6E7FEF702
:1028600037FD00BF00080020001000E0000000005D
:1028700030B50D4D0D4C2B6883B004F59760019376
:102880000023C4F8B034C4F8B434FFF731FF019A20
:102890002B689A4206D104F59A6003B0BDE8304037
:1028A000FFF726BFFEF714FD000800205814002093
:1028B00000B50949094A0B6883B001930198D2F821
:1028C000B034096801338842C2F8B03402D103B091
:1028D0005DF804FBFEF7FCFC000800205814002003
:1028E00070B50D4C0D4A236882B00193019DD2F85A
:1028F000B43424680133A542C2F8B43409D10E4679
:1029000000F1500106F1500002B0BDE87040FFF741
:102910007FBFFEF7DDFC00BF000800205814002038
:1029200000B5084B83B01A680192019A1B689A425D
:1029300005D1054803B05DF804EBFFF7F9BEFEF7DB
:10294000C7FC00BF00080020101900200000000094
:1029500000B5084B83B01A680192019A1B689A422D
:1029600005D1054803B05DF804EBFFF7F9BEFEF7AB
:10297000AFFC00BF0008002010190020000000007C
:1029800000B5084B83B01A680192019A1B689A42FD
:1029900005D1054803B05DF804EBFFF7C9BEFEF7AB
:1029A00097FC00BF0008002028190020000000004C
:1029B00000B5084B83B01A680192019A1B689A42CD
:1029C00005D1054803B05DF804EBFFF7C9BEFEF77B
:1029D0007FFC00BF00080020281900200000000034
:1029E00030B50B4D83B02B680193044650B101996B
:1029F0002A68246000239142C4E90143236105D180
:102A000003B030BD0348FEF70BFFF0E7FEF760FCB4
:102A10000008002040B50008000000000000000091
:102A2000F0B55B4E5B4B32689D6983B00446019202
:102A3000FFF78EF8002C00F08380A068236900283F
:102A400043D0002B40F39480854275D0AA688368F8
:102A50009A4208D990F820308260062B40D0072B8C
:102A600072D0002B5DD02746234603E09968AA6800
:102A7000914233D31B689C42F8D17B680620C5E99C
:102A800000731D607D60AC62FFF7FAF9A368AB428A
:102A900002D04148FEF7C4FE2B6CA34202D03E4850
:102AA000FEF7BEFE2369012B05D1019A33689A42D5
:102AB0006CD103B0F0BD019A33689A4266D13648B2
:102AC00003B0BDE8F040FEF7ABBE002B55D12A6C39
:102AD000A5600133C4E903232C64E6E71F46CCE775
:102AE000D0E900131960876A0168BC464B603B4619
:102AF00002E09968914245D31B689F42F9D1DCF806
:102B00000430AA68C0E900C31860CCF80400B868B3
:102B100083689342A7D290F820308260062B9ED122
:102B2000DEE7D0E90023012180F820101A60026856
:102B30005360FFF725F996E7236901332361B4E772
:102B40001548FEF76DFE78E7D0E900131960876A33
:102B500001684B603B4602E09968914214D31B68C0
:102B60009F42F9D17B68C0E90073186078607AE70A
:102B70000948FEF755FEA06866E70748FEF750FED5
:102B80002369A4E79C46BAE71F46EBE7FEF7A0FBE4
:102B9000000800205814002050B500080000000074
:102BA00030B5154C83B0236801930546202383F389
:102BB0001188FFF7B5FEFEF7D3FE2846FFF730FF7A
:102BC000FEF7EEFEFFF7C4FE0C4B1A689A4204D0E3
:102BD000996993688A689A4208D3002383F311881D
:102BE000019A23689A4205D103B030BD0448FEF72C
:102BF00017FEF2E7FEF76CFB0008002058140020D7
:102C000030B50008000000000000000000000000D7
:102C10002DE9F043DFF800813C4FD8F80030BE6961
:102C200083B005460193002864D0202383F31188E4
:102C3000FFF776FEFEF794FE336C002B5ED09B68A8
:102C4000B34202D03248FEF7EBFD2B69002B49DD81
:102C5000013B2B615BBB336CAB4202D02C48FEF7CF
:102C6000DFFDEB683364FEF773FF2B689D423ED0B7
:102C7000D6E9104964B1FEF76BFF23689C4203D08C
:102C80009B68994538BF9946E468002CF3D12B68BE
:102C9000196C1A68C6F80890012028612A60184645
:102CA0005560C5E9023100211D64FFF761F9FEF7A7
:102CB00077FEFFF74DFE3B68BB4204D0BA699B68C4
:102CC00092689A420AD3002383F31188019AD8F8B4
:102CD00000309A4217D103B0BDE8F0830D48FEF7EB
:102CE0009FFDF0E70A48FEF79BFD2B69B0E7002344
:102CF000AB60DCE70648FEF793FD96E70448FEF775
:102D00008FFD336C9BE7FEF7E3FA00BF58140020F9
:102D100060B5000830B50008000800200000000081
:102D200070B5184E82B00446336801930D46FEF725
:102D3000E7FE0CB3E16B94F8203029430A2BE163E2
:102D400016D00B2B05D0019A33689A4218D102B0E5
:102D500070BDA36A8B43F6D1019A336800219A4271
:102D6000A1620DD1204602B0BDE87040FFF708B85F
:102D7000A36A1942F0D1E6E70348FEF751FDD9E70F
:102D8000FEF7A6FA0008002090B500080000000039
:102D9000F0B5134F83B006463B6801930D46FEF72E
:102DA000AFFEB6B13468A6420DD0E3682B43E360B2
:102DB00015B12269134203D0D4E90101FFF7B0FF36
:102DC0002468A642F1D1019A3B689A4205D103B02A
:102DD000F0BD0448FEF724FDE4E7FEF779FA00BFF2
:102DE0000008002070B5000800000000000000008E
:102DF00070B50C4CC16082B0266801960A44019EF1
:102E000002612268069D4060C0E9051196424FF0BC
:102E10000001C36181600562006001D102B070BD34
:102E2000FEF756FA00080020000000000000000035
:102E300070B5164D82B004462B6801930E46FEF71E
:102E40005FFEFEF75DFED4E905239A42A36816D023
:102E50000133511CA36061611670D4E904329A42B7
:102E60000AD220460021FFF7E3FB0020019A2B68DD
:102E70009A4209D102B070BDE3686361F1E7002BAB
:102E8000E6D06FF00300F1E7FEF722FA0008002019
:102E9000F0B5234F83B03B68019304460E462023D0
:102EA00083F31188FFF73CFDFEF75AFDE36943B158
:102EB0002046984705E031462046FFF791FB051E66
:102EC00010DBFEF71DFEA368002BF4D0A16920697A
:102ED0004A1C013B8242A360A26128BFE3680D78CF
:102EE00028BFA361FEF75CFDFFF732FD0D4B1A68AA
:102EF0009A4204D0996993688A689A4209D3002358
:102F000083F31188019A3B689A42284605D103B0A1
:102F1000F0BD0548FEF784FCF1E7FEF7D9F900BFE4
:102F20000008002058140020A0B500080000000090
:102F30002DE9F04FDFF8F490044685B0D9F8000091
:102F400003908A461D46D4F81C809346002A60D020
:102F5000202383F311880193FFF7E2FCFEF700FDC5
:102F60002F4E0027B8F1000F07D02046C04704E0DD
:102F700029462046FFF734FB60BBFEF7C1FDA3687E
:102F8000002BF5D0A269013B511CA161A36013780D
:102F90000AF8013B2369A2699A4224BFE368A3614E
:102FA000FEF7FEFCFFF7D4FC3368B34204D0B269ED
:102FB0009B6892689A4228D3002383F311880137D3
:102FC000BB4519D0019B83F31188FFF7A9FCFEF7DD
:102FD000C7FCC7E7FEF7E4FCFFF7BAFC3368B3426F
:102FE00007D0B2699B6892689A4202D20D48FEF7F8
:102FF00017FC002383F31188039AD9F800309A4212
:1030000038460AD105B0BDE8F08F0648FEF708FC47
:10301000D2E70548FEF704FC9AE7FEF759F900BF2E
:1030200058140020A0B50008B0B500080008002022
:1030300070B50B4D82B02E680196019E2D68069CDE
:103040000060C0E90102AE420A44C0E90312C0E9CF
:103050000511C0E9073401D102B070BDFEF738F99F
:103060000008002000000000000000000000000038
:103070002DE9F0412E4F82B03B680193044688460B
:103080001646202383F31188FFF74AFCFEF768FCFD
:1030900005E031462046FFF7A3FA051E2DDBFEF7BB
:1030A0002FFDA368002BF4D06269013B511C6161C4
:1030B000A36082F80080D4E904329A4224BFE36816
:1030C0006361E3690BB120469847FEF769FCFFF79F
:1030D0003FFC184B1A689A4204D0996993688A6831
:1030E0009A421ED3002585F31188019A3B689A42C3
:1030F00028461AD102B0BDE8F081FEF751FCFFF777
:1031000027FC0C4B1A689A4207D0996993688A6821
:103110009A4202D20848FEF783FB002383F311880A
:10312000E3E70548FEF77CFBDCE7FEF7D1F800BFDC
:103130000008002058140020A0B50008000000007E
:1031400070B5154E82B0044633680193FEF7D8FC83
:10315000FEF7D6FCD4E905329342A36815D0206966
:10316000511C0133A360A161814215780AD2204627
:103170000021FFF75DFA2846019A33689A4209D187
:1031800002B070BDE368A361F1E7002BE7D06FF0F8
:103190000200F1E7FEF79CF80008002000000000A4
:1031A0002DE9F04F04463B48D4F81C90006885B0E8
:1031B0000D46039001931646002A61D04FF0200A75
:1031C0008AF31188FFF7ACFBFEF7CAFB4FF000084B
:1031D000314FC346FEF794FCA368002B32D06269DE
:1031E000013B511C6161A3602B781370D4E9043258
:1031F0009A4224BFE36863610135B9F1000F01D041
:103200002046C847FEF7CCFBFFF7A2FB3B68BB425A
:1032100007D0BA699B6892689A4202D21F48FEF7AB
:10322000FFFA8BF31188013E08F101081FD08AF3E1
:103230001188FFF775FBFEF793FBFEF761FCA368AF
:10324000002BCCD101992046FFF7CAF90028C1D044
:10325000FEF7A6FBFFF77CFB3B68BB4204D0BA69D4
:103260009B6892689A420FD3002383F31188094B1D
:10327000039A1B689A4240460AD105B0BDE8F08F18
:103280000748FEF7CDFA99E70448FEF7C9FAEBE7DD
:10329000FEF71EF80008002058140020A0B5000812
:1032A000C0B50008000000000000000000000000A1
:1032B00030B50B490B4A0B680B4D0C4C83B022F018
:1032C0000702019301980A4B09682A6023F007035B
:1032D0008842236001D103B030BDFDF7F9FF00BF84
:1032E000000800202F230020CC1A0020C81A00203C
:1032F00000000220000000000000000000000000AC
:1033000070B51C4E82B0336801930446202383F3CA
:103310001188FFF705FBFEF723FBFEF7F1FB164ACA
:10332000164B15681B68E01D20F007005B1B9842D8
:103330009ABF401910600025FEF732FBFFF708FB2B
:103340000F4B1A689A4204D0996993688A689A4226
:1033500009D3002383F31188019A33689A422846DF
:1033600005D102B070BD0748FEF75AFAF1E7FDF744
:10337000AFFF00BF00080020CC1A0020C81A0020B0
:1033800058140020E0B50008000000000000000014
:1033900000B50B4B0B481A6883B0019201991A686B
:1033A000094B036091424FF00003C0E9023305D19D
:1033B000103003B05DF804EBFFF712BBFDF788FF98
:1033C00000080020D01A002001330008000000008F
:1033D00080B50D4A0D4982B000AF13687B604B6821
:1033E00023F001034B60EFF30983683383F309880B
:1033F000002383F3118879681368994202D1083752
:10340000BD4680BDFDF764FF0008002030EF00E0FE
:10341000B0B5194C82B000AF23687B60202383F3E2
:103420001188164B5B6813F4006308D183F311888D
:103430007A6823689A421DD10837BD46B0BDF1EEC7
:10344000103AEFF309850E4B4FF08072DB6845F8B8
:10345000083C45F84C2CA5F1680383F30988FEF776
:10346000CFFD18B1074B45F8503CE1E7064B45F856
:10347000503CDDE7FDF72CFF0008002000ED00E0E8
:1034800030EF00E0E1020008F40200080000000054
:1034900010B5184C82B02368019301F0E9FD16487D
:1034A00003F0E6F800F0D4F800F00AF900F050F963
:1034B00000F07EF900F0ACF900F0DAF900F008FA5B
:1034C00000F036FA00F0A4FE00F0AAFD00F030FF94
:1034D00000F076FF00F01CFF04F04AFA019A23681E
:1034E0009A4204D102B0BDE8104000F051BFFDF790
:1034F000EFFE00BF0008002080B9000800000000B7
:10350000F0B51A4D83B02B68019391420E461446D4
:10351000074619D38B1A1F2B16D806F01F03581C09
:103520006209012376098340B24203F1FF3304F0BC
:103530001F0457F822000BD31840E040019A2B6873
:103540009A4210D103B0F0BD0948FEF769F9E4E7EB
:1035500057F82610C4F120020B4020FA04F403FAB5
:1035600002F02043EAE7FDF7B3FE00BF00080020A9
:10357000F0B500080000000000000000000000009E
:10358000F0B51D4E83B033680193054670B37E22BB
:103590007F212846FFF7B4FF80B1012806D0002024
:1035A000019A33689A4225D103B0F0BD28463022F3
:1035B0004521FFF7A5FF01308002F1E73E224921B6
:1035C0002846FFF79DFF2F22044631212846FFF7AA
:1035D00097FF5022074653212846FFF791FF0134F9
:1035E00002370938BC4004FA00F0D9E70348FEF777
:1035F00017F9CCE7FDF76CFE0008002010B60008B4
:10360000F0B5104D83B02B680193044698B194F83F
:10361000D63094F8D770019994F8D4602A6894F859
:10362000D5001B0403EB07633344914203EB0020F6
:1036300005D103B0F0BD0448FEF7F2F8E7E7FDF767
:1036400047FE00BF0008002030B600080000000060
:1036500000B5074B83B01A680192019A1B689A4221
:1036600004D103B05DF804EB01F0BABEFDF730FE03
:103670000008002000000000000000000000000022
:1036800010B50C4B82B01A68019201991A68012496
:10369000002391420470C0E90133C0E90333436160
:1036A00005D1183002B0BDE81040FFF799B9FDF719
:1036B0000FFE00BF00080020000000000000000016
:1036C00000B5074B83B01A680192019A1B689A42B1
:1036D00004D103B05DF804EB02F032BBFDF7F8FD56
:1036E00000080020000000000000000000000000B2
:1036F00030B5134B83B01A680192019C19680125FB
:10370000002200F118030570426000F11C0500F171
:103710002002836100F12403C561026200F12805E3
:1037200000F1080243628C4200F110038562C0E997
:103730000222C0E9043301D103B030BDFDF7C8FD5A
:103740000008002000000000000000000000000051
:1037500000B5074B83B01A680192019A1B689A4220
:1037600004D103B05DF804EB02F062BFFDF7B0FDD9
:103770000008002000000000000000000000000021
:1037800010B50A4B82B01A68019201991A68012497
:10379000002391420470C0E9043305D1183002B00F
:1037A000BDE81040FFF71CB9FDF792FD00080020AE
:1037B00000B5074B83B01A680192019A1B689A42C0
:1037C00004D103B05DF804EB02F0DABAFDF780FD36
:1037D00000080020000000000000000000000000C1
:1037E00010B5084B82B01A680192019A1B68012437
:1037F00000219A420470416001D102B010BDFDF772
:1038000067FD00BF0008002000000000000000006D
:1038100000B5074B83B01A680192019A1B689A425F
:1038200004D103B05DF804EB03F0E2BDFDF750FDF9
:103830000008002000000000000000000000000060
:1038400010B5084B82B01A680192019A1B680124D6
:1038500000219A420470416001D102B010BDFDF711
:1038600037FD00BF0008002000000000000000003D
:1038700000B5074B83B01A680192019A1B689A42FF
:1038800004D103B05DF804EB03F002B9FDF720FDAD
:103890000008002000000000000000000000000000
:1038A00010B50A4B82B01A680192019A1B68012474
:1038B00000219A420470416005D10C3002B0BDE88D
:1038C0001040FFF78DB8FDF703FD00BF0008002092
:1038D00000B5074B83B01A680192019A1B689A429F
:1038E00004D103B05DF804EB03F0CABCFDF7F0FCB3
:1038F00000080020000000000000000000000000A0
:1039000010B5084B82B01A680192019A1B68012415
:1039100000219A420470416001D102B010BDFDF750
:10392000D7FC00BF000800200000000000000000DD
:1039300000B5074B83B01A680192019A1B689A423E
:1039400004D103B05DF804EB03F03ABEFDF7C0FC10
:10395000000800200000000000000000000000003F
:1039600010B5094B82B01A68019201991A680124B6
:103970000023914204704360C360037401D102B01C
:1039800010BDFDF7A5FC00BF0008002000000000EE
:1039900070B5104D82B02B6801930E46044650B1AD
:1039A00049B12379052B0CD00120019A2B689A424A
:1039B0000ED102B070BD0848FDF732FF2379052B08
:1039C000F2D1A36A73604FF4007333600020ECE718
:1039D000FDF77EFC00080020C0B6000800000000D3
:1039E0002DE9F047DFF89C8386B002AFD8F80030AD
:1039F000FB600446002800F019812379022B01D0D6
:103A0000052B2BD103232371204602F051FA00220B
:103A10001146204602F0C4FA07F108034FF4D572AC
:103A20000821204602F004FBE0B9BB680122C3F381
:103A300003239342226300F0FD80204602F070FAD7
:103A4000022323710125FA68D8F800309A422846EB
:103A500040F046811037BD46BDE8F087C048FDF70D
:103A6000DFFECFE707F1080300223721204602F0EE
:103A7000DFFA002840F0BE80BB68BA4A1A40002A2C
:103A800040F0B88022631146204602F089FA266B86
:103A900006F00F03022B00F0AF80B34EB34ADFF8FD
:103AA000C492012B18BF1646642504E0013DC4D022
:103AB0000A20FEF75DFC07F10803002237212046AB
:103AC00002F0B6FA0028B8D1BB6813EA090FB4D1E6
:103AD00007F1080332462921204602F081FA002826
:103AE000ABD1BB68002BE1DA5B0003D5236B43F05D
:103AF0001003236304F1080300220221204602F090
:103B000087FB002899D1024604F13803032120469F
:103B100002F08EFA002890D104F118052B46A26B12
:103B20000921204602F074FB002886D13B1DA26BC0
:103B30000721204602F07CFA824600287FF47DAF00
:103B4000236B03F00F03022B00F097806E467E225A
:103B500090B07F212846FFF7D3FC0DF1080900281B
:103B600079D10146B546204602F0C2F9236B03F035
:103B70000F03022B00F096802846FFF701FDA0629C
:103B80003B1D4FF400721021204602F051FA054609
:103B900000287FF452AF7B68724E33427FF44DAF02
:103BA000236B03F00F03012B40F2B280022B7FF452
:103BB00044AFE36A1A79012A00F0A88017D3022AD9
:103BC00040F0E2806A4E1979204602F0C1F907F10F
:103BD000080332460621204602F02AFA00287FF424
:103BE0002CAFBA685F4B1340002B7FF426AF052340
:103BF000237128E7022323635E4E642505E0013D1F
:103C00003FF41BAF0A20FEF7B3FB07F1080332466F
:103C10000121204602F0E4F900287FF40EAFBB68D2
:103C2000002BECDA5B007FF565AF5FE74C48FDF7F2
:103C3000F7FDE2E6024607F108033721204602F0CD
:103C4000F7F900287FF4F9AEBA68464B1340002B11
:103C50007FF4F3AE1BE7CDF800A0062340224946CF
:103C6000204602F005FB00284ED199F80D3013F0E4
:103C7000020337D11946B54675E7E36A1B687BB185
:103C800007F108033C4A0621204602F0D1F938B971
:103C9000BB6834491940B1FA81F1490963E7B54677
:103CA000002160E77E227F212846FFF729FC0128BA
:103CB0007FF662AFE36A1D68002D3FF4BEAE0023BD
:103CC00000934FF4007208232946204602F0D0FAF0
:103CD00000287FF4B2AE2846FFF792FCA0624FE7BF
:103CE000FDF7F6FA254B009340220623494620466D
:103CF00002F0BEFA40B999F8103003F00F030F2B11
:103D0000CDD0B54601212EE7B54696E61C4E5AE7C2
:103D1000E36A197900293FF46AAF01297FF48DAE77
:103D2000204602F015F907F10803A26B372120465F
:103D300002F07EF900287FF480AEBB6833427FF446
:103D40007CAE07F1080302220621204602F070F93A
:103D500000287FF472AEBB6833423FF448AF6CE694
:103D600070B6000808E0FFFD000010C000001080E1
:103D70000002B7030080FFC00001B903F1FFFF801C
:103D80000001B703000800200248034EFDF748FD7C
:103D9000E36A18E750B600080000B703000000000F
:103DA0002DE9F041194D82B02C6801940F469046E0
:103DB0001E460446C0B1BAB1B3B12379052B02D077
:103DC0001348FDF72DFD781EA36A304498420FD9A1
:103DD000636B43F0800363630120019A2B689A426E
:103DE00011D102B0BDE8F0810948FDF719FDE4E703
:103DF00006203346207142463946204602F080FBB9
:103E000005232371E9E7FDF763FA00BF00080020EE
:103E100090B6000800000000000000000000000054
:103E20002DE9F041194D82B02C6801940F4690465F
:103E30001E460446C0B1BAB1B3B12379052B02D0F6
:103E40001348FDF7EDFC781EA36A304498420FD961
:103E5000636B43F0800363630120019A2B689A42ED
:103E600011D102B0BDE8F0810948FDF7D9FCE4E7C3
:103E700007203346207142463946204602F080FB37
:103E800005232371E9E7FDF723FA00BF00080020AE
:103E9000A0B60008000000000000000000000000C4
:103EA00070B50E4D82B02B680193044680B126791F
:103EB000052E06D00120019A2B689A420CD102B03F
:103EC00070BD08232371204602F09AFB2671F2E7A9
:103ED0000348FDF7A5FCEAE7FDF7FAF90008002022
:103EE000B0B6000800000000000000000000000064
:103EF00070B5124D124E2B6882B0044601936B468A
:103F0000A26B0D21204602F093F878B9009B334252
:103F10000BD1C3F34323042B08D04FF0010005D38A
:103F2000072B03D8FEF724FAE9E70120019A2B6852
:103F30009A4201D102B070BDFDF7CAF90008002015
:103F400008E0FFFD0000000000000000000000008D
:103F500070B52D4E82B033680193044600284CD0D2
:103F6000202383F31188FEF7DBFCFDF7F9FC2379AE
:103F7000022B29D0052B21D104232371FDF710FD3D
:103F8000FEF7E6FC214B1A689A4204D099699368BF
:103F90008A689A4229D3002383F311882046FFF7C9
:103FA000A7FF0546204601F0BBFF02232371019ABB
:103FB00033689A42284624D102B070BD1448FDF7F8
:103FC0002FFC2379022BD7D1FDF7EAFCFEF7C0FCCA
:103FD0000E4B1A689A4204D0996993688A689A428B
:103FE00007D3002585F31188E1E70A48FDF718FC9F
:103FF000D1E70848FDF714FCF3E70548FDF710FC8E
:10400000AEE7FDF765F900BF000800205814002056
:1040100080B60008D0B600080000000000000000D4
:1040200000B5074B83B01A680192019A1B689A4247
:1040300004D103B05DF804EB01F01ABFFDF748F9B5
:104040000008002000000000000000000000000048
:1040500010B50A4B0A4C1A6882B0019201991A688D
:10406000046000230124914204714363C0E90A33D0
:1040700001D102B010BDFDF72BF900BF00080020F0
:10408000E0B6000800000000000000000000000092
:1040900030B5084C83B025680195019D2468A54280
:1040A00005D10C3003B0BDE83040FEF741BFFDF74D
:1040B0000FF900BF00080020000000000000000011
:1040C00010B5094B82B01C680194019C1B689C428E
:1040D00007D10C304FF0FF3302B0BDE81040FEF7BF
:1040E00027BFFDF7F5F800BF000800200000000022
:1040F00030B5084C83B025680195019D2468A54220
:1041000005D1303003B0BDE83040FFF749B8FDF7C6
:10411000DFF800BF000800200000000000000000E1
:1041200010B5094B82B01C680194019C1B689C422D
:1041300007D130304FF0FF3302B0BDE81040FFF739
:104140002FB8FDF7C5F800BF0008002000000000F0
:1041500000B5084B83B01A680192019A1B689A4215
:1041600005D10C3003B05DF804EBFEF791BEFDF70E
:10417000AFF800BF000800200000000000000000B1
:1041800000B5094B83B01A680192019A1B689A42E4
:1041900007D10C304FF0FF3103B05DF804EBFEF7B0
:1041A00077BEFDF795F800BF000800200000000072
:1041B00010B5084B82B01C680194019C1B689C429E
:1041C00005D1303002B0BDE81040FEF751BFFDF719
:1041D0007FF800BF00080020000000000000000081
:1041E00000B5094B83B01A680192019A1B689A4284
:1041F00007D130304FF0FF3203B05DF804EBFEF72B
:1042000037BFFDF765F800BF000800200000000080
:1042100000B5074B83B01A680192019A1B689A4255
:1042200004D103B05DF804EB03F03ABBFDF750F89E
:104230000008002000000000000000000000000056
:10424000F0B5144D144B2F68044685B040F8043B7C
:104250004FF0010C00940B461646606084F808C0CD
:1042600004F1540104F10C0010220397FEF7C0FD85
:1042700033461022009404F1640104F13000FEF78B
:10428000D7FE039A2B689A4201D105B0F0BDFDF725
:104290001FF800BF0008002010B700080000000051
:1042A00070B5174D82B004462B6801930E46FDF79A
:1042B00027FCF4B1FDF724FC636963B1314604F1D6
:1042C0000C00FEF7B5FD0028019A2B6808DB9A4226
:1042D00013D102B070BD04216018FEF759FDEDE75F
:1042E0009A420AD1201D802102B0BDE87040FEF73D
:1042F0004FBD0448FDF794FADCE7FCF7E9FF00BF87
:104300000008002000B700080000000000000000C6
:1043100000B5064B83B01A680192019A1B689A4255
:1043200002D103B05DF804FBFCF7D2FF00080020C7
:1043300000B5074B83B01A680192019A1B689A4234
:1043400004D103B05DF804EB02F0C2BFFCF7C0FF7C
:104350000008002000000000000000000000000035
:1043600010B50A4B82B01A68019201991A680124AB
:10437000002391420470C0E9013305D10C3002B032
:10438000BDE81040FEF72CBBFCF7A2FF00080020A0
:1043900000B5074B83B01A680192019A1B689A42D4
:1043A00004D103B05DF804EB03F072B9FCF790FFA1
:1043B00000080020000000000000000000000000D5
:1043C00000B5074B83B01A680192019A1B689A42A4
:1043D00004D103B05DF804EB02F082BBFCF778FF78
:1043E00000080020000000000000000000000000A5
:1043F00010B50B4B82B01A68019201991A6801241A
:10440000002391420470C36183620362C36243620A
:104410000363C0E9013301D102B010BDFCF758FFBE
:104420000008002000000000000000000000000064
:10443000F0B5124D83B004462B6801930E46FDF78C
:104440005FFBA4B1012000FA06F362899BB212EA75
:10445000030706D1134320466381314602F050FE24
:104460003846019A2B689A4205D103B0F0BD044842
:10447000FDF7D6F9E6E7FCF72BFF00BF00080020A8
:1044800030B700080000000000000000000000003D
:10449000F0B5124D83B004462B6801930E46FDF72C
:1044A0002FFBA4B1012000FA06F322899BB212EA85
:1044B000030706D1134320462381314602F040FE14
:1044C0003846019A2B689A4205D103B0F0BD0448E2
:1044D000FDF7A6F9E6E7FCF7FBFE00BF00080020A9
:1044E00050B70008000000000000000000000000BD
:1044F00030B50D4B83B01A680192019C19680022F7
:1045000002258C420570C264C0E90222C0E904227F
:10451000826180F8342004D103B0BDE8304002F05D
:104520000FBBFCF7D5FE00BF000800200000000014
:10453000F0B5C54D83B0044600222B6880F83420C6
:1045400000F14402019302F0D3FB63689B68002BE7
:1045500036D02046984798B3E16B94F8443094F8ED
:104560004B0094F84A2042EA00228A422CBF0A46B5
:10457000E2631806E16800F1A680002A00F084805A
:104580008B69A16B0026042084F83400D9605A603E
:104590001E709E603146204602F0C2FB202383F34A
:1045A0001188FEF7EDF9FDF71BFA31462046FFF7BB
:1045B0003FFFFDF735FAFEF7FBF986F3118816E0A9
:1045C00094F8443013F06006184617D000212046B6
:1045D00002F0F6FD0021204602F0D2FD63681B6860
:1045E00013B1052120469847062384F83430019AF8
:1045F0002B689A4240F03E8103B0F0BD94F845101C
:1046000003F07F0242EA0122B2F5407F00F0098107
:1046100017D9B2F5C06F00F0CA8040F28E80B2F5B3
:10462000106F68D040F602418A4200F0DC80B2F59B
:10463000006FCBD104F14F0201212664C4E90E21A1
:104640008DE7022A00F0D68040F29680B2F5807F96
:1046500064D0B2F5817FB9D194F84630002BB5D142
:1046600094F8483013F00F0107D01F06204600F1E0
:10467000F78002F0C5FD94F844000023C4E90E332E
:1046800023640306E1682BD44B690026052284F8D5
:104690003420C3E9016631461E70DE60204602F018
:1046A000DFFB202383F31188FEF76AF9FDF798F901
:1046B00031462046FFF7ECFEFDF7B2F9FEF778F938
:1046C00086F3118893E75AB14B69A16B002601204C
:1046D00084F83400D9605A601E709E603146DDE770
:1046E0008B690026032284F8342031461E70DE6078
:1046F000C3E901664FE794F8463084F84F30002B49
:1047000040F09E800323237063681B68002BB4D0A5
:1047100020460221984794F84400AEE794F84630CA
:10472000012B7FF453AFB4F84C30A66323F002039F
:10473000C4E90F66A4F84C30A3E740F202339A4272
:1047400022D0B2F5A06F7FF441AFB4F84430B3F596
:10475000A06F92D194F8463084F84E30204602F093
:1047600067FA63681B6813B1012120469847032349
:1047700094F84400237080E792BB04F14C000221BE
:104780002264C4E90E01EAE694F84630002B7FF477
:104790001DAF94F8483013F00F013FF46EAF1E06C2
:1047A000204662D402F0ECFC94F8440065E794F8EB
:1047B0004900616894F848304F6894F8462094F8AE
:1047C000471043EA00232046B84700283FF4FEAED6
:1047D000D0E900132664C4E90E3194F84430BEE6F3
:1047E000012A7FF4F3AE194AA26302210022C4E930
:1047F0000F12B4E694F8483003F00F011B06204670
:1048000028D402F035FA012828D002287FF4DEAE41
:104810000F4BA36302210023C4E90F1394F8443023
:104820009DE694F84630012B7FF4D0AEB4F84C30BE
:10483000A66343F00203C4E90F66A4F84C3020E7F6
:104840000423237060E700BF00080020B0B7000811
:1048500090B7000802F02CFA0128D6D1064BD8E711
:1048600002F0EEFC94F8440007E702F0A9FC94F88B
:10487000440002E7FCF72CFDA0B700080000000090
:1048800070B5454D90F834302A6882B004460192E4
:10489000062B57D8DFE803F004255404041E070054
:1048A0003E48FCF7BDFF0021204602F089FC0021B4
:1048B000204602F065FC63681B6813B105212046A1
:1048C0009847062384F83430019A2B689A4261D1C4
:1048D00002B070BD036C03B19847002384F83430F4
:1048E000F2E790F84B0094F84A20E16BE36842EA63
:1048F0000022914205D21A8AB1FBF2F602FB16168B
:1049000056B39B690026032284F8342031461E707A
:10491000DE60C3E90166204602F002FA202383F339
:104920001188FEF72DF8FDF75BF831462046FFF7BA
:104930007FFDFDF775F8FEF73BF886F31188C3E7B6
:10494000C368DEE7019A2B689A4223D1134802B06C
:10495000BDE87040FCF764BF5B6931461E70DE60E5
:10496000C3E90166204602F07BFA202383F3118815
:10497000FEF706F8FDF734F831462046FFF788FDCC
:10498000FDF74EF8FEF714F886F31188022384F839
:10499000343099E7FCF79CFC0008002070B7000851
:1049A00070B5304D90F834302A6882B004460192D8
:1049B000062B4AD8DFE803F00404043D1E04070078
:1049C0002948FCF72DFF0021204602F0F9FB0021C9
:1049D000204602F0D5FB63681B6813B10521204611
:1049E0009847062384F83430019A2B689A4236D1CE
:1049F00002B070BDC3685B690026052280F83420D0
:104A000031461E70DE60C3E9016602F029FA2023F8
:104A100083F31188FDF7B4FFFCF7E2FF314620462F
:104A2000FFF736FDFCF7FCFFFDF7C2FF86F31188A8
:104A3000DAE7C3689B699B68002BD5D1036C03B18F
:104A40009847002384F83430CEE7019A2B689A42C5
:104A500005D1054802B0BDE87040FCF7E1BEFCF7A7
:104A600037FC00BF0008002080B7000800000000ED
:104A700030B54309104D83B09B002A68019200F1C4
:104A8000604403F1604303F561430122090104F529
:104A9000614400F01F0002FA00F0C9B284F800136C
:104AA000C3F880011860019A2B689A4201D103B0C3
:104AB00030BDFCF70DFC00BF000800200000000026
:104AC00070B50D4E82B0336801930C2804460D4634
:104AD00002D90A48FCF7A4FE04F1604000F56D40DD
:104AE0002D01EDB20576019A33689A4201D102B0E8
:104AF00070BDFCF7EDFB00BF00080020C0B7000848
:104B000010B50F4C82B023680193FDF7D1FEFCF77E
:104B1000A7FF0C4B0C4A196801F03D01996013681E
:104B20000BB150689847FCF7C3FF019A23689A427B
:104B300004D102B0BDE81040FEF76ABCFCF7C8FB28
:104B40000008002000600240F81A00200000000069
:104B500030B5104C83B023680193FDF7A9FEFCF734
:104B60007FFF0D4B0D4819688268890901F03D01EE
:104B70008D019D600AB1C0689047FCF799FF019ACA
:104B800023689A4204D103B0BDE83040FEF740BC30
:104B9000FCF79EFB0008002000600240F81A00208D
:104BA00030B5104C83B023680193FDF781FEFCF70C
:104BB00057FF0D4B0D4819680269090C01F03D01C2
:104BC0000D049D600AB140699047FCF771FF019A9E
:104BD00023689A4204D103B0BDE83040FEF718BC08
:104BE000FCF776FB0008002000600240F81A002065
:104BF00030B5104C83B023680193FDF759FEFCF7E4
:104C00002FFF0D4B0D4819688269890D01F03D0198
:104C10008D059D600AB1C0699047FCF749FF019A74
:104C200023689A4204D103B0BDE83040FEF7F0BBE0
:104C3000FCF74EFB0008002000600240F81A00203C
:104C400010B50F4C82B023680193FDF731FEFCF7DD
:104C500007FF0C4B0C485968026A01F03D01D9600E
:104C60000AB1406A9047FCF723FF019A23689A42F1
:104C700004D102B0BDE81040FEF7CABBFCF728FB28
:104C80000008002000600240F81A00200000000028
:104C900030B5104C83B023680193FDF709FEFCF793
:104CA000DFFE0D4B0D485968826A890901F03D010C
:104CB0008D01DD600AB1C06A9047FCF7F9FE019AE8
:104CC00023689A4204D103B0BDE83040FEF7A0BB90
:104CD000FCF7FEFA0008002000600240F81A0020ED
:104CE00030B5104C83B023680193FDF7E1FDFCF76C
:104CF000B7FE0D4B0D485968026B090C01F03D01E0
:104D00000D04DD600AB1406B9047FCF7D1FE019ABB
:104D100023689A4204D103B0BDE83040FEF778BB67
:104D2000FCF7D6FA0008002000600240F81A0020C4
:104D300030B5104C83B023680193FDF7B9FDFCF743
:104D40008FFE0D4B0D485968826B890D01F03D01B6
:104D50008D05DD600AB1C06B9047FCF7A9FE019A92
:104D600023689A4204D103B0BDE83040FEF750BB3F
:104D7000FCF7AEFA0008002000600240F81A00209C
:104D800010B50F4C82B023680193FDF791FDFCF73D
:104D900067FE0C4B0C481968026C01F03D019960EC
:104DA0000AB1406C9047FCF783FE019A23689A424F
:104DB00004D102B0BDE81040FEF72ABBFCF788FA28
:104DC0000008002000640240F81A002000000000E3
:104DD00030B5104C83B023680193FDF769FDFCF7F3
:104DE0003FFE0D4B0D481968826C890901F03D01A9
:104DF0008D019D600AB1C06C9047FCF759FE019A85
:104E000023689A4204D103B0BDE83040FEF700BBEE
:104E1000FCF75EFA0008002000640240F81A002047
:104E200030B5104C83B023680193FDF741FDFCF7CA
:104E300017FE0D4B0D481968026D090C01F03D017C
:104E40000D049D600AB1406D9047FCF731FE019A58
:104E500023689A4204D103B0BDE83040FEF7D8BAC7
:104E6000FCF736FA0008002000640240F81A00201F
:104E700030B5104C83B023680193FDF719FDFCF7A2
:104E8000EFFD0D4B0D481968826D890D01F03D0154
:104E90008D059D600AB1C06D9047FCF709FE019A2F
:104EA00023689A4204D103B0BDE83040FEF7B0BA9F
:104EB000FCF70EFA0008002000640240F81A0020F7
:104EC00010B50F4C82B023680193FDF7F1FCFCF79D
:104ED000C7FD0C4B0C485968026E01F03D01D960CA
:104EE0000AB1406E9047FCF7E3FD019A23689A42AD
:104EF00004D102B0BDE81040FEF78ABAFCF7E8F929
:104F00000008002000640240F81A002000000000A1
:104F100030B5104C83B023680193FDF7C9FCFCF752
:104F20009FFD0D4B0D485968826E890901F03D01C6
:104F30008D01DD600AB1C06E9047FCF7B9FD019AA2
:104F400023689A4204D103B0BDE83040FEF760BA4E
:104F5000FCF7BEF90008002000640240F81A0020A7
:104F600030B5104C83B023680193FDF7A1FCFCF72A
:104F700077FD0D4B0D485968026F090C01F03D019A
:104F80000D04DD600AB1406F9047FCF791FD019A76
:104F900023689A4204D103B0BDE83040FEF738BA26
:104FA000FCF796F90008002000640240F81A00207F
:104FB00030B5104C83B023680193FDF779FCFCF702
:104FC0004FFD0D4B0D485968826F890D01F03D0171
:104FD0008D05DD600AB1C06F9047FCF769FD019A4D
:104FE00023689A4204D103B0BDE83040FEF710BAFE
:104FF000FCF76EF90008002000640240F81A002057
:1050000070B5134D134E2B68134A1448144C82B0DC
:105010000021019331600B4601E052F80C0C016055
:1050200044F833100133102B02F10C02F5D10D4A74
:105030000D494FF0FF338B60CB609360D360019AD2
:105040002B689A4201D102B070BDFCF741F900BF54
:1050500000080020781B0020ECB700081060024018
:10506000F81A0020006402400060024000000000C6
:1050700030B51C4C1C4B22681C4D83B04FF0FF31E7
:1050800001920022186919611A61586959615A61BF
:10509000186A60F0805018621A62586A59625A623F
:1050A000196C41F080511964296841F480712960BC
:1050B000196F01F44071B1F5007F03D04FF48031D6
:1050C00019671A67094A536823F400735360019AF9
:1050D00023689A4204D103B0BDE83040FFF790BF87
:1050E000FCF7F6F80008002000380240007000408D
:1050F00010B53649364B0868364A82B04FF08054B6
:1051000001904FF440401C6410601A6842F00102A4
:105110001A601A689007FCD598682D4A20F00300A1
:10512000986098689860936813F00C03FBD114683A
:10513000274804F0F90414609360136843F4A02333
:10514000136003689A03FCD5436F214A43F00103BF
:105150004367536F9B07FCD51F4B536013681D4873
:1051600043F08073136043685C04FCD5184A1368ED
:105170009801FCD5194BC2F884301368144843F0E9
:105180008063136003681B01FCD5154B154A8260D0
:1051900040F205721A6083680D4A43F0020383608F
:1051A000936803F00C03082BFAD1536C43F480434B
:1051B0005364536E43F480435366019A0B689A42DA
:1051C00001D102B010BDFCF783F800BF0008002039
:1051D0000038024000700040185440070030006062
:1051E000003C02400094083800000000000000006D
:1051F000F0B56F4C83B023680193FDF759FBFCF7C2
:105200002FFC6C4B1A6800211960910606D56A4D77
:10521000296B0A685368002B40F09080674B1A682E
:1052200000219206196005D5654D296B0A685368FF
:10523000002B4CD1634B1A680021196093063BD5B3
:10524000614D296B0A685368002B35D02E69002EFA
:1052500032D0136823F01F031360136813F00103A7
:10526000FBD191F808C04F68B668EA6A3D2000FAA1
:105270000CF00121386053609360916046B10523C2
:105280002B705148B0472B78052B04BF02232B709D
:1052900000262E61202383F31188FDF771FBFCF7B4
:1052A0009FFB4FF0FF314948FDF76AF9FCF7B8FB67
:1052B000FDF77EFB86F31188FCF7FAFB019A236861
:1052C0009A4273D103B0BDE8F040FEF7A1B82E6951
:1052D000002EAFD0136823F01F031360136813F080
:1052E0000103FBD191F808C04F68B668EA6A3D2017
:1052F00000FA0CF00121386053609360916046B170
:1053000005232B702E48B0472B78052B04BF0223B2
:105310002B7000262E61202383F31188FDF730FBCC
:10532000FCF75EFB4FF0FF312948FDF729F9FCF748
:1053300077FBFDF73DFB86F311887BE72E69002E96
:105340003FF46CAF136823F01F031360136813F06E
:105350000103FBD191F808C04F68B668EA6A3D20A6
:1053600000FA0CF00121386053609360916046B1FF
:1053700005232B701048B0472B78052B04BF022360
:105380002B7000262E61202383F31188FDF7F8FA95
:10539000FCF726FB4FF0FF310E48FDF7F1F8FCF764
:1053A0003FFBFDF705FB86F3118837E7FBF790FF1E
:1053B00000080020002001407C1B0020002101404B
:1053C000B41B002000220140EC1B0020001C002028
:1053D000C81B0020901B00200000000000000000FF
:1053E0002DE9F041194FDFF88C80194ED8F80030C4
:1053F000184C194D82B038460193FEF741F9174B0E
:10540000FB623046164B7B633C63FEF739F9154A65
:10541000154BF2622846A4F1180232637363FEF75B
:105420002FF9019AD8F8003010491148E862243C5D
:105430009A42C5E90C4106D10621122002B0BDE80E
:10544000F041FFF715BBFBF743FF00BF7C1B0020BB
:10545000B41B002070B80008EC1B002000200140A5
:10546000162C020000210140162C0202162C020408
:1054700000220140000800200000000000000000A1
:1054800010B50E4C82B023680193FDF711FAFCF7BA
:10549000E7FA0B480B4A436801215B685161002120
:1054A0009847FCF705FB019A23689A4204D102B0A1
:1054B000BDE81040FDF7ACBFFBF70AFF0008002075
:1054C000541C0020003C01400000000000000000CF
:1054D00010B50E4C82B023680193FDF7E9F9FCF793
:1054E000BFFA0B480B4A43680221DB685161012176
:1054F0009847FCF7DDFA019A23689A4204D102B07A
:10550000BDE81040FDF784BFFBF7E2FE0008002075
:10551000541C0020003C014000000000000000007E
:1055200010B50E4C82B023680193FDF7C1F9FCF76A
:1055300097FA0B480B4A436804215B6951610221C9
:105540009847FCF7B5FA019A23689A4204D102B051
:10555000BDE81040FDF75CBFFBF7BAFE0008002075
:10556000541C0020003C014000000000000000002E
:1055700010B50E4C82B023680193FDF799F9FCF742
:105580006FFA0B480B4A43680821DB69516103211C
:105590009847FCF78DFA019A23689A4204D102B029
:1055A000BDE81040FDF734BFFBF792FE0008002075
:1055B000541C0020003C01400000000000000000DE
:1055C00010B50E4C82B023680193FDF771F9FCF71A
:1055D00047FA0B480B4A436810215B6A516104216A
:1055E0009847FCF765FA019A23689A4204D102B001
:1055F000BDE81040FDF70CBFFBF76AFE0008002075
:10560000541C0020003C014000000000000000008D
:1056100030B51E4D83B02B680193FDF749F9FCF7B7
:105620001FFA1B4B5C6904F478725A61A30604D517
:10563000184843680521DB6A9847600604D5154879
:10564000436806215B6B9847210604D511484368DF
:105650000721DB6B9847E20504D50E484368082113
:105660005B6C9847A30504D50A4843680921DB6CA5
:105670009847FCF71DFA019A2B689A4204D103B0AF
:10568000BDE83040FDF7C4BEFBF722FE0008002055
:10569000003C0140541C00200000000000000000FD
:1056A00030B5224D83B02B680193FDF701F9FCF76B
:1056B000D7F91F4B5C6904F47C425A61620504D53A
:1056C0001C4843680A215B6D9847230504D5194897
:1056D00043680B21DB6D9847E00404D51548436807
:1056E0000C215B6E9847A10404D5124843680D2134
:1056F000DB6E9847620404D50E4843680E215B6F49
:105700009847230404D50B4843680F21DB6F984763
:10571000FCF7CEF9019A2B689A4204D103B0BDE898
:105720003040FDF775BEFBF7D3FD00BF0008002039
:10573000003C0140541C002000000000000000005C
:1057400010B50F4C82B023680193FDF7B1F8FCF758
:1057500087F90C480C4A43684FF48031D3F8843001
:10576000516110219847FCF7A3F9019A23689A42E6
:1057700004D102B0BDE81040FDF74ABEFBF7A8FD1A
:1057800000080020541C0020003C014000000000E4
:1057900010B50F4C82B023680193FDF789F8FCF730
:1057A0005FF90C480C4A43684FF40031D3F88C3051
:1057B000516111219847FCF77BF9019A23689A42BD
:1057C00004D102B0BDE81040FDF722BEFBF780FD1A
:1057D00000080020541C0020003C01400000000094
:1057E00010B50F4C82B023680193FDF761F8FCF708
:1057F00037F90C480C4A43684FF48021D3F89430B1
:10580000516112219847FCF753F9019A23689A4293
:1058100004D102B0BDE81040FDF7FABDFBF758FD1A
:1058200000080020541C0020003C01400000000043
:1058300010B50F4C82B023680193FDF739F8FCF7DF
:105840000FF90C480C4A43684FF40021D3F89C3000
:10585000516113219847FCF72BF9019A23689A426A
:1058600004D102B0BDE81040FDF7D2BDFBF730FD1A
:1058700000080020541C0020003C014000000000F3
:1058800010B50F4C82B023680193FDF711F8FCF7B7
:10589000E7F80C480C4A43684FF48011D3F8A43061
:1058A000516114219847FCF703F9019A23689A4241
:1058B00004D102B0BDE81040FDF7AABDFBF708FD1A
:1058C00000080020541C0020003C014000000000A3
:1058D00010B50F4C82B023680193FCF7E9FFFCF789
:1058E000BFF80C480C4A43684FF40011D3F8AC30B1
:1058F000516115219847FCF7DBF8019A23689A4219
:1059000004D102B0BDE81040FDF782BDFBF7E0FC1A
:1059100000080020541C0020003C01400000000052
:1059200010B50F4C82B023680193FCF7C1FFFCF760
:1059300097F80C480C4A43684FF48001D3F8B43010
:10594000516116219847FCF7B3F8019A23689A42EF
:1059500004D102B0BDE81040FDF75ABDFBF7B8FC1A
:1059600000080020541C0020003C01400000000002
:10597000F0B5494D494E2B68494C83B00193336CC7
:1059800043F000733364D4F800321B0C1B0443F063
:10599000010343EA0023C4F8003200295FD000234A
:1059A000C4F81C321846C4F80432C4F80C32C4F8E7
:1059B00014321C46C30003F1804303F5C843013091
:1059C0001C28C3F84042C3F84442F3D134480026AF
:1059D00001271479136814F0010F07FA03FC05D0AE
:1059E000D0F804E24EEA0C0EC0F804E214F0020F04
:1059F00005D0D0F80CE24EEA0C0EC0F80CE26407B9
:105A000005D5D0F8144244EA0C04C0F81442DB0077
:105A100003F1804303F5C8439468C3F84042D46857
:105A2000C3F84442D0F81C32013643EA0C03B142B9
:105A300002F11002C0F81C32CBD11949174AD1F833
:105A4000003223F00103C1F80032136C23F000731D
:105A50001364019A2B689A421BD103B0F0BDC200B7
:105A600002F18042012302F5C842834043F0010362
:105A7000C4F84012C4F84412C2F84012C2F84412EA
:105A8000C4F80412C4F81412C4F80C32C4F81C325E
:105A9000D3E7FBF71DFC00BF0008002000380240E0
:105AA0000064004000000000000000000000000052
:105AB00030B5184D184C2B6883B00193FCF7F8FEF5
:105AC000FBF7CEFFE36A154A9A60202383F311881F
:105AD000FCF756FFFBF784FF04F108000021FCF7F8
