:020000040800F2
:1000000000040020C1010008E1260008E1260008E4
:10001000011B0008E1260008E1260008E12600088F
:10002000E1260008E1260008E12600080146000854
:10003000E1260008E1260008E126000831930008C7
:10004000E1260008416E0008D16F00082170000809
:10005000E1260008E1260008816B0008D16B00084A
:10006000216C0008716C0008C16C0008B1600008C8
:100070000161000851610008A1610008F1610008F8
:100080004162000891620008F1680008B17100083F
:1000900021720008D172000881730008116D0008F8
:1000A000E1260008E126000881900008E12600080A
:1000B000B1910008F191000831920008F180000828
:1000C00021820008E1260008E1260008E126000858
:1000D000E1260008E1260008E1260008F193000867
:1000E000A16D0008916E0008E16E0008E12600088D
:1000F000E1260008E1260008E1260008E162000888
:10010000E12600081175000871920008E126000838
:10011000E1260008E126000821900008E1260008F9
:100120003163000881630008D1630008216400087E
:1001300071640008E1260008316F0008E12600081C
:10014000E1260008E1260008E1260008C18C00082D
:10015000C16400081165000861650008E126000817
:10016000E1260008E1260008E1260008E126000853
:10017000816F0008E1260008F1140008E12600085C
:10018000E1260008E1260008E1260008E126000833
:10019000E1260008E1260008E1260008E126000823
:1001A000E1260008E1260008E1260008E126000813
:1001B000E1260008E1260008E1260008E126000803
:1001C00072B62E4880F3098840F20000CCF200009D
:1001D0004EF63471CEF20001086040F20000C0F229
:1001E000F0004EF68851CEF2000108604FF000009A
:1001F000E1EE100A4EF63C71CEF2000108600620D6
:1002000080F31488BFF36F8F09F03AFA4FF055303E
:100210001B491C4A91423CBF41F8040BFAE71A49BA
:10022000164A91423CBF41F8040BFAE71749184AB5
:10023000184B9A423EBF51F8040B42F8040BF8E702
:1002400000201549154A91423CBF41F8040BFAE7DA
:1002500002F02EFA124C134DAC4203DA54F8041B90
:100260008847F9E700F0D4FF0F4C104DAC4203DA99
:1002700054F8041B8847F9E702F02ABA0008002066
:1002800000000020000400200004002048DD0008D9
:1002900000080020D4110020D81100205027002091
:1002A000C0010008C0010008C0010008C00100082A
:1002B0002DE9F04F2DED108AC1F80CD0D0F80CD0FC
:1002C000BDEC108ABDE8F08F02F04AFB03F0B0FBF2
:1002D000002383F311882846A047002003F048F943
:1002E00003F08EFB02F01CFB02F03AFF02F038FB39
:1002F00003F09EFB00DFFEE70000000000000000AE
:1003000081F0004102E000BF83F0004330B54FEAC6
:1003100041044FEA430594EA050F08BF90EA020F33
:100320001FBF54EA000C55EA020C7FEA645C7FEAC6
:10033000655C00F0E2804FEA5454D4EB5555B8BFE9
:100340006D420CDD2C4480EA020281EA030382EA5A
:10035000000083EA010180EA020281EA0303362DEC
:1003600088BF30BD11F0004F4FEA01314FF4801CBF
:100370004CEA113102D0404261EB410113F0004FD1
:100380004FEA03334CEA133302D0524263EB430388
:1003900094EA050F00F0A780A4F10104D5F1200E26
:1003A0000DDB02FA0EFC22FA05F2801841F1000181
:1003B00003FA0EF2801843FA05F359410EE0A5F155
:1003C00020050EF1200E012A03FA0EFC28BF4CF086
:1003D000020C43FA05F3C01851EBE37101F000453C
:1003E00007D54FF0000EDCF1000C7EEB00006EEB49
:1003F0000101B1F5801F1BD3B1F5001F0CD34908D3
:100400005FEA30004FEA3C0C04F101044FEA445229
:1004100012F5800F80F09A80BCF1004F08BF5FEAB0
:10042000500C50F1000041EB045141EA050130BD90
:100430005FEA4C0C404141EB010111F4801FA4F133
:100440000104E9D191F0000F04BF01460020B1FA88
:1004500081F308BF2033A3F10B03B3F120020CDAC0
:100460000C3208DD02F1140CC2F10C0201FA0CF09E
:1004700021FA02F10CE002F11402D8BFC2F1200C03
:1004800001FA02F120FA0CFCDCBF41EA0C019040B9
:10049000E41AA2BF01EB0451294330BD6FEA040402
:1004A0001F3C1CDA0C340EDC04F11404C4F12002ED
:1004B00020FA04F001FA02F340EA030021FA04F3FF
:1004C00045EA030130BDC4F10C04C4F1200220FA56
:1004D00002F001FA04F340EA0300294630BD21FA94
:1004E00004F0294630BD94F0000F83F4801306BF5A
:1004F00081F480110134013D4EE77FEA645C18BF4E
:100500007FEA655C29D094EA050F08BF90EA020FE4
:1005100005D054EA000C04BF1946104630BD91EADC
:10052000030F1EBF0021002030BD5FEA545C05D1DF
:100530004000494128BF41F0004130BD14F580041E
:100540003CBF01F5801130BD01F0004545F0FE4192
:1005500041F470014FF0000030BD7FEA645C1ABFC7
:10056000194610467FEA655C1CBF0B46024650EAFE
:10057000013406BF52EA033591EA030F41F400212A
:1005800030BD00BF90F0000F04BF0021704730B5B0
:100590004FF4806404F132044FF000054FF0000185
:1005A00050E700BF90F0000F04BF0021704730B546
:1005B0004FF4806404F1320410F0004548BF40421B
:1005C0004FF000013EE700BF42004FEAE2014FEA70
:1005D00031014FEA02701FBF12F07F4393F07F4F4B
:1005E00081F06051704732F07F4208BF704793F04E
:1005F0007F4F04BF41F40021704730B54FF4607461
:1006000001F0004521F000411CE700BF50EA010263
:1006100008BF704730B54FF000050AE050EA01020C
:1006200008BF704730B511F0004502D5404261EB7C
:1006300041014FF4806404F132045FEA915C3FF4BD
:10064000D8AE4FF003025FEADC0C18BF03325FEA5A
:10065000DC0C18BF033202EBDC02C2F1200300FA0B
:1006600003FC20FA02F001FA03FE40EA0E0021FA30
:1006700002F11444BDE600BF0000000000000000CD
:1006800070B54FF0FF0C4CF4E06C1CEA11541DBF28
:100690001CEA135594EA0C0F95EA0C0F00F0DEF8F3
:1006A0002C4481EA030621EA4C5123EA4C5350EAD8
:1006B000013518BF52EA033541F4801143F4801329
:1006C00038D0A0FB02CE4FF00005E1FB02E506F0BA
:1006D0000042E0FB03E54FF00006E1FB03569CF00F
:1006E000000F18BF4EF0010EA4F1FF04B6F5007F15
:1006F00064F5407404D25FEA4E0E6D4146EB060687
:1007000042EAC62141EA55514FEAC52040EA5E500F
:100710004FEACE2EB4F1FD0C88BFBCF5E06F1ED8B9
:10072000BEF1004F08BF5FEA500E50F1000041EBF0
:10073000045170BD06F0004646EA010140EA02009D
:1007400081EA0301B4EB5C04C2BFD4EB0C0541EABF
:10075000045170BD41F480114FF0000E013C00F3D4
:10076000AB8014F1360FDEBF002001F0004170BDF8
:10077000C4F10004203C35DA0C341BDC04F1140411
:10078000C4F1200500FA05F320FA04F001FA05F29D
:1007900040EA020001F0004221F0004110EBD3706A
:1007A00021FA04F642EB06015EEA430E08BF20EA96
:1007B000D37070BDC4F10C04C4F1200500FA04F339
:1007C00020FA05F001FA04F240EA020001F00041CB
:1007D00010EBD37041F100015EEA430E08BF20EA3E
:1007E000D37070BDC4F1200500FA05F24EEA020E86
:1007F00020FA04F301FA05F243EA020321FA04F0B5
:1008000001F0004121FA04F220EA020000EBD3706B
:100810005EEA430E08BF20EAD37070BD94F0000F6B
:100820000FD101F00046400041EB010111F4801F9F
:1008300008BF013CF7D041EA060195F0000F18BF50
:10084000704703F00046520043EB030313F4801F8C
:1008500008BF013DF7D043EA0603704794EA0C0F46
:100860000CEA135518BF95EA0C0F0CD050EA41065C
:1008700018BF52EA4306D1D181EA030101F00041D9
:100880004FF0000070BD50EA410606BF1046194601
:1008900052EA430619D094EA0C0F02D150EA01360D
:1008A00013D195EA0C0F05D152EA03361CBF10464E
:1008B00019460AD181EA030101F0004141F0FE41ED
:1008C00041F470014FF0000070BD41F0FE4141F471
:1008D000780170BD70B54FF0FF0C4CF4E06C1CEA71
:1008E00011541DBF1CEA135594EA0C0F95EA0C0F26
:1008F00000F0A7F8A4EB050481EA030E52EA0335E1
:100900004FEA013100F088804FEA03334FF0805501
:1009100045EA131343EA12634FEA022245EA11152E
:1009200045EA10654FEA00260EF000419D4208BFDF
:10093000964244F1FD0404F5407402D25B084FEA8C
:100940003202B61A65EB03055B084FEA32024FF438
:1009500080104FF4002CB6EB020E75EB030E22BF95
:10096000B61A754640EA0C005B084FEA3202B6EB55
:10097000020E75EB030E22BFB61A754640EA5C0004
:100980005B084FEA3202B6EB020E75EB030E22BF94
:10099000B61A754640EA9C005B084FEA3202B6EB95
:1009A000020E75EB030E22BFB61A754640EADC0054
:1009B00055EA060E18D04FEA051545EA16754FEAB6
:1009C00006164FEAC30343EA52734FEAC2025FEAD4
:1009D0001C1CC0D111F4801F0BD141EA00014FF063
:1009E00000004FF0004CB6E711F4801F04BF014334
:1009F0000020B4F1FD0C88BFBCF5E06F3FF6AFAE50
:100A0000B5EB030C04BFB6EB020C5FEA500C50F1DF
:100A1000000041EB045170BD0EF0004E4EEA113162
:100A200014EB5C04C2BFD4EB0C0541EA045170BD69
:100A300041F480114FF0000E013C90E645EA060EAD
:100A40008DE60CEA135594EA0C0F08BF95EA0C0FDB
:100A50003FF43BAF94EA0C0F0AD150EA01347FF423
:100A600034AF95EA0C0F7FF425AF104619462CE7FA
:100A700095EA0C0F06D152EA03353FF4FDAE10465D
:100A8000194622E750EA410618BF52EA43067FF4AE
:100A9000C5AE50EA41047FF40DAF52EA43057FF43E
:100AA000EBAE12E7000000000000000000000000B4
:100AB0004FF0FF3C06E000BF4FF0010C02E000BF2A
:100AC0004FF0010C4DF804CD4FEA410C7FEA6C5C0D
:100AD0004FEA430C18BF7FEA6C5C1BD001B050EAB0
:100AE000410C0CBF52EA430C91EA030F02BF90EA9B
:100AF000020F0020704710F1000F91EA030F58BF5A
:100B0000994208BF90422CBFD8176FEAE37040F0BB
:100B1000010070474FEA410C7FEA6C5C02D150EA59
:100B2000013C07D14FEA430C7FEA6C5CD6D152EA14
:100B3000033CD3D05DF8040B704700BF84461046D9
:100B400062468C461946634600E000BF01B5FFF7D8
:100B5000B7FF002848BF10F1000F01BD4DF808EDA8
:100B6000FFF7F4FF0CBF012000205DF808FB00BF79
:100B70004DF808EDFFF7EAFF34BF012000205DF8D3
:100B800008FB00BF4DF808EDFFF7E0FF94BF012020
:100B900000205DF808FB00BF4DF808EDFFF7CEFF21
:100BA00094BF012000205DF808FB00BF4DF808ED60
:100BB000FFF7C4FF34BF012000205DF808FB00BF31
:100BC0004FEA410212F5001215D211D56FF4787375
:100BD000B3EB625212D94FEAC12343F0004343EA18
:100BE000505311F0004F23FA02F018BF40427047F3
:100BF0004FF00000704750EA013005D111F000407D
:100C000008BF6FF0004070474FF00000704700BF12
:100C100053B94AB9002908BF00281CBF4FF0FF3163
:100C20004FF0FF3000F074B9ADF1080C6DE904CE5F
:100C300000F006F8DDF804E0DDE9022304B07047B7
:100C40002DE9F047089E04468846002B4BD18A4286
:100C5000154667D9B2FA82F24AB1C2F1200701FA09
:100C600002F320FA07F7954047EA030894404FEA59
:100C7000154E230CB8FBFEF71FFA85FC0EFB1788F8
:100C800043EA084307FB0CF1994209D9EB1807F135
:100C9000FF3080F01B81994240F21881023F2B44C3
:100CA0005B1AA4B2B3FBFEF00EFB103344EA03441C
:100CB00000FB0CFCA44509D92C1900F1FF3380F08E
:100CC0000781A44540F2048102382C4440EA0740E1
:100CD000A4EB0C0400271EB1D4400023C6E9004356
:100CE0003946BDE8F0878B4209D9002E00F0EB8031
:100CF0000027C6E9000138463946BDE8F087B3FA57
:100D000083F7002F47D18B4202D3824200F2FA8050
:100D1000841A61EB030301209846002EE0D0C6E957
:100D20000048DDE702B9FFDEB2FA82F2002A40F0A5
:100D30008F80491B4FEA154E1FFA85F80127B1FB3A
:100D4000FEFC230C0EFB1C1143EA014308FB0CF1D3
:100D5000994207D9EB180CF1FF3002D2994200F208
:100D6000CD808446591AA3B2B1FBFEF00EFB1014DD
:100D700043EA044408FB00F8A04507D92C1900F108
:100D8000FF3302D2A04500F2B6801846A4EB080457
:100D900040EA0C409FE7C7F1200CBB4022FA0CFE52
:100DA0004EEA030E01FA07F420FA0CF521FA0CF3CF
:100DB0004FEA1E482543B3FBF8F92C0C08FB193306
:100DC0001FFA8EFA44EA034309FB0AF49C4202FA32
:100DD00007F200FA07F10BD91EEB030309F1FF300C
:100DE00080F087809C4240F28480A9F1020973441C
:100DF0001B1BADB2B3FBF8F008FB103345EA03440C
:100E000000FB0AFAA24508D91EEB040400F1FF33E7
:100E10006BD2A24569D90238744440EA0940A0FB6C
:100E20000289A4EB0A044C45C2464B4654D351D028
:100E3000002E69D0B1EB0A0564EB030404FA0CFC44
:100E4000FD40FC404CEA0505C6E90054002747E791
:100E5000C2F1200320FA03F7954001FA02F021FACB
:100E600003F34FEA154E3843010CB3FBFEF71FFAAC
:100E700085F80EFB173341EA034107FB08F38B4269
:100E800004FA02F407D9691807F1FF3C2FD28B420C
:100E90002DD9023F2944CB1A81B2B3FBFEF00EFBE1
:100EA000103341EA034100FB08F38B4207D969186C
:100EB00000F1FF3C17D28B4215D902382944C91AD8
:100EC00040EA07473BE73746304609E70746E7E68B
:100ED0001846FBE64145ABD2B8EB020A69EB0E02BD
:100EE00001381346A4E76046E9E7184695E76746E8
:100EF000D1E781467CE702382C4447E7ACF1020C8D
:100F00002B442FE7384608E73746E9E600000000A3
:100F1000704700BF0000000000000000000000005B
:100F2000844641EA000313F003036DD1403A41D3F4
:100F300051F8043B40F8043B51F8043B40F8043BB3
:100F400051F8043B40F8043B51F8043B40F8043BA3
:100F500051F8043B40F8043B51F8043B40F8043B93
:100F600051F8043B40F8043B51F8043B40F8043B83
:100F700051F8043B40F8043B51F8043B40F8043B73
:100F800051F8043B40F8043B51F8043B40F8043B63
:100F900051F8043B40F8043B51F8043B40F8043B53
:100FA00051F8043B40F8043B51F8043B40F8043B43
:100FB000403ABDD2303211D351F8043B40F8043BE3
:100FC00051F8043B40F8043B51F8043B40F8043B23
:100FD00051F8043B40F8043B103AEDD20C3205D3F3
:100FE00051F8043B40F8043B043AF9D2043208D0EB
:100FF000D2071CBF11F8013B00F8013B01D30B885D
:1010000003806046704700BF082A13D38B078DD03A
:1010100010F003038AD0C3F10403D21ADB071CBF0C
:1010200011F8013B00F8013B80D331F8023B20F876
:10103000023B7BE7043AD9D3013A11F8013B00F8AF
:10104000013BF9D20B7803704B7843708B78837037
:101050006046704700000000000000000000000033
:1010600090F800F06DE9024520F007016FF0000CE8
:1010700010F0070491F820F040F049804FF0000490
:101080006FF00700D1E9002391F840F000F108006B
:1010900082FA4CF2A4FA8CF283FA4CF3A2FA8CF3A3
:1010A0004BBBD1E9022382FA4CF200F10800A4FA0A
:1010B0008CF283FA4CF3A2FA8CF3E3B9D1E904235E
:1010C00082FA4CF200F10800A4FA8CF283FA4CF395
:1010D000A2FA8CF37BB9D1E9062301F1200182FA4F
:1010E0004CF200F10800A4FA8CF283FA4CF3A2FA55
:1010F0008CF3002BC6D0002A04BF04301A4612BA63
:10110000B2FA82F2FDE8024500EBD2007047D1E965
:10111000002304F00305C4F100004FEAC50514F0F4
:10112000040F91F840F00CFA05F562EA05021CBFC5
:1011300063EA050362464FF00004A9E700000000DF
:1011400001F0FF01102A2BDB10F0070F08D010F878
:10115000013B013A8B422DD010F0070F42B3F6D17C
:10116000F0B441EA012141EA014122F007047FF095
:1011700000070023F0E80256083C85EA010586EAEC
:10118000010685FA47F5A3FA87F586FA47F6A5FA28
:1011900087F68EB9EED1F0BC01F0FF0102F0070234
:1011A00032B110F8013B013A83EA010313B1F8D1DF
:1011B0000020704701387047002D06BF35460338C0
:1011C000073815F0010F07D1013015F4807F02BFF9
:1011D000013015F4C03F0130F0BC0138704700BF4A
:1011E0004FEA410C7FEA6C5C02D150EA013C0AD123
:1011F0004FEA430C7FEA6C5C02D152EA033C02D115
:101200004FF0000070474FF00100704700000000F1
:1012100000B5174C174A2378126883B00192C3B106
:1012200000F09EFB002000F053FB002000F070FB5C
:1012300000F0CEFC012803D108E0022000F068FB9A
:1012400000F0C6FC0028F8D0FFF7E2FF00F060F8DD
:10125000F6E703F035FA01F05BFA00F0F9FB00F075
:1012600077FE0549054804F08BFA01232370D7E780
:10127000E41100200008002004080020A42600201B
:1012800000B5084B83B01A680192019A1B689A4214
:1012900005D1054803B05DF804EB01F0A1BAFFF7F2
:1012A000EFFF00BF00080020C0D0000800000000D1
:1012B00030B5124C124DA369124893F821202968C9
:1012C000986183B0520701910CD40221084600F0C6
:1012D000A7FA4FF4FA7002F08BF8A36993F8213063
:1012E0005B07F2D5019A2B689A4205D1064803B0F4
:1012F000BDE8304002F03CB9FFF7C2FF8018002083
:1013000000080020E0D000082CD1000800000000F8
:101310002DE9F04FDFF878B1584DDBF80030DFF8F9
:1013200074A191B000210E46242206A80F9308F064
:10133000BFFC0096524B534840224FF4FC7101F021
:10134000C7FF0DF13C09059004E04146384602F024
:101350008FF80136F4B2AAFB0430800800EB40009D
:10136000A4EB4000C0B206AB00EB400003EB400032
:1013700000F01EFE202383F3118802F041FB01F0F0
:10138000CFFAAF6A01F0ECFA02F052FB2B68AB42E5
:1013900007D0AA699B6892689A4202D23A4801F043
:1013A0001FFA002080F31188E30707F1FA08CCD573
:1013B00006A9B1F802C00B888A8863441844B1F8C2
:1013C00006C00B891044A0EB0C004A89C01A0C31EE
:1013D000801A894500B2ECD1FFF7E4F821F0004310
:1013E00003930290DDE902010022284BFFF7C0FBC6
:1013F0000028AAD00C2CA8D94146384602F038F86B
:10140000059801F0BDFF0121022000F009FA4FF418
:10141000FA7001F0EDFF0121032000F001FA012133
:10142000084600F0FDF94FF4FA7001F0E1FF0121E8
:10143000002000F0F5F94FF4FA7001F0D9FF00F048
:10144000D7FD00F005FE00F08BFA06E0022000F068
:101450003FFA4FF4FA7001F0CBFF00F0B9FB01281E
:10146000F4D0FFF7D5FE0F9ADBF800309A4202D194
:1014700011B0BDE8F08FFFF703FF00BF8018002018
:10148000B1120008E8110020F0D000080000594017
:1014900000080020ABAAAAAA00000000000000007B
:1014A00030B50F4D82682B680E4983B001931368E5
:1014B00023F0010313608C6A03E08B6A1B1BC72BAC
:1014C00009D8106810F00100F7D1019A2B689A42F0
:1014D00004D103B030BD4FF0FF30F6E7FFF7D0FE88
:1014E000000800208018002000000000000000001C
:1014F000F0B5284D83B02B68019302F049FA01F052
:101500008FFA254B1E69F20715D5244C5A692778A6
:10151000B91F42F0010201295A612AD963681B6888
:10152000052222700BB120469847042F27D0022FA6
:1015300025D003232370B30710D5174A174C5369DE
:10154000217843F00203032953611DD063689B682F
:101550000622227013B101211048984701F088FA41
:10156000019A2B689A4213D103B0BDE8F04003F012
:1015700067B8019A2B689A420AD103B0F0BD0223E2
:101580002370B307EAD5D8E72046FFF789FFDDE7E8
:10159000FFF776FE0008002000000550E013002051
:1015A00070B5164E16483368154D82B005224FF4BB
:1015B0008071019306F0C4FC20246B6983F480736E
:1015C0006B61012001F014FF631E13F0FF04F4D1DE
:1015D0004FF4807140F206222983094806F0B0FCDE
:1015E000019A33689A4206D10649074802B0BDE81D
:1015F000704003F085BAFFF743FE00BF00080020EB
:101600000004024000D10008002300200000000078
:1016100000B50C4A0C4B1278196883B0012A01916D
:10162000019A1B6804D09A4209D103B05DF804FB0B
:101630009A4204D103B05DF804EBFFF7B1BFFFF7A6
:101640001FFE00BF00230020000800200000000053
:101650002DE9F041224C234E88B0002335688DF8E7
:101660001830804620468DF814101746079503F071
:101670005FFB2378012B0CD00420012306AACDE9BF
:1016800001300092414605AA204603F0E1FA0546E2
:1016900068B9134803F06CFB9DF818303B700020CC
:1016A000079A33689A4218D108B0BDE8F081204605
:1016B00003F0B6FA23780C4A052B106004D00848D2
:1016C00003F056FB68B2EBE7204603F061FA23789B
:1016D000012BF4D1FFF764FFF1E7FFF7D1FD00BF65
:1016E0000023002000080020F81300200000000064
:1016F000F0B5214C214E89B0336807930746002589
:1017000020468DF818108DF819208DF8145003F02C
:101710000FFB2378012B0CD0042205AB019502921C
:1017200000933946022306AA204603F091FA0546A3
:1017300048B9114803F01CFB0020079A33689A420D
:1017400017D109B0F0BD204603F06AFA23780C4A9D
:10175000052B106004D0084803F00AFB68B2ECE7E0
:10176000204603F015FA2378012BF4D1FFF718FF78
:10177000F1E7FFF785FD00BF0023002000080020EF
:10178000F81300200000000000000000000000002E
:101790002DE9F0431F4C204E89B035688DF81710A5
:1017A0000746204690469946079503F0C1FA2178EE
:1017B00001290CD004230293CDE900893946012385
:1017C0000DF11702204603F043FA054650B91148BF
:1017D00003F0CEFA0020079A33689A4218D109B074
:1017E000BDE8F083204603F01BFA23780B4A052B53
:1017F000106004D0074803F0BBFA68B2EBE720465C
:1018000003F0C6F92378012BF4D1FFF7C9FEF1E705
:10181000FFF736FD0023002000080020F813002009
:1018200070B5294D82B02B6801930E46032841D82C
:10183000DFE800F01A120A02012922D9234A53696B
:1018400083F40063536116E0012926D91F4A5369C6
:1018500083F4806353610EE0012918D91B4A536950
:1018600083F04003536106E001291CD9174A5369EC
:1018700083F020035361019A2B689A4218D102B079
:1018800070BD124B4FF4006229B15A83F3E70F4B3E
:1018900040220029F9D11A83EDE70C4B4FF4806206
:1018A0000029F8D0F1E7094B20220029F3D0ECE71A
:1018B000FFF7E6FC0024E0B231460134FFF7B0FF49
:1018C000042CF8D1D7E700BF00080020000C02402C
:1018D00000B50D4B83B01A68019201280BD90B4952
:1018E0004A6982F004024A61019A1B689A4209D14E
:1018F00003B05DF804FB054A042108B95183F3E7FE
:101900001183F1E7FFF7BCFC00080020000402404F
:1019100000B50E4B83B01A68019201280BD90C490F
:101920004A6982F480424A61019A1B689A420AD14C
:1019300003B05DF804FB064A4FF4804108B95183B7
:10194000F2E71183F0E7FFF79BFC00BF00080020DF
:10195000000C024000000000000000000000000039
:10196000F0B50D4F0D4C3B6883B0002501932E461A
:10197000E8B200210135FFF753FF042D2670667091
:10198000A67004F10304F3D1019A3B689A4201D195
:1019900003B0F0BDFFF774FC00080020FC1300202A
:1019A0002DE9F043254E83B034680194042A9DF854
:1019B0002890144605460F46984639D9B9F1000FCC
:1019C00014BF00224FF08052640002EB0863013C18
:1019D0001C4405F00F0527F01F07202383F311880F
:1019E00002F00EF83D4300F09BFF154B1035DD6013
:1019F0001C6100F0B5FF02F01BF8124B1A689A4206
:101A000004D0996993688A689A420DD3002383F3BE
:101A10001188BFF36F8FBFF34F8F019A33689A42DB
:101A20000AD103B0BDE8F083074800F0D9FEEDE726
:101A3000064800F0D5FEC1E7FFF722FC00080020B1
:101A400090ED00E08018002090D1000870D10008CF
:101A500030B5224D224C2B68224A85B0039363682F
:101A600043F004036360536A43F4803353622023DA
:101A700083F3118801F0C4FF00F052FF17221A4BC4
:101A8000E260236100F06CFF01F0D2FF174B1A688F
:101A90009A4204D0996993688A689A4218D30020C0
:101AA00080F31188BFF36F8FBFF34F8F03231D2285
:101AB00000904FF00051FFF773FF094A536843F05D
:101AC00001035360039A2B689A4205D105B030BDDB
:101AD000074800F085FEE2E7FFF7D2FB0008002090
:101AE00090ED00E000ED00E00900001080180020FB
:101AF00090D100080000000000000000000000007D
:101B000070B51A4D1A4C1B4E0FCD0FC49EB02A68EB
:101B1000336822801D93EFF30981682203A8FFF741
:101B2000FFF9154B9D6AAA0714D4EB0708D5124B91
:101B300008995B6B114A00910D48802108F008F963
:101B40001D9A33689A420FD109481EB0BDE8704013
:101B500000F046BE099A5B6B0092A4F11000084A9F
:101B6000802108F0F5F8E0E7FFF78AFB54D1000880
:101B7000081400200008002000ED00E030D100082B
:101B800010D100080000000000000000000000006C
:101B90000A490B4B09680B4A82B020200191402171
:101BA00058834FF4806559834FF400644FF48040AC
:101BB00004215D835C8358835183FEE70008002085
:101BC000000C024000040240000000000000000081
:101BD00030B5104C104B2268104983B0019218693F
:101BE0001A6909691B69019D2468C2F3C032C1F3F7
:101BF000001102EB4102C3F38033C0F3403003EB2A
:101C00004203A54200EB430001D103B030BDFFF712
:101C100037FB00BF0008002000080240000C024013
:101C20002DE9F04F7D4C7E4AA3697E489A617E4A39
:101C3000AFB0012312682D920CA91A4602F040F9A8
:101C400011AD0AAB50222946009216A81A46CDE9DA
:101C50001155CDE90A330025744B1595CDE913557F
:101C600000F096FC16A9724A724800F0B1FCA36914
:101C700093F8216016F0040640F083806B4FDFF884
:101C8000E0B1DFF8E091DFF8E08107F13403B2461C
:101C9000CDE9076609933FE05022644916A800F099
:101CA000C7FC99F80030B3B1634A1378002B70D0A9
:101CB000012B10D1614B07981B78614A03F1140185
:101CC000127837F911C008990130C0B261448242DC
:101CD0000790089171D098F80030A3B1594A137851
:101CE000002B60D0012B0ED1574B584A1B7812782D
:101CF00007EB43010AF1010AB1F92E105FFA8AFAE3
:101D000052450E4472D0291D284601F0B1FBA3694B
:101D100093F821305B0734D4202383F3118801F03A
:101D20006FFE00F0FDFDA56A00F01AFE01F080FED6
:101D30002368A34207D0A2699B6892689A4202D2A4
:101D4000434800F04DFD002383F311889BF80030D9
:101D5000002BA1D03F48099900F11203A0F1120213
:101D60000493A0F10C03CDE90201CDE90032A0F10A
:101D70003A01A0F11E03A0F122022E3800F040FA31
:101D80008AE7294B2D9A1B689A4245D12FB0BDE8AE
:101D9000F08F2A4908930978079307EB4101012046
:101DA0008B86107097E72849097807EB41010120DD
:101DB0001E464B879A461070A5E70A4692FBF0F242
:101DC000254890F800E003F1200112B24FF0000C1A
:101DD000BEF1010F27F8112089F800C07FF47BAF16
:101DE00007EB430380F800C09A8674E71B4896FB14
:101DF000FAF290F800E007EB430112B24FF0000C4A
:101E0000BEF1010FA1F8462088F800C07FF47BAF37
:101E100080F800C04A8776E7FFF732FA8018002082
:101E2000A0D10008F413002000080020181800209A
:101E3000C0D10008D8110020891400208A14002085
:101E40008C1400208E1400208F1400209114002088
:101E5000B0D10008521800208B14002090140020EC
:101E600098140020881400208D1400200000000029
:101E700070B5124B124E1B78326882B00446019244
:101E80007BB11048104A114D114B047000201070A6
:101E900001222A701970142001F0AAFA2B78002B65
:101EA000F9D1019A33680B4920349A4231F9140070
:101EB00001D102B070BDFFF7E3F900BF9814002014
:101EC000000800208A1400208914002088140020B3
:101ED0008C140020181800200000000000000000F2
:101EE00070B5124B124D1B782A6882B006460192DB
:101EF0007BB11048104A114C114B06700020107035
:101F0000012222701970142001F072FA2378002B3C
:101F1000F9D10C48019A2B6800EB46009A42B0F9BF
:101F2000460001D102B070BDFFF7AAF99814002055
:101F3000000800208F1400208E1400208D14002033
:101F4000911400201818002000000000000000007C
:101F500030B5124D124C2B78226885B003922BB10C
:101F6000039A23689A4216D105B030BDFFF750FBA3
:101F70004FF4C84000F09CF808B901232B700023EF
:101F800000930848084B40224FF45E7101F0A0F91D
:101F9000064B1860E4E7FFF773F900BF98140020C0
:101FA00000080020A0140020211C00089414002028
:101FB00010B50B4B0B4AB3F928401168048082B06E
:101FC000B3F92A400191019912684480B3F92C3089
:101FD0008380914201D102B010BDFFF751F900BFDB
:101FE0001818002000080020000000000000000079
:101FF00070B5114B114C1B78226882B0019293B1DD
:102000000F4D0126322100202E70FFF731FF3221C3
:1020100030462E70FFF72CFF322102202E70FFF782
:1020200027FF00232B70019A23689A4201D102B046
:1020300070BDFFF725F900BF9814002000080020AC
:102040008B140020000000000000000000000000D1
:1020500070B5114B114C1B78226882B0019293B17C
:102060000F4D0126322100202E70FFF739FF32215B
:1020700030462E70FFF734FF322102202E70FFF71A
:102080002FFF00232B70019A23689A4201D102B0DE
:1020900070BDFFF7F5F800BF98140020000800207D
:1020A000901400200000000000000000000000006C
:1020B000F0B5504D504C2B6883B007460193207803
:1020C000002380226B218DF80330FFF711FB58B1FC
:1020D0002378682B0CBF6920682080226B21207038
:1020E000FFF706FB00287CD1012001F081F968266A
:1020F00002E0012001F07CF90DF103026B21207850
:10210000FFF7A6FA78B12378682B0CBF6920682006
:102110000DF103024FF06B010CBF20702670FFF72A
:1021200097FA00285DD19DF90330002BE1DB7E009A
:1021300006F0180632461B212078FFF7D9FA58B16D
:102140002378682B0CBF6920682032461B21207041
:10215000FFF7CEFA002844D1FE00012006F0180651
:1021600001F046F932461C212078FFF7C1FA50B140
:102170002378682B0CBF6920682032461C21207010
:10218000FFF7B6FA68BB0120C7F3072701F030F963
:102190003A4619212078FFF7ABFA50B12378682B23
:1021A0000CBF692068203A4619212070FFF7A0FA79
:1021B000B8B9012001F01CF9012238212078FFF77D
:1021C00097FA50B12378682B0CBF69206820012250
:1021D00038212070FFF78CFA18B9012001F008F9B6
:1021E0000020019A2B689A4201D103B0F0BDFFF79D
:1021F00047F800BF00080020100800200000000081
:102200002DE9F04F834FDFF82C823C6887B00546FC
:1022100005941C46109B0193DDE913930E4603922F
:10222000029398F800007C4A16233A21DDE911ABAD
:10223000FFF7AEFA78B198F80030774A682B0CBFF8
:102240006920682016233A2188F80000FFF7A0FAD9
:10225000002840F0D480029B1BB16F4B029A1B7880
:102260001370002E4CD06C489FED6C5A90F90130E1
:102270008178DFED6B5A9FED6B6A41EA0321494299
:1022800009B2AAF80010027990F9033042EA032259
:10229000524212B2AAF8022090F905C0837943EAAB
:1022A0000C235B421BB2AAF80430B9F904E0B9F977
:1022B00000C0B9F90200A3EB0E0307EE903AA1EBC0
:1022C0000C0306EE903A131AF8EEE77A07EE103A8E
:1022D00077EEC57AF8EEE66AB8EEC77A67EEA57AC9
:1022E00066EEA56A27EE257A67EE867A66EE866A3E
:1022F00027EE067AC6ED027AC6ED006A86ED017A0F
:102300000398A8B1444A9FED486A92F90710137ADE
:1023100043EA012307EE903AF8EEE77AF3EE056A16
:1023200077EEE67A87EE867A77EE267AC0ED007A47
:10233000002D38D03848019E90F90930817A9FED00
:102340003B6A41EA0321318090F90B30027B42EA7B
:102350000322728090F90D60837B43EA0623019E7D
:10236000B380BBF90460BBF900C0BBF902009B1B42
:1023700007EE903AA1EB0C01131A06EE901A07EE45
:10238000103AF8EEE66AB8EEC77AF8EEE77A66EE4B
:10239000866A27EE067A67EE867AC5ED006A85EDD5
:1023A000017AC5ED027A8CB31B4ADFED216A92F9FE
:1023B0001010D37B43EA012307EE103AB8EEC77A38
:1023C000002027EE267A84ED007A92F91210537CD1
:1023D00043EA012307EE103AB8EEC77A27EE267AD1
:1023E00084ED017A92F91410D37C43EA012307EEBD
:1023F000903AF8EEE77A67EEA67AC4ED027A059A8B
:102400003B689A4204D107B0BDE8F08F2046F6E75A
:10241000FEF736FF00080020681800200000804604
:102420000AE81C41000080385CEFA64358A00B3935
:102430000000163E10080020000000000000000010
:1024400000B5084B83B01A680192019A1B689A4242
:1024500005D1054803B05DF804EB01F011BCFEF7AF
:102460000FFF00BF0008002014080020000000003B
:1024700000B5084B83B01A680192019A1B689A4212
:1024800005D1054803B05DF804EB01F031BCFEF75F
:10249000F7FE00BF00080020140800200000000024
:1024A00070B50D4C82B0236801930D1E06460DDDFC
:1024B000284602F03DF818B90C2333604FF0FF3086
:1024C000019A23689A4205D102B070BD034800F01A
:1024D00087F9EDE7FEF7D4FE00080020D0D1000810
:1024E00000B5064B83B01A680192019A1B689A42A4
:1024F00002D103B05DF804FBFEF7C2FE0008002025
:1025000000B5074B83B01A680192019A1B689A4282
:1025100004D103B05DF804EB01F0B2BBFEF7B0FEEE
:102520000008002000000000000000000000000083
:1025300000B5074B83B01A680192019A1B689A4252
:1025400004D103B05DF804EB01F0D2BBFEF798FEB6
:102550000008002000000000000000000000000053
:1025600000B5074B83B01A680192019A1B689A4222
:1025700004D103B05DF804EB01F06ABCFEF780FE05
:102580000008002000000000000000000000000023
:102590002DE9F0430D4D83B02C6801940F4604469D
:1025A000164600214C221030DDF82880994607F0AD
:1025B0007FFB01992A689142C4E90098C4E9027638
:1025C00002D103B0BDE8F083FEF75AFE00080020F8
:1025D000F0B5144E83B001F1100317463268019232
:1025E0000446412218460D46002107F061FB39469A
:1025F000402207F0F5FB6068FFF782FF236803B114
:10260000AB652560A068FFF7ABFF019A33689A427B
:1026100005D1606803B0BDE8F040FFF789BFFEF761
:102620002FFE00BF00080020000000000000000096
:10263000F0B543681B4E83B0054693423068019065
:1026400006D20020019A33689A4228D103B0F0BD27
:1026500014460F46A868FFF753FF224639462868FC
:10266000FEF75EFC012385F85130E868FFF778FF3C
:102670006C6D7CB123681868FFF742FF23685868C7
:102680009D60FFF76DFF23681868FFF751FF6468CE
:10269000002CEFD1A868FFF74BFF0120D2E7FEF72F
:1026A000EFFD00BF00080020000000000000000057
:1026B00000B5064B83B01A680192019A1B689A42D2
:1026C00002D103B05DF804FBFEF7DAFD000800203C
:1026D000024B82B01B680193FEE700BF0008002098
:1026E00000B5044B04481B6883B0019300F078F8F0
:1026F000FEE700BF00080020E0D100080000000055
:10270000024B82B01B680193FEE700BF0008002067
:10271000F0B5294E294B3268294885B00024039230
:102720009C60D968274A4FF6FF0529400A43DA60C2
:10273000C2682549254D42F08072C2600A6842F0A5
:1027400001020A6010202022D87783F8222000F0AE
:10275000D7FA00F045FA01F0A3F801F0C1FE01F04C
:102760002FFF01F0F5F800F0FBF9402105F5886036
:1027700000F01EFD0127164BC36180F82070A86190
:1027800000F0A6F884F3118862B6AB69114A9A6129
:102790004FF4C4713A46104B009405F59D6000F06B
:1027A00097FD039A33680D4981619A4201D105B0C2
:1027B000F0BDFEF765FD00BF0008002000ED00E061
:1027C000F0ED00E00003FA05001000E080180020A2
:1027D0000004002080D300080127000800D2000870
:1027E00000B5054B83B01B680193044672B6FFF732
:1027F000CFF9024BDC62FEE70008002080180020C1
:102800002DE9F047DFF88C90204DD9F8003082B0E8
:10281000019300F055F9AB6993F8232012B1013A06
:1028200083F823205A6A1A4F01325A6200F048F99D
:10283000AB6AEC690133BC42AB621DD0A668013EB5
:10284000A660CEB94FF020082368D4F80CA0E6604B
:102850005F60EB6100F0C4F801F01AF986F31188AB
:102860002069D04788F3118801F0FAF800F098F851
:10287000EC69A368002BE7D0019AD9F800309A429E
:1028800002D102B0BDE8F087FEF7FAFC8018002004
:102890009C1800200008002000000000000000003C
:1028A00010B5094C094A236882B0019351685368F6
:1028B0005B1A9842FBD8019A23689A4201D102B070
:1028C00010BDFEF7DDFC00BF00080020001000E096
:1028D00000B50E4A0E4B116B186883B0019009B910
:1028E000526B4AB1019A1B689A420CD1094803B055
:1028F0005DF804EBFFF774BF019A1B689A4202D19E
:1029000003B05DF804FBFEF7BBFC00BF801800209D
:102910000008002010D200080000000000000000A5
:1029200030B50B4C0B4D236B2A6883B001920BB969
:10293000636B13B10848FFF753FF019A2B6801211D
:102940009A42616301D103B030BDFEF799FC00BF2C
:10295000801800200008002040D20008000000007D
:1029600030B50C4C0C4D236B2A6883B0019253B9DF
:10297000636B002B07DD019A2B6800219A4261638B
:1029800005D103B030BD0548FFF72AFFF3E7FEF796
:1029900077FC00BF801800200008002060D20008EB
:1029A00030B50B4C0B4D236B2A6883B0002B019282
:1029B00001DD636B13B10848FFF712FF019A2B6822
:1029C00001219A42616301D103B030BDFEF758FC8A
:1029D000801800200008002050D2000800000000ED
:1029E00030B50C4C0C4D236B2A6883B0002B019240
:1029F0000ADD636B002B07DD019A2B6800219A42E8
:102A0000616305D103B030BD0448FFF7E9FEF3E789
:102A1000FEF736FC801800200008002070D2000865
:102A200030B50F4D83B02B680193202383F31188B9
:102A30000C4C236B002B01DB626B1AB10A48FFF7C9
:102A4000CFFE236B01332363002383F31188019AA4
:102A50002B689A4201D103B030BDFEF711FC00BFD4
:102A6000000800208018002020D20008000000008C
:102A700030B50F4D83B02B680193202383F3118869
:102A80000C4C236B002B01DD626B1AB10A48FFF777
:102A9000A7FE236B013B2363002383F31188019A74
:102AA0002B689A4201D103B030BDFEF7E9FB00BFAD
:102AB000000800208018002030D20008000000002C
:102AC00000B50F4A0F4B116B186883B000290190B5
:102AD00009DB526B002A06DD019A1B689A420CD171
:102AE00003B05DF804FB019A1B689A4205D10648C1
:102AF00003B05DF804EBFFF773BEFEF7C1FB00BF48
:102B0000801800200008002080D20008000000008B
:102B100000B50E4A0E4B116B186883B0019049B98D
:102B2000526B002A06DD019A1B689A420CD103B051
:102B30005DF804FB019A1B689A4205D1054803B071
:102B40005DF804EBFFF74CBEFEF79AFB80180020FF
:102B50000008002090D200080000000000000000E3
:102B600010B5084A084B116882B0402401910199C0
:102B7000126818199142C3E90E4001D102B010BD8C
:102B8000FEF77EFB000800208018002000000000F7
:102B900030B50F490F4A0B68956983B00193D36B29
:102BA000946A1C60846AC3E9015490F82000187389
:102BB000103302F58860834228BF02F14003D363DB
:102BC000019A0B689A4201D103B030BDFEF758FB61
:102BD0000008002080180020000000000000000015
:102BE00010B50B4A0B4B116882B04FF0FF340191C6
:102BF00000219962019811685C6203F11C0288420D
:102C0000C3E9072201D102B010BDFEF739FB00BFB6
:102C100000080020801800200000000000000000D4
:102C20002DE9F041194E82B00546306801900C46FE
:102C300017469846FFF744FF0DB307B3FCB114489D
:102C4000C5F81080C369EF609A68944204D91B6884
:102C5000A41A9A68A242FAD35A68C5E900321560EC
:102C60005D60AC609968019D3268091B95424FF028
:102C7000FF349960446206D102B0BDE8F081054896
:102C8000FFF7AEFDDBE7FEF7FBFA00BF0008002010
:102C900080180020A0D20008000000000000000002
:102CA00070B5144D82B004462B680193FFF708FFFE
:102CB000D4B1E368A3B12368A0689A68616802444C
:102CC0009A600B602668019A2B680B48716000259A
:102CD0004FF0FF319A42E560416209D102B070BD08
:102CE0000648FFF77DFDE6E70448FFF779FDE0E7DA
:102CF000FEF7C6FA0008002080180020B0D20008B5
:102D000000B50A4A0A4B11681B6083B0002001918C
:102D1000019912685B609142C3E90433986002D163
:102D200003B05DF804FBFEF7ABFA00BF000800201B
:102D300080180020000000000000000000000000DB
:102D400070B5164D82B004462B680193FFF7B8FEAC
:102D5000ECB194F82030B3B10F2B14D00022A1684D
:102D60000F4B84F820201B689A688A42FBD2019E90
:102D700029685A688E42C4E90032204614605C60BB
:102D800009D102B070BD0748FFF72AFDE6E7054804
:102D9000FFF726FDDDE7FEF773FA00BF000800200D
:102DA00080180020C0D200080000000000000000D1
:102DB00070B5204D82B02B6801930446202383F325
:102DC000118800F04DFEFFF7EBFD94F82030072B43
:102DD00010D8DFE803F0150F0F220A040F0AA66AC5
:102DE000FFF76EFEB3680133B360D4E900231A60C5
:102DF000226853604FF0FF33A3622046FFF7A0FF25
:102E0000FFF7EEFD00F044FE002383F31188019AE2
:102E10002B689A420BD102B070BDA36A00221A60DF
:102E20004FF0FF33A3622046FFF78AFFE8E7FEF783
:102E300027FA00BF0008002000000000000000008A
:102E4000F0B5194E194C336883B007460193FFF76C
:102E50005FFEA569236885F82070142285F8232079
:102E60001A68226001215460284683F82010A3616B
:102E7000FFF78EFE2946A06900F0A2FDEFF309835B
:102E8000EA69643B9A4202D90948FFF7A9FC019A12
:102E900033689A4206D1A069294603B0BDE8F040E4
:102EA000FDF706BAFEF7ECF90008002080180020B4
:102EB000D0D2000800000000000000000000000068
:102EC000F0B5154C87B0236805930E460746FFF70B
:102ED0001FFE731C18D0114D114AAB69314668466C
:102EE000FFF79EFE3846FFF7ABFFFFF7E9FD039BB8
:102EF00013B16846FFF7D4FE059A2368A9699A4280
:102F0000886A06D107B0F0BD3846FFF799FF034D38
:102F1000F2E7FEF7B5F900BF000800208018002096
:102F2000B12D0008000000000000000000000000BB
:102F3000F0B51E4D1E4E2B6883B0044601930F461C
:102F4000FFF7E6FDB069A2688368A7629A421DD9BF
:102F5000FFF7F6FE0123074684F82030B461FFF73F
:102F600017FE3946204600F02BFDEFF30983FA697E
:102F7000643B9A4214D8019A2B689A4214D139467C
:102F8000204603B0BDE8F040FDF792B9019A2B68E6
:102F90009A4209D1204603B0BDE8F040FFF7D0BE09
:102FA0000448FFF71DFCE6E7FEF76AF90008002079
:102FB00080180020D0D200080000000000000000AF
:102FC00010B50E490E4B8A69086892F823101C68E8
:102FD0008068926882B0019449B9904234BF002061
:102FE0000120019A1B689A4206D102B010BD90429E
:102FF00094BF00200120F4E7FEF742F9801800207A
:103000000008002000000000000000000000000098
:1030100070B5184C184E2368A5691A682260546070
:10302000012283F8202082B01422316885F8232001
:103030002846A3610191FFF783FE2846FFF7A8FD0C
:103040002946A06900F0BCFCEFF30983EA69643B00
:103050009A4202D90948FFF7C3FB019A33689A42A2
:1030600006D1A069294602B0BDE87040FDF720B93D
:10307000FEF706F98018002000080020D0D20008D2
:103080001D4BF0B51A689C6910681C4EA168186049
:1030900043601D4683B09A61012382F8203037686F
:1030A0000197002384F820302B461B689A689142D0
:1030B000FBD35A682046C4E9003214605C60FFF715
:1030C00067FD2146A86900F07BFCEFF30983E26904
:1030D000643B9A4202D90A48FFF782FB019A33689F
:1030E0009A4206D1A869214603B0BDE8F040FDF739
:1030F000DFB8FEF7C5F800BF8018002000080020E8
:10310000D0D2000800000000000000000000000015
:1031100010B50F4C82B023680193FFF7F9FCFFF75D
:10312000CFFC0C4B1A689B6992689B689A42019A83
:10313000236803D89A4208D102B010BD9A4204D144
:1031400002B0BDE81040FFF79BBFFEF799F800BF43
:10315000000800208018002000000000000000008F
:1031600000B50E4A0E4B9269196892F8232083B07D
:10317000019142B1019A1B689A420DD103B05DF8EA
:1031800004EBFFF77DBF019A1B689A4204D103B09C
:103190005DF804EBFFF73CBFFEF772F880180020E3
:1031A00000080020000000000000000000000000F7
:1031B000F0B51A4D1A4A2B68416483B00446019356
:1031C0000223576981600126238400234FF0140CE9
:1031D00004F1680184F82260C4E90F33A3616362DB
:1031E0002C3004F1300304F15006C4E9042784F8BC
:1031F00023C03C61C4E90C33E062E16130465461B4
:1032000000F0E6FA304600F003FB019A2B689A4280
:1032100002D1204603B0F0BDFEF732F800080020CE
:1032200080180020000000000000000000000000E6
:1032300010B5094B82B01C680194884203D200F893
:10324000012B8142FBD1019A1B689A4201D102B045
:1032500010BDFEF715F800BF0008002000000000B8
:103260002DE9F043174E83B0346801940546DDF82C
:1032700028900C4617469846FFF722FC15B1B4F586
:10328000BC7F17D21048FFF7ABFA019A33680F489A
:10329000A4F1640129449A42E960C1F84080C1F870
:1032A000449008660CD13946284603B0BDE8F04387
:1032B000FFF77EBF7F2FE5D8B8F1000FE5D1E1E73A
:1032C000FDF7DEFF0008002020D30008C902000837
:1032D0002DE9F04FDFF8A48087B0D8F80040DDF882
:1032E0004090059407468A46934600F168060446D6
:1032F000FF2504F8015BA642FBD107EB0A05A542B6
:1033000004D9552604F8016BA542FBD10393202272
:1033100082F3118800F074FBFFF702FB039BCDF8EA
:1033200000905A4651463846FFF79AFF002104465E
:10333000FFF7FEFDFFF714FB00F07AFB0D4B1A6858
:103340009A4204D0996993688A689A420BD3002301
:1033500083F31188059AD8F800309A42204606D1A6
:1033600007B0BDE8F08F0448FFF73AFAEFE7FDF742
:1033700087FF00BF80180020E0D20008000800206E
:1033800030B5174C83B0236801930546202383F39F
:10339000118800F035FBFFF7C3FA95F8213043F0B0
:1033A000040385F82130FFF7DBFA00F041FB0D4BF9
:1033B0001A689A4204D0996993688A689A4208D335
:1033C000002383F31188019A23689A4205D103B040
:1033D00030BD0548FFF704FAF2E7FDF751FF00BFE3
:1033E0000008002080180020E0D200080000000043
:1033F00030B5184C83B0236801930546202383F32E
:10340000118800F0FDFAFFF78BFA15B91248FFF7A3
:10341000E7F929460820FFF753FDFFF7A1FA00F06E
:1034200007FB0E4B1A689A4204D0996993688A6820
:103430009A4208D3002383F31188019A23689A42A1
:1034400005D103B030BD0648FFF7CAF9F2E7FDF732
:1034500017FF00BF00080020F0D2000880180020ED
:10346000E0D20008000000000000000000000000A2
:10347000F0B51C4F83B03B68019304460E462023F1
:1034800083F31188184D00F0BBFAFFF749FAA96AD7
:10349000331B0C1B9C4219D3FFF762FA00F0C8FAE9
:1034A0002B68AB4204D0AA699B6892689A4209D300
:1034B000002383F31188019A3B689A4230460FD16A
:1034C00003B0F0BD0948FFF78BF9F1E7741A02D198
:1034D0000748FFF785F921460820FFF7F1FCDBE7F5
:1034E000FDF7CEFE0008002080180020E0D2000882
:1034F000F0D2000800000000000000000000000002
:1035000070B5164B164E9C693268E36AA06282B0B1
:1035100004F12C05AB42019207D01A68E26218460A
:10352000FFF70EFCE36AAB42F7D194F821309B071A
:1035300004D1D4E904231A61226953610F20FFF7F3
:103540007FFC019A33689A4205D1064802B0BDE873
:103550007040FFF745B9FDF793FE00BF80180020CB
:103560000008002030D30008000000000000000028
:1035700030B50C4C83B0236801930546202383F3B8
:10358000118800F03DFAFFF7CBF9019A23689A42BF
:1035900005D1284603B0BDE83040FFF7B1BFFDF7C5
:1035A0006FFE00BF000800200000000000000000C7
:1035B000F0B50D4D0D4E03682A68B76983B0044617
:1035C000019213B10A48FFF70BF927600320BC6290
:1035D000FFF736FC019A2B68B1699A42886A01D1DB
:1035E00003B0F0BDFDF74CFE00080020801800205D
:1035F00040D30008000000000000000000000000B0
:10360000F0B5124D0368124A83B004462868019051
:103610000E46976913B10F48FFF7E2F866B12760CD
:10362000019A2B68BC629A420ED13146032003B046
:10363000BDE8F040FFF744BC019A2B689A424FF076
:10364000FF3001D103B0F0BDFDF71AFE00080020E5
:103650008018002050D30008000000000000000087
:10366000F0B5124D04682B6883B00193B4B194F89F
:103670002030032B06460F460CD100233360019AFD
:103680002B68A7629A420FD1204603B0BDE8F040F4
:10369000FFF756BB0648FFF7A3F8EEE7019A2B6841
:1036A0009A4201D103B0F0BDFDF7EAFD0008002009
:1036B00070D30008000000000000000000000000BF
:1036C00030B5104A83B01368019381B10E4B019D50
:1036D000126844689B699542C3E900042360436013
:1036E0000DD1042003B0BDE83040FFF7E9BB0199DC
:1036F000136899424FF0FF3001D103B030BDFDF7A0
:10370000BFFD00BF0008002080180020000000005E
:1037100070B5124D04682B6882B0A042019315D099
:1037200023680360586094F82030042B0E4602D0C2
:103730000B48FFF755F8019A2B68A6629A420BD105
:10374000204602B0BDE87040FFF7FABA019A2B6834
:103750009A4201D102B070BDFDF792FD0008002031
:1037600000D300080000000000000000000000007E
:103770002DE9F041DFF850800468D8F8003082B0BD
:10378000A042019313D00F4F05460E4623682B60CD
:103790005D6094F82030042B02D03846FFF720F803
:1037A000A6622046FFF7CCFA2C68A542EED1019A1A
:1037B000D8F800309A4202D102B0BDE8F081FDF79E
:1037C0005FFD00BF00D300080008002000000000DB
:1037D00030B50C4B83B01A68019201991A684FF00A
:1037E000FF3300240025036091424FF00003C0E93D
:1037F0000445C0E90133C36001D103B030BDFDF71A
:103800003FFD00BF00080020000000000000000095
:1038100000B5084B084A196883B001915168019AB4
:103820001B6881609A4202D103B05DF804FBFDF78A
:1038300027FD00BF00080020001000E0000000008D
:10384000F0B51449144B0A68846883B00192134A96
:103850005B68D2F8A864C2681B1BD0E9044501323A
:103860009B1BC26042688360E61845F100079342E3
:10387000C0E9046709D80268934238BF0360019A1F
:103880000B689A4203D103B0F0BD4360F7E7FDF740
:10389000F7FC00BF00080020001000E080180020A6
:1038A00030B5114D114C2B6889B04FF0FF310793A3
:1038B000002300226846C4F8A834CDE901330393FD
:1038C0000023CDE904230091FFF7A2FF6846FFF72C
:1038D000B7FF079A2B680299C4F8A8149A4201D13D
:1038E00009B030BDFDF7CCFC000800208018002096
:1038F0002DE97048134E144B326883B001925B6817
:103900008B60D0E902411B1BD0E90445426814EBEF
:10391000030B45F1000C01319342C0E90231C0E9CB
:1039200004BC0AD80268934238BF0360019A336826
:103930009A4204D103B0BDE870884360F6E7FDF712
:103940009FFC00BF00080020001000E00000000005
:1039500030B50D4D0D4C2B6883B004F59760019385
:103960000023C4F8B034C4F8B434FFF731FF019A2F
:103970002B689A4206D104F59A6003B0BDE8304046
:10398000FFF726BFFDF77CFC000800208018002010
:1039900000B50949094A0B6883B001930198D2F830
:1039A000B034096801338842C2F8B03402D103B0A0
:1039B0005DF804FBFDF764FC00080020801800207F
:1039C00070B50D4C0D4A236882B00193019DD2F869
:1039D000B43424680133A542C2F8B43409D10E4688
:1039E00000F1500106F1500002B0BDE87040FFF751
:1039F0007FBFFDF745FC00BF0008002080180020B5
:103A000000B5084B83B01A680192019A1B689A426C
:103A100005D1054803B05DF804EBFFF7F9BEFDF7EB
:103A20002FFC00BF00080020381D0020000000000F
:103A300000B5084B83B01A680192019A1B689A423C
:103A400005D1054803B05DF804EBFFF7F9BEFDF7BB
:103A500017FC00BF00080020381D002000000000F7
:103A600000B5084B83B01A680192019A1B689A420C
:103A700005D1054803B05DF804EBFFF7C9BEFDF7BB
:103A8000FFFB00BF00080020501D002000000000C8
:103A900000B5084B83B01A680192019A1B689A42DC
:103AA00005D1054803B05DF804EBFFF7C9BEFDF78B
:103AB000E7FB00BF00080020501D002000000000B0
:103AC00030B50B4D83B02B680193044650B101997A
:103AD0002A68246000239142C4E90143236105D18F
:103AE00003B030BD0348FEF77BFEF0E7FDF7C8FBEF
:103AF00000080020B0D30008000000000000000013
:103B0000F0B55B4E5B4B32689D6983B00446019211
:103B1000FEF7FEFF002C00F08380A06823690028D8
:103B200043D0002B40F39480854275D0AA68836807
:103B30009A4208D990F820308260062B40D0072B9B
:103B400072D0002B5DD02746234603E09968AA680F
:103B5000914233D31B689C42F8D17B680620C5E9AB
:103B600000731D607D60AC62FFF76AF9A368AB4229
:103B700002D04148FEF734FE2B6CA34202D03E48EF
:103B8000FEF72EFE2369012B05D1019A33689A4274
:103B90006CD103B0F0BD019A33689A4266D13648C1
:103BA00003B0BDE8F040FEF71BBE002B55D12A6CD8
:103BB000A5600133C4E903232C64E6E71F46CCE784
:103BC000D0E900131960876A0168BC464B603B4628
:103BD00002E09968914245D31B689F42F9D1DCF815
:103BE0000430AA68C0E900C31860CCF80400B868C3
:103BF00083689342A7D290F820308260062B9ED132
:103C0000DEE7D0E90023012180F820101A60026865
:103C10005360FFF795F896E7236901332361B4E712
:103C20001548FEF7DDFD78E7D0E900131960876AD3
:103C300001684B603B4602E09968914214D31B68CF
:103C40009F42F9D17B68C0E90073186078607AE719
:103C50000948FEF7C5FDA06866E70748FEF7C0FD06
:103C60002369A4E79C46BAE71F46EBE7FDF708FB8C
:103C70000008002080180020C0D3000800000000C9
:103C800030B5154C83B0236801930546202383F398
:103C90001188FFF7B5FEFEF743FE2846FFF730FF19
:103CA000FEF75EFEFFF7C4FE0C4B1A689A4204D082
:103CB000996993688A689A4208D3002383F311882C
:103CC000019A23689A4205D103B030BD0448FEF73B
:103CD00087FDF2E7FDF7D4FA0008002080180020E5
:103CE000A0D3000800000000000000000000000059
:103CF0002DE9F043DFF800813C4FD8F80030BE6971
:103D000083B005460193002864D0202383F31188F3
:103D1000FFF776FEFEF704FE336C002B5ED09B6847
:103D2000B34202D03248FEF75BFD2B69002B49DD20
:103D3000013B2B615BBB336CAB4202D02C48FEF7DE
:103D40004FFDEB683364FEF7E3FE2B689D423ED0E7
:103D5000D6E9104964B1FEF7DBFE23689C4203D02C
:103D60009B68994538BF9946E468002CF3D12B68CD
:103D7000196C1A68C6F80890012028612A60184654
:103D80005560C5E9023100211D64FFF7D1F8FEF747
:103D9000E7FDFFF74DFE3B68BB4204D0BA699B6864
:103DA00092689A420AD3002383F31188019AD8F8C3
:103DB00000309A4217D103B0BDE8F0830D48FEF7FA
:103DC0000FFDF0E70A48FEF70BFD2B69B0E7002373
:103DD000AB60DCE70648FEF703FD96E70448FEF714
:103DE000FFFC336C9BE7FDF74BFA00BF8018002007
:103DF000D0D30008A0D30008000800200000000075
:103E000070B5114E82B0044633680193FEF758FE38
:103E1000A4B12368A3420BD06FF001051A68226099
:103E200018465460FEF78CFF23688562A342F5D1E3
:103E3000019A33689A4205D102B070BD0348FEF77B
:103E4000CFFCE6E7FDF71CFA00080020F0D30008DD
:103E500030B5164C83B0236801930546202383F3C5
:103E60001188FFF7CDFDFEF75BFD2846FFF7C8FF81
:103E7000FFF74EF9FEF774FDFFF7DAFD0C4B1A68F9
:103E80009A4204D0996993688A689A4208D30023B9
:103E900083F31188019A23689A4205D103B030BD9B
:103EA0000448FEF79DFCF2E7FDF7EAF90008002060
:103EB00080180020E0D3000800000000000000008F
:103EC0002DE9F0431D4F83B03C68019491460C46A8
:103ED0009846064658B351B3202383F31188184DF2
:103EE000FFF78EFDFEF71CFD3368AA6923600023EF
:103EF0003460C4E90338C4E90129FEF731FDFFF756
:103F000097FD2B68AB4204D0AA699B6892689A42DD
:103F100009D3002383F31188019A3B689A420AD19E
:103F200003B0BDE8F0830748FEF75AFCF1E7064806
:103F3000FEF756FCD0E7FDF7A3F900BF000800200C
:103F40008018002010D4000820D4000800000000D1
:103F500070B5184E82B00446336801930D46FEF7E3
:103F6000AFFD0CB3E16B94F8203029430A2BE163D9
:103F700016D00B2B05D0019A33689A4218D102B0A3
:103F800070BDA36A8B43F6D1019A336800219A422F
:103F9000A1620DD1204602B0BDE87040FEF7D0BE50
:103FA000A36A1942F0D1E6E70348FEF719FCD9E706
:103FB000FDF766F90008002060D40008000000004A
:103FC000F0B5134F83B006463B6801930D46FEF7EC
:103FD00077FDB6B13468A6420DD0E3682B43E360A9
:103FE00015B12269134203D0D4E90101FFF7B0FFF4
:103FF0002468A642F1D1019A3B689A4205D103B0E8
:10400000F0BD0448FEF7ECFBE4E7FDF739F900BF2B
:104010000008002040D4000800000000000000005C
:1040200070B50C4CC16082B0266801960A44019EAE
:1040300002612268069D4060C0E9051196424FF07A
:104040000001C36181600562006001D102B070BDF2
:10405000FDF716F900080020000000000000000035
:1040600070B5164D82B004462B6801930E46FEF7DC
:1040700027FDFEF725FDD4E905239A42A36816D053
:104080000133511CA36061611670D4E904329A4275
:104090000AD220460021FFF73BFB0020019A2B6843
:1040A0009A4209D102B070BDE3686361F1E7002B69
:1040B000E6D06FF00300F1E7FDF7E2F8000800201A
:1040C000F0B5234F83B03B68019304460E4620238E
:1040D00083F31188FFF794FCFEF722FCE36943B1F8
:1040E0002046984705E031462046FFF7E9FA051ECD
:1040F00010DBFEF7E5FCA368002BF4D0A169206972
:104100004A1C013B8242A360A26128BFE3680D788C
:1041100028BFA361FEF724FCFFF78AFC0D4B1A6849
:104120009A4204D0996993688A689A4209D3002315
:1041300083F31188019A3B689A42284605D103B05F
:10414000F0BD0548FEF74CFBF1E7FDF799F800BF1D
:10415000000800208018002070D400080000000033
:104160002DE9F04FDFF8F490044685B0D9F800004F
:1041700003908A461D46D4F81C809346002A60D0DE
:10418000202383F311880193FFF73AFCFEF7C8FB65
:104190002F4E0027B8F1000F07D02046C04704E09B
:1041A00029462046FFF78CFA60BBFEF789FCA3681E
:1041B000002BF5D0A269013B511CA161A3601378CB
:1041C0000AF8013B2369A2699A4224BFE368A3610C
:1041D000FEF7C6FBFFF72CFC3368B34204D0B2698C
:1041E0009B6892689A4228D3002383F31188013791
:1041F000BB4519D0019B83F31188FFF701FCFEF743
:104200008FFBC7E7FEF7ACFBFFF712FC3368B34246
:1042100007D0B2699B6892689A4202D20D48FEF7B5
:10422000DFFA002383F31188039AD9F800309A4209
:1042300038460AD105B0BDE8F08F0648FEF7D0FA3F
:10424000D2E70548FEF7CCFA9AE7FDF719F800BF68
:104250008018002070D4000880D4000800080020D6
:1042600070B50B4D82B02E680196019E2D68069C9C
:104270000060C0E90102AE420A44C0E90312C0E98D
:104280000511C0E9073401D102B070BDFCF7F8FF99
:1042900000080020000000000000000000000000F6
:1042A0002DE9F0412E4F82B03B68019304468846C9
:1042B0001646202383F31188FFF7A2FBFEF730FB9D
:1042C00005E031462046FFF7FBF9051E2DDBFEF722
:1042D000F7FBA368002BF4D06269013B511C6161BC
:1042E000A36082F80080D4E904329A4224BFE368D4
:1042F0006361E3690BB120469847FEF731FBFFF796
:1043000097FB184B1A689A4204D0996993688A6897
:104310009A421ED3002585F31188019A3B689A4280
:1043200028461AD102B0BDE8F081FEF719FBFFF76D
:104330007FFB0C4B1A689A4207D0996993688A6888
:104340009A4202D20848FEF74BFA002383F3118801
:10435000E3E70548FEF744FADCE7FCF791FF00BF0E
:10436000000800208018002070D400080000000021
:1043700070B5154E82B0044633680193FEF7A0FB7A
:10438000FEF79EFBD4E905329342A36815D020695D
:10439000511C0133A360A161814215780AD22046E5
:1043A0000021FFF7B5F92846019A33689A4209D1EE
:1043B00002B070BDE368A361F1E7002BE7D06FF0B6
:1043C0000200F1E7FCF75CFF00080020000000009D
:1043D0002DE9F04F04463B48D4F81C90006885B0A6
:1043E0000D46039001931646002A61D04FF0200A33
:1043F0008AF31188FFF704FBFEF792FA4FF00008EA
:10440000314FC346FEF75CFBA368002B32D06269D4
:10441000013B511C6161A3602B781370D4E9043215
:104420009A4224BFE36863610135B9F1000F01D0FE
:104430002046C847FEF794FAFFF7FAFA3B68BB42FA
:1044400007D0BA699B6892689A4202D21F48FEF769
:10445000C7F98BF31188013E08F101081FD08AF3D8
:104460001188FFF7CDFAFEF75BFAFEF729FBA36888
:10447000002BCCD101992046FFF722F90028C1D0AA
:10448000FEF76EFAFFF7D4FA3B68BB4204D0BA6974
:104490009B6892689A420FD3002383F31188094BDB
:1044A000039A1B689A4240460AD105B0BDE8F08FD6
:1044B0000748FEF795F999E70448FEF791F9EBE70D
:1044C000FCF7DEFE000800208018002070D40008F1
:1044D00090D4000800000000000000000000000070
:1044E00030B50B490B4A0B680B4D0C4C83B022F0D6
:1044F0000702019301980A4B09682A6023F0070319
:104500008842236001D103B030BDFCF7B9FE00BF83
:104510000008002057270020F41E0020F01E002075
:104520000000022000000000000000000000000069
:1045300070B51C4E82B0336801930446202383F388
:104540001188FFF75DFAFEF7EBF9FEF7B9FA164AA4
:10455000164B15681B68E01D20F007005B1B984296
:104560009ABF401910600025FEF7FAF9FFF760FACC
:104570000F4B1A689A4204D0996993688A689A42E4
:1045800009D3002383F31188019A33689A4228469D
:1045900005D102B070BD0748FEF722F9F1E7FCF73C
:1045A0006FFE00BF00080020F41E0020F01E002057
:1045B00080180020B0D400080000000000000000B7
:1045C00000B50B4B0B481A6883B0019201991A6829
:1045D000094B036091424FF00003C0E9023305D15B
:1045E000103003B05DF804EBFFF76ABAFCF748FE41
:1045F00000080020F81E00203145000800000000DF
:1046000080B50D4A0D4982B000AF13687B604B68DE
:1046100023F001034B60EFF30983683383F30988C8
:10462000002383F3118879681368994202D108370F
:10463000BD4680BDFCF724FE0008002030EF00E0FE
:10464000B0B5194C82B000AF23687B60202383F3A0
:104650001188164B5B6813F4006308D183F311884B
:104660007A6823689A421DD10837BD46B0BDF1EE85
:10467000103AEFF309850E4B4FF08072DB6845F876
:10468000083C45F84C2CA5F1680383F30988FEF734
:1046900097FC18B1074B45F8503CE1E7064B45F84D
:1046A000503CDDE7FCF7ECFD0008002000ED00E0E9
:1046B00030EF00E0E1020008F40200080000000012
:1046C00010B5184C82B02368019302F051F81648D7
:1046D00003F04EFB00F0D4F800F00AF900F050F9B6
:1046E00000F07EF900F0ACF900F0DAF900F060FBC0
:1046F00000F08EFB00F0FCFF00F002FF01F0D0F8AC
:1047000001F016F901F0BCF805F002F8019A2368EF
:104710009A4204D102B0BDE8104001F0F1B8FCF7B4
:10472000AFFD00BF0008002090D900080000000085
:10473000F0B51A4D83B02B68019391420E46144692
:10474000074619D38B1A1F2B16D806F01F03581CC7
:104750006209012376098340B24203F1FF3304F07A
:104760001F0457F822000BD31840E040019A2B6831
:104770009A4210D103B0F0BD0948FEF731F8E4E7E2
:1047800057F82610C4F120020B4020FA04F403FA73
:1047900002F02043EAE7FCF773FD00BF00080020A9
:1047A000C0D400080000000000000000000000006D
:1047B000F0B51D4E83B033680193054670B37E2279
:1047C0007F212846FFF7B4FF80B1012806D00020E2
:1047D000019A33689A4225D103B0F0BD28463022B1
:1047E0004521FFF7A5FF01308002F1E73E22492174
:1047F0002846FFF79DFF2F22044631212846FFF768
:1048000097FF5022074653212846FFF791FF0134B6
:1048100002370938BC4004FA00F0D9E70348FDF735
:10482000DFFFCCE7FCF72CFD00080020E0D40008F7
:10483000F0B5104D83B02B680193044698B194F8FD
:10484000D63094F8D770019994F8D4602A6894F817
:10485000D5001B0403EB07633344914203EB0020B4
:1048600005D103B0F0BD0448FDF7BAFFE7E7FCF758
:1048700007FD00BF0008002000D500080000000070
:1048800000B5074B83B01A680192019A1B689A42DF
:1048900004D103B05DF804EB02F022B9FCF7F0FCA0
:1048A00000080020000000000000000000000000E0
:1048B00010B50C4B82B01A68019201991A68012454
:1048C000002391420470C0E90133C0E9033343611E
:1048D00005D1183002B0BDE81040FFF7F1B8FCF781
:1048E000CFFC00BF00080020000000000000000016
:1048F00000B5074B83B01A680192019A1B689A426F
:1049000004D103B05DF804EB02F09ABDFCF7B8FCEB
:10491000000800200000000000000000000000006F
:1049200030B5134B83B01A680192019C19680125B8
:10493000002200F118030570426000F11C0500F12F
:104940002002836100F12403C561026200F12805A1
:1049500000F1080243628C4200F110038562C0E955
:104960000222C0E9043301D103B030BDFCF788FC5A
:10497000000800200000000000000000000000000F
:1049800000B5074B83B01A680192019A1B689A42DE
:1049900004D103B05DF804EB03F0CAB9FCF770FC76
:1049A00000080020000000000000000000000000DF
:1049B00010B50A4B82B01A68019201991A68012455
:1049C000002391420470C0E9043305D1183002B0CD
:1049D000BDE81040FFF774B8FCF752FC0008002057
:1049E00000B5074B83B01A680192019A1B689A427E
:1049F00004D103B05DF804EB02F042BDFCF740FCCB
:104A0000000800200000000000000000000000007E
:104A100010B5084B82B01A680192019A1B680124F4
:104A200000219A420470416001D102B010BDFCF730
:104A300027FC00BF0008002000000000000000006C
:104A400000B5074B83B01A680192019A1B689A421D
:104A500004D103B05DF804EB04F042BBFCF710FC9A
:104A6000000800200000000000000000000000001E
:104A700010B5084B82B01A680192019A1B68012494
:104A800000219A420470416001D102B010BDFCF7D0
:104A9000F7FB00BF0008002000000000000000003D
:104AA00000B5074B83B01A680192019A1B689A42BD
:104AB00004D103B05DF804EB03F042BCFCF7E0FB6B
:104AC00000080020000000000000000000000000BE
:104AD00010B50A4B82B01A680192019A1B68012432
:104AE00000219A420470416005D10C3002B0BDE84B
:104AF0001040FEF7E5BFFCF7C3FB00BF0008002035
:104B000070B51F4D82B02B6801930E46044680B3EA
:104B100079B323785A1E012A04D9052B02D01948EB
:104B2000FDF75EFE202383F31188FEF769FFFDF792
:104B3000F7FE2046666003F02BFC02232370FDF78E
:104B40000FFFFEF775FF104B1A689A4204D099695F
:104B500093688A689A4208D3002383F31188019AE4
:104B60002B689A4209D102B070BD0848FDF738FEA3
:104B7000F2E70448FDF734FECBE7FCF781FB00BF0A
:104B80000008002030D500088018002020D500083B
:104B900030B51D4D83B02B680193044670B3237864
:104BA0005A1E012A04D9052B02D01848FDF718FE19
:104BB000202383F31188FEF723FFFDF7B1FE204683
:104BC00003F026FD01232370FDF7CAFEFEF730FF38
:104BD0000F4B1A689A4204D0996993688A689A427E
:104BE00008D3002383F31188019A2B689A4209D1D4
:104BF00003B030BD0748FDF7F3FDF2E70348FDF7CA
:104C0000EFFDCCE7FCF73CFB0008002040D5000896
:104C10008018002020D500080000000000000000DF
:104C200030B5094D83B02B680193044630B1019A29
:104C30002B68A0689A4205D103B030BD0348FDF748
:104C4000CFFDF4E7FCF71CFB0008002050D500085E
:104C50002DE9F04F304E87B034680594DDF840B050
:104C60000D4690461F46DDE9119A044608B1002919
:104C70003DD12A48FDF7B4FD2378022B02D0274806
:104C8000FDF7AEFD202383F31188FEF7B9FEFDF793
:104C900047FE4FF0000C0320C4F808C042462946E6
:104CA00020703B462046CDE9019ACDF800B003F0D4
:104CB000FFFC431C0CBF0523022323700546FDF7B0
:104CC0004FFEFEF7B5FE164B1A689A4204D099695A
:104CD00093688A689A4218D3002383F31188059A4F
:104CE00033689A42284614D107B0BDE8F08F002BF4
:104CF000BFD0002ABDD0B9F1000F02D0BBF1000F28
:104D0000B7D0BAF1000FB7D1B3E70648FDF768FD99
:104D1000E2E7FCF7B5FA00BF0008002060D5000804
:104D20008018002020D500080000000000000000CE
:104D300030B50B4C83B023680193054650B1019AFE
:104D400023689A420AD105F10C0003B0BDE8304057
:104D5000FEF796BF0348FDF743FDF0E7FCF790FA36
:104D60000008002080D500080000000000000000BE
:104D700030B50B4C83B023680193054650B1019ABE
:104D800023689A420AD105F10C0003B0BDE8304017
:104D9000FEF7AEBF0348FDF723FDF0E7FCF770FA1E
:104DA0000008002090D5000800000000000000006E
:104DB00000B5074B83B01A680192019A1B689A42AA
:104DC00004D103B05DF804EB04F0D2B8FCF758FA54
:104DD00000080020000000000000000000000000AB
:104DE00010B5084B82B01A680192019A1B68012421
:104DF00000219A420470416001D102B010BDFCF75D
:104E00003FFA00BF00080020000000000000000082
:104E100000B5074B83B01A680192019A1B689A4249
:104E200004D103B05DF804EB04F042BAFCF728FAB1
:104E3000000800200000000000000000000000004A
:104E400010B5094B82B01A68019201991A680124C1
:104E50000023914204704360C360037401D102B027
:104E600010BDFCF70DFA00BF000800200000000094
:104E700070B5104D82B02B6801930E46044650B1B8
:104E800049B12379052B0CD00120019A2B689A4255
:104E90000ED102B070BD0848FDF7A2FC2379052BA6
:104EA000F2D1A36A73604FF4007333600020ECE723
:104EB000FCF7E6F90008002010D60008000000000A
:104EC0002DE9F047DFF89C8386B002AFD8F80030B8
:104ED000FB600446002800F019812379022B01D0E1
:104EE000052B2BD103232371204602F061FB002206
:104EF0001146204602F0D4FB07F108034FF4D572A7
:104F00000821204602F014FCE0B9BB680122C3F37B
:104F100003239342226300F0FD80204602F080FBD1
:104F2000022323710125FA68D8F800309A422846F6
:104F300040F046811037BD46BDE8F087C048FDF718
:104F40004FFCCFE707F1080300223721204602F08B
:104F5000EFFB002840F0BE80BB68BA4A1A40002A26
:104F600040F0B88022631146204602F099FB266B80
:104F700006F00F03022B00F0AF80B34EB34ADFF808
:104F8000C492012B18BF1646642504E0013DC4D02D
:104F90000A20FEF72DFA07F10803002237212046E8
:104FA00002F0C6FB0028B8D1BB6813EA090FB4D1E0
:104FB00007F1080332462921204602F091FB002820
:104FC000ABD1BB68002BE1DA5B0003D5236B43F068
:104FD0001003236304F1080300220221204602F09B
:104FE00097FC002899D1024604F13803032120469A
:104FF00002F09EFB002890D104F118052B46A26B0D
:105000000921204602F084FC002886D13B1DA26BBA
:105010000721204602F08CFB824600287FF47DAFFA
:10502000236B03F00F03022B00F097806E467E2265
:1050300090B07F212846FFF77BFB0DF1080900287F
:1050400079D10146B546204602F0D2FA236B03F02F
:105050000F03022B00F096802846FFF7A9FBA06201
:105060003B1D4FF400721021204602F061FB054603
:1050700000287FF452AF7B68724E33427FF44DAF0D
:10508000236B03F00F03012B40F2B280022B7FF45D
:1050900044AFE36A1A79012A00F0A88017D3022AE4
:1050A00040F0E2806A4E1979204602F0D1FA07F109
:1050B000080332460621204602F03AFB00287FF41E
:1050C0002CAFBA685F4B1340002B7FF426AF05234B
:1050D000237128E7022323635E4E642505E0013D2A
:1050E0003FF41BAF0A20FEF783F907F108033246AD
:1050F0000121204602F0F4FA00287FF40EAFBB68CD
:10510000002BECDA5B007FF565AF5FE74C48FDF7FD
:1051100067FBE2E6024607F108033721204602F06A
:1051200007FB00287FF4F9AEBA68464B1340002B0A
:105130007FF4F3AE1BE7CDF800A0062340224946DA
:10514000204602F015FC00284ED199F80D3013F0DE
:10515000020337D11946B54675E7E36A1B687BB190
:1051600007F108033C4A0621204602F0E1FA38B96B
:10517000BB6834491940B1FA81F1490963E7B54682
:10518000002160E77E227F212846FFF7D1FA01281F
:105190007FF662AFE36A1D68002D3FF4BEAE0023C8
:1051A00000934FF4007208232946204602F0E0FBEA
:1051B00000287FF4B2AE2846FFF73AFBA0624FE723
:1051C000FCF75EF8254B0093402206234946204613
:1051D00002F0CEFB40B999F8103003F00F030F2B0B
:1051E000CDD0B54601212EE7B54696E61C4E5AE7CE
:1051F000E36A197900293FF46AAF01297FF48DAE83
:10520000204602F025FA07F10803A26B3721204659
:1052100002F08EFA00287FF480AEBB6833427FF440
:105220007CAE07F1080302220621204602F080FA34
:1052300000287FF472AEBB6833423FF448AF6CE69F
:10524000C0D5000808E0FFFD000010C0000010807D
:105250000002B7030080FFC00001B903F1FFFF8027
:105260000001B703000800200248034EFDF7B8FA1A
:10527000E36A18E7A0D500080000B70300000000AB
:105280002DE9F041194D82B02C6801940F469046EB
:105290001E460446C0B1BAB1B3B12379052B02D082
:1052A0001348FDF79DFA781EA36A304498420FD93F
:1052B000636B43F0800363630120019A2B689A4279
:1052C00011D102B0BDE8F0810948FDF789FAE4E7A1
:1052D00006203346207142463946204602F090FCB3
:1052E00005232371E9E7FBF7CBFF00BF000800208F
:1052F000E0D50008000000000000000000000000F1
:105300002DE9F041194D82B02C6801940F4690466A
:105310001E460446C0B1BAB1B3B12379052B02D001
:105320001348FDF75DFA781EA36A304498420FD9FE
:10533000636B43F0800363630120019A2B689A42F8
:1053400011D102B0BDE8F0810948FDF749FAE4E760
:1053500007203346207142463946204602F090FC31
:1053600005232371E9E7FBF78BFF00BF000800204E
:10537000F0D5000800000000000000000000000060
:1053800070B50E4D82B02B680193044680B126792A
:10539000052E06D00120019A2B689A420CD102B04A
:1053A00070BD08232371204602F0AAFC2671F2E7A3
:1053B0000348FDF715FAEAE7FBF762FF0008002053
:1053C00000D60008000000000000000000000000FF
:1053D00070B5124D124E2B6882B0044601936B4695
:1053E000A26B0D21204602F0A3F978B9009B33424D
:1053F0000BD1C3F34323042B08D04FF0010005D396
:10540000072B03D8FDF7F4FFE9E70120019A2B6889
:105410009A4201D102B070BDFBF732FF00080020B4
:1054200008E0FFFD00000000000000000000000098
:1054300070B52D4E82B033680193044600284CD0DD
:10544000202383F31188FEF7DBFAFDF769FA23794D
:10545000022B29D0052B21D104232371FDF780FADB
:10546000FEF7E6FA214B1A689A4204D099699368CC
:105470008A689A4229D3002383F311882046FFF7D4
:10548000A7FF0546204602F0CBF802232371019ABC
:1054900033689A42284624D102B070BD1448FDF703
:1054A0009FF92379022BD7D1FDF75AFAFEF7C0FAFC
:1054B0000E4B1A689A4204D0996993688A689A4296
:1054C00007D3002585F31188E1E70A48FDF788F93D
:1054D000D1E70848FDF784F9F3E70548FDF780F9BF
:1054E000AEE7FBF7CDFE00BF0008002080180020CB
:1054F000D0D5000820D60008000000000000000001
:1055000000B5074B83B01A680192019A1B689A4252
:1055100004D103B05DF804EB02F02AB8FBF7B0FE4B
:105520000008002000000000000000000000000053
:1055300010B50A4B0A4C1A6882B0019201991A6898
:10554000046000230124914204714363C0E90A33DB
:1055500001D102B010BDFBF793FE00BF0008002090
:1055600030D600080000000000000000000000002D
:1055700030B5084C83B025680195019D2468A5428B
:1055800005D10C3003B0BDE83040FEF7E9BDFBF7B4
:1055900077FE00BF000800200000000000000000AF
:1055A00010B5094B82B01C680194019C1B689C4299
:1055B00007D10C304FF0FF3302B0BDE81040FEF7CA
:1055C000CFBDFBF75DFE00BF00080020000000001B
:1055D00030B5084C83B025680195019D2468A5422B
:1055E00005D1303003B0BDE83040FEF7F1BEFBF727
:1055F00047FE00BF0008002000000000000000007F
:1056000010B5094B82B01C680194019C1B689C4238
:1056100007D130304FF0FF3302B0BDE81040FEF745
:10562000D7BEFBF72DFE00BF0008002000000000E1
:1056300000B5084B83B01A680192019A1B689A4220
:1056400005D10C3003B05DF804EBFEF739BDFBF774
:1056500017FE00BF0008002000000000000000004E
:1056600000B5094B83B01A680192019A1B689A42EF
:1056700007D10C304FF0FF3103B05DF804EBFEF7BB
:105680001FBDFBF7FDFD00BF00080020000000006B
:1056900010B5084B82B01C680194019C1B689C42A9
:1056A00005D1303002B0BDE81040FEF7F9BDFBF780
:1056B000E7FD00BF0008002000000000000000001F
:1056C00000B5094B83B01A680192019A1B689A428F
:1056D00007D130304FF0FF3203B05DF804EBFEF736
:1056E000DFBDFBF7CDFD00BF00080020000000007B
:1056F00000B5074B83B01A680192019A1B689A4261
:1057000004D103B05DF804EB03F042BFFBF7B8FD32
:105710000008002000000000000000000000000061
:10572000F0B5144D144B2F68044685B040F8043B87
:105730004FF0010C00940B461646606084F808C0D8
:1057400004F1540104F10C0010220397FEF768FCE9
:1057500033461022009404F1640104F13000FEF796
:105760007FFD039A2B689A4201D105B0F0BDFBF78B
:1057700087FD00BF0008002080D600080000000060
:1057800070B51D4D82B02B6801930E46044668B378
:10579000202383F31188FEF733F9FDF7C1F8237A4C
:1057A000013B012B02D91548FDF71AF83146204676
:1057B00003F00EFF02232372FDF7D2F8FEF738F94B
:1057C0000F4B1A689A4204D0996993688A689A4282
:1057D00008D3002383F31188019A2B689A4209D1D8
:1057E00002B070BD0748FCF7FBFFF2E70348FCF787
:1057F000F7FFCDE7FBF744FD0008002060D6000866
:105800008018002050D600080000000000000000B2
:1058100070B5174D82B004462B6801930E46FDF714
:105820004FF9F4B1FDF74CF9636963B1314604F106
:105830000C00FEF715FC0028019A2B6808DB9A4241
:1058400013D102B070BD04216018FEF7B9FBEDE77B
:105850009A420AD1201D802102B0BDE87040FEF7B7
:10586000AFBB0448FCF7BCFFDCE7FBF709FD00BF5A
:105870000008002070D600080000000000000000B2
:1058800000B5064B83B01A680192019A1B689A42D0
:1058900002D103B05DF804FBFBF7F2FC0008002026
:1058A00000B5074B83B01A680192019A1B689A42AF
:1058B00004D103B05DF804EB03F082BBFBF7E0FC1E
:1058C00000080020000000000000000000000000B0
:1058D00010B50A4B82B01A68019201991A68012426
:1058E000002391420470C0E9013305D10C3002B0AD
:1058F000BDE81040FEF7E4B8FBF7C2FC000800204A
:1059000000B5074B83B01A680192019A1B689A424E
:1059100004D103B05DF804EB03F032BDFBF7B0FC3B
:10592000000800200000000000000000000000004F
:1059300000B5074B83B01A680192019A1B689A421E
:1059400004D103B05DF804EB02F042BFFBF798FC12
:10595000000800200000000000000000000000001F
:1059600010B50B4B82B01A68019201991A68012494
:10597000002391420470C36183620362C362436285
:105980000363C0E9013301D102B010BDFBF778FC1D
:1059900000080020000000000000000000000000DF
:1059A000F0B5124D83B004462B6801930E46FDF707
:1059B00087F8A4B1012000FA06F362899BB212EACB
:1059C000030706D1134320466381314603F010FAE2
:1059D0003846019A2B689A4205D103B0F0BD0448BD
:1059E000FCF7FEFEE6E7FBF74BFC00BF00080020DB
:1059F000A0D6000800000000000000000000000029
:105A0000F0B5124D83B004462B6801930E46FDF7A6
:105A100057F8A4B1012000FA06F322899BB212EADA
:105A2000030706D1134320462381314603F000FAD1
:105A30003846019A2B689A4205D103B0F0BD04485C
:105A4000FCF7CEFEE6E7FBF71BFC00BF00080020DA
:105A5000C0D60008000000000000000000000000A8
:105A600030B50D4B83B01A680192019C1968002271
:105A700002258C420570C264C0E90222C0E90422FA
:105A8000826180F8342004D103B0BDE8304002F0D8
:105A9000CFBEFBF7F5FB00BF0008002000000000B0
:105AA000F0B5C54D83B0044600222B6880F8342041
:105AB00000F14402019302F093FF63689B68002B9E
:105AC00036D02046984798B3E16B94F8443094F868
:105AD0004B0094F84A2042EA00228A422CBF0A4630
