:020000040800F2
:1000000000040020C1010008413000084130000810
:10001000312000084130000841300008413000081C
:10002000413000084130000841300008614F0008AD
:10003000413000084130000841300008919C000820
:1000400041300008A1770008317900088179000863
:100050004130000841300008E174000831750008A3
:1000600081750008D175000821760008116A000822
:10007000616A0008B16A0008016B0008516B000852
:10008000A16B0008F16B000851720008117B000899
:10009000817B0008317C0008E17C00087176000853
:1000A0004130000841300008E19900084130000863
:1000B000119B0008519B0008919B0008518A000881
:1000C000818B0008413000084130000841300008B1
:1000D000413000084130000841300008519D0008BF
:1000E00001770008F17700084178000841300008E6
:1000F000413000084130000841300008416C0008E0
:1001000041300008717E0008D19B00084130000892
:100110004130000841300008819900084130000852
:10012000916C0008E16C0008316D0008816D0008D9
:10013000D16D000841300008917800084130000876
:100140004130000841300008413000082196000885
:10015000216E0008716E0008C16E00084130000871
:1001600041300008413000084130000841300008AB
:10017000E178000841300008211A000841300008E9
:10018000413000084130000841300008413000088B
:10019000413000084130000841300008413000087B
:1001A000413000084130000841300008413000086B
:1001B000413000084130000841300008413000085B
:1001C00072B62E4880F3098840F20000CCF200009D
:1001D0004EF63471CEF20001086040F20000C0F229
:1001E000F0004EF68851CEF2000108604FF000009A
:1001F000E1EE100A4EF63C71CEF2000108600620D6
:1002000080F31488BFF36F8F09F0EAFE4FF055308A
:100210001B491C4A91423CBF41F8040BFAE71A49BA
:10022000164A91423CBF41F8040BFAE71749184AB5
:10023000184B9A423EBF51F8040B42F8040BF8E702
:1002400000201549154A91423CBF41F8040BFAE7DA
:1002500002F0DEFE124C134DAC4203DA54F8041BDC
:100260008847F9E701F09CF80F4C104DAC4203DAD7
:1002700054F8041B8847F9E702F0DABE00080020B2
:10028000000000200004002000040020B8E6000860
:1002900000080020EC110020F01100208827002029
:1002A000C0010008C0010008C0010008C00100082A
:1002B0002DE9F04F2DED108AC1F80CD0D0F80CD0FC
:1002C000BDEC108ABDE8F08F02F0FAFF04F060F890
:1002D000002383F311882846A047002003F0F8FD8F
:1002E00004F03EF802F0CCFF03F0EAFB02F0E8FF76
:1002F00004F04EF800DFFEE7000000000000000000
:1003000081F0004102E000BF83F0004330B54FEAC6
:1003100041044FEA430594EA050F08BF90EA020F33
:100320001FBF54EA000C55EA020C7FEA645C7FEAC6
:10033000655C00F0E2804FEA5454D4EB5555B8BFE9
:100340006D420CDD2C4480EA020281EA030382EA5A
:10035000000083EA010180EA020281EA0303362DEC
:1003600088BF30BD11F0004F4FEA01314FF4801CBF
:100370004CEA113102D0404261EB410113F0004FD1
:100380004FEA03334CEA133302D0524263EB430388
:1003900094EA050F00F0A780A4F10104D5F1200E26
:1003A0000DDB02FA0EFC22FA05F2801841F1000181
:1003B00003FA0EF2801843FA05F359410EE0A5F155
:1003C00020050EF1200E012A03FA0EFC28BF4CF086
:1003D000020C43FA05F3C01851EBE37101F000453C
:1003E00007D54FF0000EDCF1000C7EEB00006EEB49
:1003F0000101B1F5801F1BD3B1F5001F0CD34908D3
:100400005FEA30004FEA3C0C04F101044FEA445229
:1004100012F5800F80F09A80BCF1004F08BF5FEAB0
:10042000500C50F1000041EB045141EA050130BD90
:100430005FEA4C0C404141EB010111F4801FA4F133
:100440000104E9D191F0000F04BF01460020B1FA88
:1004500081F308BF2033A3F10B03B3F120020CDAC0
:100460000C3208DD02F1140CC2F10C0201FA0CF09E
:1004700021FA02F10CE002F11402D8BFC2F1200C03
:1004800001FA02F120FA0CFCDCBF41EA0C019040B9
:10049000E41AA2BF01EB0451294330BD6FEA040402
:1004A0001F3C1CDA0C340EDC04F11404C4F12002ED
:1004B00020FA04F001FA02F340EA030021FA04F3FF
:1004C00045EA030130BDC4F10C04C4F1200220FA56
:1004D00002F001FA04F340EA0300294630BD21FA94
:1004E00004F0294630BD94F0000F83F4801306BF5A
:1004F00081F480110134013D4EE77FEA645C18BF4E
:100500007FEA655C29D094EA050F08BF90EA020FE4
:1005100005D054EA000C04BF1946104630BD91EADC
:10052000030F1EBF0021002030BD5FEA545C05D1DF
:100530004000494128BF41F0004130BD14F580041E
:100540003CBF01F5801130BD01F0004545F0FE4192
:1005500041F470014FF0000030BD7FEA645C1ABFC7
:10056000194610467FEA655C1CBF0B46024650EAFE
:10057000013406BF52EA033591EA030F41F400212A
:1005800030BD00BF90F0000F04BF0021704730B5B0
:100590004FF4806404F132044FF000054FF0000185
:1005A00050E700BF90F0000F04BF0021704730B546
:1005B0004FF4806404F1320410F0004548BF40421B
:1005C0004FF000013EE700BF42004FEAE2014FEA70
:1005D00031014FEA02701FBF12F07F4393F07F4F4B
:1005E00081F06051704732F07F4208BF704793F04E
:1005F0007F4F04BF41F40021704730B54FF4607461
:1006000001F0004521F000411CE700BF50EA010263
:1006100008BF704730B54FF000050AE050EA01020C
:1006200008BF704730B511F0004502D5404261EB7C
:1006300041014FF4806404F132045FEA915C3FF4BD
:10064000D8AE4FF003025FEADC0C18BF03325FEA5A
:10065000DC0C18BF033202EBDC02C2F1200300FA0B
:1006600003FC20FA02F001FA03FE40EA0E0021FA30
:1006700002F11444BDE600BF0000000000000000CD
:1006800070B54FF0FF0C4CF4E06C1CEA11541DBF28
:100690001CEA135594EA0C0F95EA0C0F00F0DEF8F3
:1006A0002C4481EA030621EA4C5123EA4C5350EAD8
:1006B000013518BF52EA033541F4801143F4801329
:1006C00038D0A0FB02CE4FF00005E1FB02E506F0BA
:1006D0000042E0FB03E54FF00006E1FB03569CF00F
:1006E000000F18BF4EF0010EA4F1FF04B6F5007F15
:1006F00064F5407404D25FEA4E0E6D4146EB060687
:1007000042EAC62141EA55514FEAC52040EA5E500F
:100710004FEACE2EB4F1FD0C88BFBCF5E06F1ED8B9
:10072000BEF1004F08BF5FEA500E50F1000041EBF0
:10073000045170BD06F0004646EA010140EA02009D
:1007400081EA0301B4EB5C04C2BFD4EB0C0541EABF
:10075000045170BD41F480114FF0000E013C00F3D4
:10076000AB8014F1360FDEBF002001F0004170BDF8
:10077000C4F10004203C35DA0C341BDC04F1140411
:10078000C4F1200500FA05F320FA04F001FA05F29D
:1007900040EA020001F0004221F0004110EBD3706A
:1007A00021FA04F642EB06015EEA430E08BF20EA96
:1007B000D37070BDC4F10C04C4F1200500FA04F339
:1007C00020FA05F001FA04F240EA020001F00041CB
:1007D00010EBD37041F100015EEA430E08BF20EA3E
:1007E000D37070BDC4F1200500FA05F24EEA020E86
:1007F00020FA04F301FA05F243EA020321FA04F0B5
:1008000001F0004121FA04F220EA020000EBD3706B
:100810005EEA430E08BF20EAD37070BD94F0000F6B
:100820000FD101F00046400041EB010111F4801F9F
:1008300008BF013CF7D041EA060195F0000F18BF50
:10084000704703F00046520043EB030313F4801F8C
:1008500008BF013DF7D043EA0603704794EA0C0F46
:100860000CEA135518BF95EA0C0F0CD050EA41065C
:1008700018BF52EA4306D1D181EA030101F00041D9
:100880004FF0000070BD50EA410606BF1046194601
:1008900052EA430619D094EA0C0F02D150EA01360D
:1008A00013D195EA0C0F05D152EA03361CBF10464E
:1008B00019460AD181EA030101F0004141F0FE41ED
:1008C00041F470014FF0000070BD41F0FE4141F471
:1008D000780170BD70B54FF0FF0C4CF4E06C1CEA71
:1008E00011541DBF1CEA135594EA0C0F95EA0C0F26
:1008F00000F0A7F8A4EB050481EA030E52EA0335E1
:100900004FEA013100F088804FEA03334FF0805501
:1009100045EA131343EA12634FEA022245EA11152E
:1009200045EA10654FEA00260EF000419D4208BFDF
:10093000964244F1FD0404F5407402D25B084FEA8C
:100940003202B61A65EB03055B084FEA32024FF438
:1009500080104FF4002CB6EB020E75EB030E22BF95
:10096000B61A754640EA0C005B084FEA3202B6EB55
:10097000020E75EB030E22BFB61A754640EA5C0004
:100980005B084FEA3202B6EB020E75EB030E22BF94
:10099000B61A754640EA9C005B084FEA3202B6EB95
:1009A000020E75EB030E22BFB61A754640EADC0054
:1009B00055EA060E18D04FEA051545EA16754FEAB6
:1009C00006164FEAC30343EA52734FEAC2025FEAD4
:1009D0001C1CC0D111F4801F0BD141EA00014FF063
:1009E00000004FF0004CB6E711F4801F04BF014334
:1009F0000020B4F1FD0C88BFBCF5E06F3FF6AFAE50
:100A0000B5EB030C04BFB6EB020C5FEA500C50F1DF
:100A1000000041EB045170BD0EF0004E4EEA113162
:100A200014EB5C04C2BFD4EB0C0541EA045170BD69
:100A300041F480114FF0000E013C90E645EA060EAD
:100A40008DE60CEA135594EA0C0F08BF95EA0C0FDB
:100A50003FF43BAF94EA0C0F0AD150EA01347FF423
:100A600034AF95EA0C0F7FF425AF104619462CE7FA
:100A700095EA0C0F06D152EA03353FF4FDAE10465D
:100A8000194622E750EA410618BF52EA43067FF4AE
:100A9000C5AE50EA41047FF40DAF52EA43057FF43E
:100AA000EBAE12E7000000000000000000000000B4
:100AB0004FEA410212F5001215D211D56FF4787386
:100AC000B3EB625212D94FEAC12343F0004343EA29
:100AD000505311F0004F23FA02F018BF4042704704
:100AE0004FF00000704750EA013005D111F000408E
:100AF00008BF6FF0004070474FF00000704700BF24
:100B00004FEA4102B2F1E04324BFB3F5001CDCF12F
:100B1000FE5C0DD901F0004C4FEAC0024CEA507067
:100B2000B2F1004F40EB830008BF20F00100704796
:100B300011F0804F21D113F13872BCBF01F0004099
:100B4000704741F480114FEA5252C2F11802C2F1CB
:100B5000200C10FA0CF320FA02F018BF40F001004C
:100B60004FEAC1234FEAD32303FA0CFC40EA0C00FE
:100B700023FA02F34FEA4303CCE77FEA625307D13B
:100B800050EA01331EBF4FF0FE4040F44000704772
:100B900001F0004040F0FE4040F40000704700BF0C
:100BA00053B94AB9002908BF00281CBF4FF0FF31D4
:100BB0004FF0FF3000F074B9ADF1080C6DE904CED0
:100BC00000F006F8DDF804E0DDE9022304B0704728
:100BD0002DE9F047089E04468846002B4BD18A42F7
:100BE000154667D9B2FA82F24AB1C2F1200701FA7A
:100BF00002F320FA07F7954047EA030894404FEACA
:100C0000154E230CB8FBFEF71FFA85FC0EFB178868
:100C100043EA084307FB0CF1994209D9EB1807F1A5
:100C2000FF3080F01B81994240F21881023F2B4433
:100C30005B1AA4B2B3FBFEF00EFB103344EA03448C
:100C400000FB0CFCA44509D92C1900F1FF3380F0FE
:100C50000781A44540F2048102382C4440EA074051
:100C6000A4EB0C0400271EB1D4400023C6E90043C6
:100C70003946BDE8F0878B4209D9002E00F0EB80A1
:100C80000027C6E9000138463946BDE8F087B3FAC7
:100C900083F7002F47D18B4202D3824200F2FA80C1
:100CA000841A61EB030301209846002EE0D0C6E9C8
:100CB0000048DDE702B9FFDEB2FA82F2002A40F016
:100CC0008F80491B4FEA154E1FFA85F80127B1FBAB
:100CD000FEFC230C0EFB1C1143EA014308FB0CF144
:100CE000994207D9EB180CF1FF3002D2994200F279
:100CF000CD808446591AA3B2B1FBFEF00EFB10144E
:100D000043EA044408FB00F8A04507D92C1900F178
:100D1000FF3302D2A04500F2B6801846A4EB0804C7
:100D200040EA0C409FE7C7F1200CBB4022FA0CFEC2
:100D30004EEA030E01FA07F420FA0CF521FA0CF33F
:100D40004FEA1E482543B3FBF8F92C0C08FB193376
:100D50001FFA8EFA44EA034309FB0AF49C4202FAA2
:100D600007F200FA07F10BD91EEB030309F1FF307C
:100D700080F087809C4240F28480A9F1020973448C
:100D80001B1BADB2B3FBF8F008FB103345EA03447C
:100D900000FB0AFAA24508D91EEB040400F1FF3358
:100DA0006BD2A24569D90238744440EA0940A0FBDD
:100DB0000289A4EB0A044C45C2464B4654D351D099
:100DC000002E69D0B1EB0A0564EB030404FA0CFCB5
:100DD000FD40FC404CEA0505C6E90054002747E702
:100DE000C2F1200320FA03F7954001FA02F021FA3C
:100DF00003F34FEA154E3843010CB3FBFEF71FFA1D
:100E000085F80EFB173341EA034107FB08F38B42D9
:100E100004FA02F407D9691807F1FF3C2FD28B427C
:100E20002DD9023F2944CB1A81B2B3FBFEF00EFB51
:100E3000103341EA034100FB08F38B4207D96918DC
:100E400000F1FF3C17D28B4215D902382944C91A48
:100E500040EA07473BE73746304609E70746E7E6FB
:100E60001846FBE64145ABD2B8EB020A69EB0E022D
:100E700001381346A4E76046E9E7184695E7674658
:100E8000D1E781467CE702382C4447E7ACF1020CFD
:100E90002B442FE7384608E73746E9E60000000014
:100EA000704700BF000000000000000000000000CC
:100EB000844641EA000313F003036DD1403A41D365
:100EC00051F8043B40F8043B51F8043B40F8043B24
:100ED00051F8043B40F8043B51F8043B40F8043B14
:100EE00051F8043B40F8043B51F8043B40F8043B04
:100EF00051F8043B40F8043B51F8043B40F8043BF4
:100F000051F8043B40F8043B51F8043B40F8043BE3
:100F100051F8043B40F8043B51F8043B40F8043BD3
:100F200051F8043B40F8043B51F8043B40F8043BC3
:100F300051F8043B40F8043B51F8043B40F8043BB3
:100F4000403ABDD2303211D351F8043B40F8043B53
:100F500051F8043B40F8043B51F8043B40F8043B93
:100F600051F8043B40F8043B103AEDD20C3205D363
:100F700051F8043B40F8043B043AF9D2043208D05B
:100F8000D2071CBF11F8013B00F8013B01D30B88CD
:100F900003806046704700BF082A13D38B078DD0AB
:100FA00010F003038AD0C3F10403D21ADB071CBF7D
:100FB00011F8013B00F8013B80D331F8023B20F8E7
:100FC000023B7BE7043AD9D3013A11F8013B00F820
:100FD000013BF9D20B7803704B7843708B788370A8
:100FE00060467047000000000000000000000000A4
:100FF00090F800F06DE9024520F007016FF0000C59
:1010000010F0070491F820F040F049804FF0000400
:101010006FF00700D1E9002391F840F000F10800DB
:1010200082FA4CF2A4FA8CF283FA4CF3A2FA8CF313
:101030004BBBD1E9022382FA4CF200F10800A4FA7A
:101040008CF283FA4CF3A2FA8CF3E3B9D1E90423CE
:1010500082FA4CF200F10800A4FA8CF283FA4CF305
:10106000A2FA8CF37BB9D1E9062301F1200182FABF
:101070004CF200F10800A4FA8CF283FA4CF3A2FAC5
:101080008CF3002BC6D0002A04BF04301A4612BAD3
:10109000B2FA82F2FDE8024500EBD2007047D1E9D6
:1010A000002304F00305C4F100004FEAC50514F065
:1010B000040F91F840F00CFA05F562EA05021CBF36
:1010C00063EA050362464FF00004A9E70000000050
:1010D00001F0FF01102A2BDB10F0070F08D010F8E9
:1010E000013B013A8B422DD010F0070F42B3F6D1ED
:1010F000F0B441EA012141EA014122F007047FF006
:1011000000070023F0E80256083C85EA010586EA5C
:10111000010685FA47F5A3FA87F586FA47F6A5FA98
:1011200087F68EB9EED1F0BC01F0FF0102F00702A4
:1011300032B110F8013B013A83EA010313B1F8D14F
:101140000020704701387047002D06BF3546033830
:10115000073815F0010F07D1013015F4807F02BF69
:10116000013015F4C03F0130F0BC0138704700BFBA
:101170004FF0FF3C06E000BF4FF0010C02E000BF63
:101180004FF0010C4DF804CD4FEA410C7FEA6C5C46
:101190004FEA430C18BF7FEA6C5C1BD001B050EAE9
:1011A000410C0CBF52EA430C91EA030F02BF90EAD4
:1011B000020F0020704710F1000F91EA030F58BF93
:1011C000994208BF90422CBFD8176FEAE37040F0F5
:1011D000010070474FEA410C7FEA6C5C02D150EA93
:1011E000013C07D14FEA430C7FEA6C5CD6D152EA4E
:1011F000033CD3D05DF8040B704700BF8446104613
:1012000062468C461946634600E000BF01B5FFF711
:10121000B7FF002848BF10F1000F01BD4DF808EDE1
:10122000FFF7F4FF0CBF012000205DF808FB00BFB2
:101230004DF808EDFFF7EAFF34BF012000205DF80C
:1012400008FB00BF4DF808EDFFF7E0FF94BF012059
:1012500000205DF808FB00BF4DF808EDFFF7CEFF5A
:1012600094BF012000205DF808FB00BF4DF808ED99
:10127000FFF7C4FF34BF012000205DF808FB00BF6A
:101280004FEA410C7FEA6C5C02D150EA013C0AD182
:101290004FEA430C7FEA6C5C02D152EA033C02D174
:1012A0004FF0000070474FF0010070470000000051
:1012B00000B583B0084B1B6801930849084804F047
:1012C0000FFF00BF044B019A1B689A4201D000F047
:1012D000DFF803B05DF804FB1C08002020080020A4
:1012E000DC260020000000000000000000000000DC
:1012F00000B583B0084B1B680193642002F028FD01
:1013000000BF054B019A1B689A4201D000F0C0F85B
:1013100003B05DF804FB00BF1C08002000000000C3
:1013200000B583B01A4B1B680193012000F068FDE3
:10133000642002F00DFD002000F062FD322002F07A
:1013400007FD012000F05CFD642002F001FD00209B
:1013500000F056FD322002F0FBFC012000F050FDB1
:10136000642002F0F5FC002000F04AFD322002F07B
:10137000EFFC012000F044FD00BF054B019A1B6803
:101380009A4201D000F084F803B05DF804FB00BF7E
:101390001C08002000000000000000000000000009
:1013A00000B583B0324B1B680193324B1B7883F03E
:1013B0000103DBB2002B19D003F032FE01F058FE1E
:1013C00000F0DEFD2C4A2D492D4801F039FD0022A8
:1013D00000212C4801F0DCFDFFF76AFF01F020F945
:1013E000244B01221A70FFF783FF07E000F050FD45
:1013F000002000F005FD002000F022FD00F080FE3E
:101400000346012B04D0022B05D0002B08D00CE0A2
:1014100000F08EF90EE04FF4FA7002F099FC09E04A
:101420004FF4FA7002F094FC04E04FF4FA7002F00A
:101430008FFC00BF00F064FE0346002B14BF0123A5
:101440000023DAB2104B1A700F4B1B78002B07D019
:10145000002000F0F5FC0C4B00221A70FFF7A0FFF3
:10146000022000F0EDFC4FF4FA7002F071FCE1E7AD
:101470001C0800201412002014080020000800207E
:10148000F0110020FC1100201512002000000000C7
:1014900000B583B0084B1B680193084801F050FE6B
:1014A00000BF054B019A1B689A4201D0FFF7F0FF7D
:1014B00003B05DF804FB00BF1C08002020DA000820
:1014C00000B583B0094B1B68019320230093009B58
:1014D00083F3118800BF054B019A1B689A4201D023
:1014E000FFF7D6FF03B05DF804FB00BF1C08002027
:1014F00000B583B0094B1B68019300230093009B48
:1015000083F3118800BF054B019A1B689A4201D0F2
:10151000FFF7BEFF03B05DF804FB00BF1C0800200E
:1015200000B583B0094B1B680193FFF7C9FF02F0B8
:1015300017FF01F0A5FE00BF044B019A1B689A42F9
:1015400001D0FFF7A5FF03B05DF804FB1C080020E5
:1015500000B583B0114B1B68019301F0B1FE02F09E
:1015600017FF0F4B1B680E4A93420AD00C4B9B6926
:101570009A680B4B1B689B689A4202D2094801F09B
:10158000DFFDFFF7B5FF00BF044B019A1B689A42CD
:1015900001D0FFF77DFF03B05DF804FB1C080020BD
:1015A000B818002060DA0008000000000000000009
:1015B00000B583B0074B1B680193074B9B6A184625
:1015C000044B019A1B689A4201D0FFF761FF03B0F8
:1015D0005DF804FB1C080020B81800200000000083
:1015E00000B583B00A4B1B680193FFF799FFFFF723
:1015F000DFFF0090FFF7ACFF009B1846044B019AF9
:101600001B689A4201D0FFF743FF03B05DF804FB6B
:101610001C08002000000000000000000000000086
:1016200000B583B0074B1B680193074B9B691846B5
:10163000044B019A1B689A4201D0FFF729FF03B0BF
:101640005DF804FB1C080020B81800200000000012
:1016500000B583B00C4B1B680193FFF7E1FF034615
:1016600093F8213003F00403002B14BF012300235F
:10167000DBB21846044B019A1B689A4201D0FFF76F
:1016800007FF03B05DF804FB1C0800200000000009
:1016900000B585B00190094B1B680393084B9B690B
:1016A000019A9A6100BF054B039A1B689A4201D0C8
:1016B000FFF7EEFE05B05DF804FB00BF1C0800203C
:1016C000B81800200000000000000000000000002A
:1016D00000B585B00190134B1B6803931248FFF7C8
:1016E000D7FF07E00221022000F032FB4FF4FA702E
:1016F00002F02EFBFFF7ACFF034683F00103DBB2E1
:10170000002BEFD10121022000F022FB00BF054B8E
:10171000039A1B689A4201D0FFF7BAFE05B05DF844
:1017200004FB00BF1C08002050DA00080000000085
:101730002DE9F04F97B09C4B1B68159300238DF853
:10174000153009AB30220021184608F061FF4FF038
:101750000003069301238DF8163000230093934B6A
:1017600040224FF4FC71924802F062FA0790CAE0FE
:101770009DF8153003F0070209A913465B001344D6
:101780005B000B44184600F08BFFFFF729FF089021
:101790009DF8153003F00103DBB2002B00F0A880A8
:1017A0004FF00003069300238DF817308BE0069866
:1017B000FEF70AFF82468B469DF8172013465B0012
:1017C00013445B0016AA1344343BB3F900301946A6
:1017D0009DF817305A1C13465B0013445B0016AA91
:1017E0001344343BB3F90030CB1A1846FEF7DAFE47
:1017F00002460B46144623F000459DF81720134679
:101800005B0013445B0016AA1344323BB3F900306B
:1018100019469DF817305A1C13465B0013445B00B1
:1018200016AA1344323BB3F90030CB1A1846FEF720
:10183000B9FE02460B46164623F0004732463B46A9
:1018400020462946FEF762FD02460B46CDE90223FB
:101850009DF8172013465B0013445B0016A90B4448
:10186000303BB3F9003019469DF817305A1C134627
:101870005B0013445B000DF1580C6344303BB3F93B
:101880000030CB1A1846FEF78DFE02460B469046F6
:1018900023F0004942464B46DDE90201FEF736FDE2
:1018A00002460B4650465946FEF730FD02460B46AF
:1018B00010461946FFF724F9034606939DF81730A2
:1018C00002338DF817309DF81730072B7FF66FAF76
:1018D0009DF81530102B0BD9DDED067A9FED357A8A
:1018E000F4EEC77AF1EE10FA02D500238DF8163027
:1018F0009DF8153001338DF81530089B7D3319465E
:10190000089802F065FA9DF81630002B7FF430AF8E
:10191000079802F0E5F900F03BFF00F0E9FF012134
:10192000032000F015FA0121012000F011FA4FF414
:10193000FA7002F00DFA0121002000F009FA4FF4CC
:10194000FA7002F005FA00F0A3FA002000F058FF48
:1019500003461A46184B1A80012000F051FF034637
:101960001A46164B1A80022000F04AFF03461A4618
:10197000134B1A80FFF7D4FC03E04FF4FA7002F027
:10198000E7F900F0BDFB0346012BF6D0FFF708FD99
:1019900000BF054B159A1B689A4201D0FFF778FDEE
:1019A00017B0BDE8F08F00BF1C080020D11600085A
:1019B00018120020000048441014002012140020C7
:1019C00014140020000000000000000000000000CF
:1019D00030B50F4D82682B680E4983B001931368B0
:1019E00023F0010313608C6A03E08B6A1B1BC72B77
:1019F00009D8106810F00100F7D1019A2B689A42BB
:101A000004D103B030BD4FF0FF30F6E7FFF740FDE3
:101A10001C080020B8180020000000000000000092
:101A2000F0B5284D83B02B68019302F061FC01F002
:101A3000A7FC254B1E69F20715D5244C5A69277857
:101A4000B91F42F0010201295A612AD963681B6853
:101A5000052222700BB120469847042F27D0022F71
:101A600025D003232370B30710D5174A174C5369A9
:101A7000217843F00203032953611DD063689B68FA
:101A80000622227013B101211048984701F0A0FCF2
:101A9000019A2B689A4213D103B0BDE8F04003F0DD
:101AA0007FBA019A2B689A420AD103B0F0BD022393
:101AB0002370B307EAD5D8E72046FFF789FFDDE7B3
:101AC000FFF7E6FC1C080020000005501814002059
:101AD00070B5164E16483368154D82B005224FF486
:101AE0008071019306F0DCFE20246B6983F480731F
:101AF0006B61012002F02CF9631E13F0FF04F4D196
:101B00004FF4807140F206222983094806F0C8FE8E
:101B1000019A33689A4206D10649074802B0BDE8E7
:101B2000704003F09DBCFFF7B3FC00BF1C08002011
:101B30000004024070DA0008382300200000000092
:101B400000B50C4A0C4B1278196883B0012A019138
:101B5000019A1B6804D09A4209D103B05DF804FBD6
:101B60009A4204D103B05DF804EBFFF7B1BFFFF771
:101B70008FFC00BF382300201C080020000000005C
:101B80002DE9F041224C234E88B0002335688DF8B2
:101B90001830804620468DF814101746079503F03C
:101BA00077FD2378012B0CD00420012306AACDE970
:101BB00001300092414605AA204603F0F9FC054693
:101BC00068B9134803F084FD9DF818303B7000207D
:101BD000079A33689A4218D108B0BDE8F0812046D0
:101BE00003F0CEFC23780C4A052B106004D0084883
:101BF00003F06EFD68B2EBE7204603F079FC237832
:101C0000012BF4D1FFF764FFF1E7FFF741FC00BFC0
:101C1000382300201C0800203014002000000000A1
:101C2000F0B5214C214E89B0336807930746002553
:101C300020468DF818108DF819208DF8145003F0F7
:101C400027FD2378012B0CD0042205AB01950292CD
:101C500000933946022306AA204603F0A9FC054654
:101C600048B9114803F034FD0020079A33689A42BE
:101C700017D109B0F0BD204603F082FC23780C4A4E
:101C8000052B106004D0084803F022FD68B2ECE791
:101C9000204603F02DFC2378012BF4D1FFF718FF29
:101CA000F1E7FFF7F5FB00BF382300201C080020F8
:101CB00030140020000000000000000000000000C0
:101CC0002DE9F0431F4C204E89B035688DF8171070
:101CD0000746204690469946079503F0D9FC21789F
:101CE00001290CD004230293CDE900893946012350
:101CF0000DF11702204603F05BFC054650B9114870
:101D000003F0E6FC0020079A33689A4218D109B024
:101D1000BDE8F083204603F033FC23780B4A052B03
:101D2000106004D0074803F0D3FC68B2EBE720460C
:101D300003F0DEFB2378012BF4D1FFF7C9FEF1E7B6
:101D4000FFF7A6FB382300201C08002030140020D9
:101D500070B5294D82B02B6801930E46032841D8F7
:101D6000DFE800F01A120A02012922D9234A536936
:101D700083F40063536116E0012926D91F4A536991
:101D800083F4806353610EE0012918D91B4A53691B
:101D900083F04003536106E001291CD9174A5369B7
:101DA00083F020035361019A2B689A4218D102B044
:101DB00070BD124B4FF4006229B15A83F3E70F4B09
:101DC00040220029F9D11A83EDE70C4B4FF48062D1
:101DD0000029F8D0F1E7094B20220029F3D0ECE7E5
:101DE000FFF756FB0024E0B231460134FFF7B0FFA5
:101DF000042CF8D1D7E700BF1C080020000C0240DB
:101E000000B50D4B83B01A68019201280BD90B491C
:101E10004A6982F004024A61019A1B689A4209D118
:101E200003B05DF804FB054A042108B95183F3E7C8
:101E30001183F1E7FFF72CFB1C080020000402408F
:101E400000B50E4B83B01A68019201280BD90C49DA
:101E50004A6982F480424A61019A1B689A420AD117
:101E600003B05DF804FB064A4FF4804108B9518382
:101E7000F2E71183F0E7FFF70BFB00BF1C0800201F
:101E8000000C024000000000000000000000000004
:101E9000F0B50D4F0D4C3B6883B0002501932E46E5
:101EA000E8B200210135FFF753FF042D267066705C
:101EB000A67004F10304F3D1019A3B689A4201D160
:101EC00003B0F0BDFFF7E4FA1C0800203414002032
:101ED0002DE9F043254E83B034680194042A9DF81F
:101EE0002890144605460F46984639D9B9F1000F97
:101EF00014BF00224FF08052640002EB0863013CE3
:101F00001C4405F00F0527F01F07202383F31188D9
:101F100002F026FA3D4301F0B3F9154B1035DD60B0
:101F20001C6101F0CDF902F033FA124B1A689A42A3
:101F300004D0996993688A689A420DD3002383F389
:101F40001188BFF36F8FBFF34F8F019A33689A42A6
:101F50000AD103B0BDE8F083074801F0F1F8EDE7DE
:101F6000064801F0EDF8C1E7FFF792FA1C080020DF
:101F700090ED00E0B818002000DB0008E0DA00086F
:101F800030B5224D224C2B68224A85B003936368FA
:101F900043F004036360536A43F4803353622023A5
:101FA00083F3118802F0DCF901F06AF917221A4B69
:101FB000E260236101F084F902F0EAF9174B1A6834
:101FC0009A4204D0996993688A689A4218D300208B
:101FD00080F31188BFF36F8FBFF34F8F03231D2250
:101FE00000904FF00051FFF773FF094A536843F028
:101FF00001035360039A2B689A4205D105B030BDA6
:10200000074801F09DF8E2E7FFF742FA1C080020BC
:1020100090ED00E000ED00E009000010B81800208D
:1020200000DB0008000000000000000000000000CD
:1020300070B51A4D1A4C1B4E0FCD0FC49EB02A68B6
:10204000336822801D93EFF30981682203A8FEF70D
:102050002FFF154B9D6AAA0714D4EB0708D5124B26
:1020600008995B6B114A00910D48802108F020FB14
:102070001D9A33689A420FD109481EB0BDE87040DE
:1020800001F05EB8099A5B6B0092A4F11000084A57
:10209000802108F00DFBE0E7FFF7FAF9C4DA000849
:1020A000401400201C08002000ED00E0A0DA000829
:1020B00080DA0008000000000000000000000000BE
:1020C0000A490B4B09680B4A82B02020019140213C
:1020D00058834FF4806559834FF400644FF4804077
:1020E00004215D835C8358835183FEE71C08002034
:1020F000000C02400004024000000000000000004C
:1021000030B5104C104B2268104983B00192186909
:102110001A6909691B69019D2468C2F3C032C1F3C1
:10212000001102EB4102C3F38033C0F3403003EBF4
:102130004203A54200EB430001D103B030BDFFF7DD
:10214000A7F900BF1C08002000080240000C024054
:1021500000B583B0094B1B68019320230093009BBB
:1021600083F3118800BF054B019A1B689A4201D086
:10217000FFF78EF903B05DF804FB00BF1C080020D8
:1021800000B583B0094B1B68019300230093009BAB
:1021900083F3118800BF054B019A1B689A4201D056
:1021A000FFF776F903B05DF804FB00BF1C080020C0
:1021B00000B583B0094B1B680193FFF7C9FF02F01C
:1021C000CFF801F05DF800BF044B019A1B689A42FA
:1021D00001D0FFF75DF903B05DF804FB1C08002097
:1021E00000B583B0114B1B68019301F069F802F050
:1021F000CFF80F4B1B680E4A93420AD00C4B9B69D9
:102200009A680B4B1B689B689A4202D2094800F0FF
:1022100097FFFFF7B5FF00BF044B019A1B689A4276
:1022200001D0FFF735F903B05DF804FB1C0800206E
:10223000B818002020DB00080000000000000000AB
:1022400000B583B0074B1B680193074B9B6A184688
:10225000044B019A1B689A4201D0FFF719F903B0A9
:102260005DF804FB1C080020B818002000000000E6
:1022700000B583B00A4B1B680193FFF799FFFFF786
:10228000DFFF0090FFF7ACFF009B1846044B019A5C
:102290001B689A4201D0FFF7FBF803B05DF804FB1E
:1022A0001C080020000000000000000000000000EA
:1022B00000B583B0074B1B680193074B9B69184619
:1022C000044B019A1B689A4201D0FFF7E1F803B072
:1022D0005DF804FB1C080020B81800200000000076
:1022E00000B583B00C4B1B680193FFF7E1FF034679
:1022F00093F8213003F00403002B14BF01230023C3
:10230000DBB21846044B019A1B689A4201D0FFF7D2
:10231000BFF803B05DF804FB1C08002000000000BB
:1023200000B585B00190094B1B680393084B9B696E
:10233000019A9A6100BF054B039A1B689A4201D02B
:10234000FFF7A6F805B05DF804FB00BF1C080020ED
:10235000B81800200000000000000000000000008D
:1023600000B5B1B00790934B1B682F939248FFF7CD
:10237000D7FF0EA901230122904802F051FA13ABB6
:10238000139313AB14930023159300231693002388
:1023900017930CAB0C930CAB0D930CAA13A918A8B4
:1023A00050230093864B00F063FD18AB854A194615
:1023B000854800F07DFD00238DF82230002309932D
:1023C00000238DF8233000230A93DEE0FFF750FF4F
:1023D0000B907E4B1B78002B0FD07D4B04937D4BD5
:1023E00003937D4B02937D4B01937D4B00937D4B7B
:1023F0007D4A73497D4800F05BFB18AB5022704961
:10240000184600F085FD7A4B1B78002B56D0794B8F
:102410001B78002B02D0012B11D04FE0764B1B789C
:10242000674A18335B00134400229A800023099303
:1024300000238DF822306F4B01221A703EE06E4B64
:102440001B785F4A143332F913301A46099B134440
:1024500009939DF8223001338DF82230674B1B78A9
:102460009DF822209A4228D1644B1B781A46099B7A
:1024700093FBF2F2604B1B7811B2514A203322F8E1
:1024800013105B4B00221A705D4B1B78012B14D18B
:10249000594B1B781946584B1B781846484A01F18E
:1024A000200332F91310464A00F118035B0013446D
:1024B0000A469A80524B00221A7000BF514B1B787B
:1024C000002B5CD0504B1B78002B02D0012B11D07D
:1024D00055E04E4B1B783A4A1C335B0013440022F4
:1024E0005A8000230A9300238DF82330464B0122A3
:1024F0001A7044E0454B1B78314A14335B00134497
:10250000B3F906301A460A9B13440A939DF8233008
:1025100001338DF823303E4B1B789DF823209A42DF
:102520002CD13B4B1B781A460A9B93FBF2F2374B9C
:102530001B7811B2224A20335B0013440A46DA802A
:10254000304B00221A70334B1B78012B16D12F4BC6
:102550001B7819462D4B1B781846194A01F12003A8
:102560005B001344B3F90610154A00F11C035B002D
:1025700013440A465A80274B00221A7000BF0B9B57
:10258000043319460B9801F023FCFFF7A9FE03461C
:1025900083F00103DBB2002B7FF418AF00BF054BC3
:1025A0002F9A1B689A4201D0FEF772FF31B05DF896
:1025B00004FB00BF1C08002010DB00082C140020C6
:1025C000C014002040DA0008F0110020201500207F
:1025D0000C150020F4140020FA140020E814002048
:1025E000EE140020DC140020D8140020CC140020AD
:1025F00010150020111500201215002013150020C1
:1026000014150020151500201615002017150020A0
:10261000181500201915002000000000000000001F
:1026200000B585B0184B1B68039300238DF80B3061
:10263000164B1B78002B1CD1FFF782FA4FF4C840D1
:1026400000F08EF903468DF80B309DF90B30002B0E
:1026500002D10E4B01221A70002300930C4B402232
:102660004FF45E710B4801F0E3FA02460A4B1A6020
:1026700000E000BF044B039A1B689A4201D0FEF7AA
:1026800007FF05B05DF804FB1C08002020150020A2
:1026900061230008281500201C1500200000000000
:1026A00000B585B001900F4B1B6803930E4BB3F937
:1026B0002820019B1A80019B02330B4AB2F92A2081
:1026C0001A80019B0433084AB2F92C201A8000BFFB
:1026D000044B039A1B689A4201D0FEF7D9FE05B05D
:1026E0005DF804FB1C080020C0140020000000005E
:1026F00000B585B003460A468DF8073013468DF8BD
:1027000006301A4B1B6803939DF80730022B20D824
:10271000174B1B78002B15D0164B00221A70164B46
:1027200001221A70154A9DF807301370144A9DF85B
:102730000630137002E0142001F00AFB0E4B1B78E8
:10274000002BF8D19DF807300E4A203332F91330B0
:1027500000E000231846054B039A1B689A4201D0FB
:10276000FEF796FE05B05DF804FB00BF1C080020D4
:102770002015002011150020101500201215002032
:1027800013150020C014002000000000000000000D
:1027900000B583B0144B1B680193144B1B78002BBE
:1027A00017D0134B01221A7032210020FFF7A0FF2F
:1027B0000F4B01221A7032210120FFF799FF0C4BB9
:1027C00001221A7032210220FFF792FF084B0022EB
:1027D0001A7000BF044B019A1B689A4201D0FEF7A1
:1027E00057FE03B05DF804FB1C08002020150020F4
:1027F0001415002000000000000000000000000090
:1028000000B585B003468DF807300E4B1B68039367
:102810009DF80730022B08D89DF807300A4A183374
:102820005B001344B3F9043000E000231846054B65
:10283000039A1B689A4201D0FEF72AFE05B05DF8A4
:1028400004FB00BF1C080020C01400200000000092
:1028500000B585B003460A468DF8073013468DF85B
:1028600006301B4B1B6803939DF80730022B22D8C0
:10287000184B1B78002B15D0174B00221A70174BE2
:1028800001221A70164A9DF807301370154A9DF8F8
:102890000630137002E0142001F05AFA0F4B1B7837
:1028A000002BF8D19DF807300F4A20335B0013440A
:1028B000B3F9063000E000231846054B039A1B6865
:1028C0009A4201D0FEF7E4FD05B05DF804FB00BFBD
:1028D0001C080020201500201615002015150020CA
:1028E0001715002018150020C0140020000000005B
:1028F00000B583B0144B1B680193144B1B78002B5D
:1029000017D0134B01221A7032210020FFF7A0FFCD
:102910000F4B01221A7032210120FFF799FF0C4B57
:1029200001221A7032210220FFF792FF084B002289
:102930001A7000BF044B019A1B689A4201D0FEF73F
:10294000A7FD03B05DF804FB1C0800202015002043
:102950001915002000000000000000000000000029
:10296000F0B5504D504C2B6883B00746019320784A
:10297000002380226B218DF80330FFF751F958B105
:102980002378682B0CBF6920682080226B2120707F
:10299000FFF746F900287CD1012001F0D9F968261B
:1029A00002E0012001F0D4F90DF103026B2120783F
:1029B000FFF7E6F878B12378682B0CBF6920682010
:1029C0000DF103024FF06B010CBF20702670FFF772
:1029D000D7F800285DD19DF90330002BE1DB7E00A4
:1029E00006F0180632461B212078FFF719F958B176
:1029F0002378682B0CBF6920682032461B21207089
:102A0000FFF70EF9002844D1FE00012006F0180659
:102A100001F09EF932461C212078FFF701F950B1F0
:102A20002378682B0CBF6920682032461C21207057
:102A3000FFF7F6F868BB0120C7F3072701F088F914
:102A40003A4619212078FFF7EBF850B12378682B2C
:102A50000CBF692068203A4619212070FFF7E0F882
:102A6000B8B9012001F074F9012238212078FFF76C
:102A7000D7F850B12378682B0CBF69206820012259
:102A800038212070FFF7CCF818B9012001F060F967
:102A90000020019A2B689A4201D103B0F0BDFEF7E5
:102AA000F7FC00BF1C0800202C08002000000000DC
:102AB0002DE9F04F834FDFF82C823C6887B0054644
:102AC00005941C46109B0193DDE913930E46039277
:102AD000029398F800007C4A16233A21DDE911ABF5
:102AE000FFF7EEF878B198F80030774A682B0CBF02
:102AF0006920682016233A2188F80000FFF7E0F8E3
:102B0000002840F0D480029B1BB16F4B029A1B78C7
:102B10001370002E4CD06C489FED6C5A90F9013028
:102B20008178DFED6B5A9FED6B6A41EA03214942E0
:102B300009B2AAF80010027990F9033042EA0322A0
:102B4000524212B2AAF8022090F905C0837943EAF2
:102B50000C235B421BB2AAF80430B9F904E0B9F9BE
:102B600000C0B9F90200A3EB0E0307EE903AA1EB07
:102B70000C0306EE903A131AF8EEE77A07EE103AD5
:102B800077EEC57AF8EEE66AB8EEC77A67EEA57A10
:102B900066EEA56A27EE257A67EE867A66EE866A85
:102BA00027EE067AC6ED027AC6ED006A86ED017A56
:102BB0000398A8B1444A9FED486A92F90710137A26
:102BC00043EA012307EE903AF8EEE77AF3EE056A5E
:102BD00077EEE67A87EE867A77EE267AC0ED007A8F
:102BE000002D38D03848019E90F90930817A9FED48
:102BF0003B6A41EA0321318090F90B30027B42EAC3
:102C00000322728090F90D60837B43EA0623019EC4
:102C1000B380BBF90460BBF900C0BBF902009B1B89
:102C200007EE903AA1EB0C01131A06EE901A07EE8C
:102C3000103AF8EEE66AB8EEC77AF8EEE77A66EE92
:102C4000866A27EE067A67EE867AC5ED006A85ED1C
:102C5000017AC5ED027A8CB31B4ADFED216A92F945
:102C60001010D37B43EA012307EE103AB8EEC77A7F
:102C7000002027EE267A84ED007A92F91210537C18
:102C800043EA012307EE103AB8EEC77A27EE267A18
:102C900084ED017A92F91410D37C43EA012307EE04
:102CA000903AF8EEE77A67EEA67AC4ED027A059AD2
:102CB0003B689A4204D107B0BDE8F08F2046F6E7A2
:102CC000FEF7E6FB1C080020A0180020000080464C
:102CD0000AE81C41000080385CEFA64358A00B397D
:102CE0000000163E2C08002000000000000000003C
:102CF00000B5084B83B01A680192019A1B689A428A
:102D000005D1054803B05DF804EB01F069BCFEF79E
:102D1000BFFB00BF1C08002030080020000000009E
:102D200000B5084B83B01A680192019A1B689A4259
:102D300005D1054803B05DF804EB01F089BCFEF74E
:102D4000A7FB00BF1C080020300800200000000086
:102D500070B50D4C82B0236801930D1E06460DDD43
:102D6000284602F095F818B90C2333604FF0FF3075
:102D7000019A23689A4205D102B070BD034800F061
:102D8000DFF9EDE7FEF784FB1C08002030DB0008CC
:102D900000B5064B83B01A680192019A1B689A42EB
:102DA00002D103B05DF804FBFEF772FB1C080020A3
:102DB00000B5074B83B01A680192019A1B689A42CA
:102DC00004D103B05DF804EB01F00ABCFEF760FB30
:102DD0001C080020000000000000000000000000AF
:102DE00000B5074B83B01A680192019A1B689A429A
:102DF00004D103B05DF804EB01F02ABCFEF748FBF8
:102E00001C0800200000000000000000000000007E
:102E100000B5074B83B01A680192019A1B689A4269
:102E200004D103B05DF804EB01F0C2BCFEF730FB47
:102E30001C0800200000000000000000000000004E
:102E400010B5084B82B01C68019400240460019CFA
:102E50001B689C42C0E9011201D102B010BDFEF70F
:102E600017FB00BF1C08002000000000000000004D
:102E70002DE9F0430D4D83B02C6801940F460446B4
:102E8000164600214C221030DDF82880994607F0C4
:102E9000BFFB01992A689142C4E90098C4E902760F
:102EA00002D103B0BDE8F083FEF7F2FA1C0800205F
:102EB000F0B5144E83B001F1100317463268019249
:102EC0000446412218460D46002107F0A1FB394671
:102ED000402207F035FC6068FFF76AFF236803B102
:102EE000AB652560A068FFF793FF019A33689A42AB
:102EF00005D1606803B0BDE8F040FFF771BFFEF791
:102F0000C7FA00BF1C0800200000000000000000FD
:102F1000F0B543681B4E83B005469342306801907C
:102F200006D20020019A33689A4228D103B0F0BD3E
:102F300014460F46A868FFF73BFF2246394628682B
:102F4000FDF7B6FF012385F85130E868FFF760FF11
:102F50006C6D7CB123681868FFF72AFF23685868F6
:102F60009D60FFF755FF23681868FFF739FF646815
:102F7000002CEFD1A868FFF733FF0120D2E7FEF75E
:102F800087FA00BF1C0800200000000000000000BD
:102F900030B51A4D044683B000232868A160226032
:102FA00001906360E360636131B92161019A2B682C
:102FB0009A4220D103B030BD202383F3118801F061
:102FC000CFF900F05DF9A368DA682261DC6000F0F7
:102FD00077F901F0DDF90A4B1A689A4207D099692E
:102FE00093688A689A4202D2064800F0A9F8002342
:102FF00083F31188DAE7FEF74BFA00BF1C080020C4
:10300000B818002040DB00080000000000000000AD
:1030100000B5064B83B01A680192019A1B689A4268
:1030200002D103B05DF804FBFEF732FA1C08002061
:10303000024B82B01B680193FEE700BF1C08002012
:1030400000B5044B04481B6883B0019300F078F886
:10305000FEE700BF1C08002050DB00080000000055
:10306000024B82B01B680193FEE700BF1C080020E2
:10307000F0B5294E294B3268294885B000240392C7
:103080009C60D968274A4FF6FF0529400A43DA6059
:10309000C2682549254D42F08072C2600A6842F03C
:1030A00001020A6010202022D87783F8222000F045
:1030B000D7FA00F045FA01F0A3F801F0C1FE01F0E3
:1030C0002FFF01F0F5F800F0FBF9402105F58860CD
:1030D00000F01EFD0127164BC36180F82070A86127
:1030E00000F0A6F884F3118862B6AB69114A9A61C0
:1030F0004FF4C4713A46104B009405F59D6000F002
:1031000097FD039A33680D4981619A4201D105B058
:10311000F0BDFEF7BDF900BF1C08002000ED00E087
:10312000F0ED00E00003FA05001000E0B818002000
:1031300000040020F0DC00086130000870DB0008AB
:1031400000B5054B83B01B680193044672B6FEF7C9
:10315000B7FF024BDC62FEE71C080020B818002015
:103160002DE9F047DFF88C90204DD9F8003082B07F
:10317000019300F055F9AB6993F8232012B1013A9D
:1031800083F823205A6A1A4F01325A6200F048F934
:10319000AB6AEC690133BC42AB621DD0A668013E4C
:1031A000A660CEB94FF020082368D4F80CA0E660E2
:1031B0005F60EB6100F0C4F801F01AF986F3118842
:1031C0002069D04788F3118801F0FAF800F098F8E8
:1031D000EC69A368002BE7D0019AD9F800309A4235
:1031E00002D102B0BDE8F087FEF752F9B81800200E
:1031F000D41800201C08002000000000000000007F
:1032000010B5094C094A236882B00193516853688C
:103210005B1A9842FBD8019A23689A4201D102B006
:1032200010BDFEF735F900BF1C080020001000E0BB
:1032300000B50E4A0E4B116B186883B0019009B9A6
:10324000526B4AB1019A1B689A420CD1094803B0EB
:103250005DF804EBFFF774BF019A1B689A4202D134
:1032600003B05DF804FBFEF713F900BFB8180020A7
:103270001C08002080DB00080000000000000000A7
:1032800030B50B4C0B4D236B2A6883B001920BB900
:10329000636B13B10848FFF753FF019A2B680121B4
:1032A0009A42616301D103B030BDFEF7F1F800BF6F
:1032B000B81800201C080020B0DB00080000000047
:1032C00030B50C4C0C4D236B2A6883B0019253B976
:1032D000636B002B07DD019A2B6800219A42616322
:1032E00005D103B030BD0548FFF72AFFF3E7FEF72D
:1032F000CFF800BFB81800201C080020D0DB000861
:1033000030B50B4C0B4D236B2A6883B0002B019218
:1033100001DD636B13B10848FFF712FF019A2B68B8
:1033200001219A42616301D103B030BDFEF7B0F8CC
:10333000B81800201C080020C0DB000800000000B6
:1033400030B50C4C0C4D236B2A6883B0002B0192D6
:103350000ADD636B002B07DD019A2B6800219A427E
:10336000616305D103B030BD0448FFF7E9FEF3E720
:10337000FEF78EF8B81800201C080020E0DB0008DB
:1033800030B50F4D83B02B680193202383F3118850
:103390000C4C236B002B01DB626B1AB10A48FFF760
:1033A000CFFE236B01332363002383F31188019A3B
:1033B0002B689A4201D103B030BDFEF769F800BF17
:1033C0001C080020B818002090DB00080000000056
:1033D00030B50F4D83B02B680193202383F3118800
:1033E0000C4C236B002B01DD626B1AB10A48FFF70E
:1033F000A7FE236B013B2363002383F31188019A0B
:103400002B689A4201D103B030BDFEF741F800BFEE
:103410001C080020B8180020A0DB000800000000F5
:1034200000B50F4A0F4B116B186883B0002901904B
:1034300009DB526B002A06DD019A1B689A420CD107
:1034400003B05DF804FB019A1B689A4205D1064857
:1034500003B05DF804EBFFF773BEFEF719F800BF89
:10346000B81800201C080020F0DB00080000000055
:1034700000B50E4A0E4B116B186883B0019049B924
:10348000526B002A06DD019A1B689A420CD103B0E8
:103490005DF804FB019A1B689A4205D1054803B008
:1034A0005DF804EBFFF74CBEFDF7F2FFB818002003
:1034B0001C08002000DC00080000000000000000E4
:1034C00010B5084A084B116882B040240191019957
:1034D000126818199142C3E90E4001D102B010BD23
:1034E000FDF7D6FF1C080020B818002000000000DF
:1034F00030B50F490F4A0B68956983B00193D36BC0
:10350000946A1C60846AC3E9015490F8200018731F
:10351000103302F58860834228BF02F14003D36371
:10352000019A0B689A4201D103B030BDFDF7B0FF9C
:103530001C080020B8180020000000000000000057
:1035400010B50B4A0B4B116882B04FF0FF3401915C
:1035500000219962019811685C6203F11C028842A3
:10356000C3E9072201D102B010BDFDF791FF00BFF2
:103570001C080020B8180020000000000000000017
:103580002DE9F041194E82B00546306801900C4695
:1035900017469846FFF744FF0DB307B3FCB1144834
:1035A000C5F81080C369EF609A68944204D91B681B
:1035B000A41A9A68A242FAD35A68C5E90032156083
:1035C0005D60AC609968019D3268091B95424FF0BF
:1035D000FF349960446206D102B0BDE8F08105482D
:1035E000FFF7AEFDDBE7FDF753FF00BF1C0800202F
:1035F000B818002010DC00080000000000000000E7
:1036000070B5144D82B004462B680193FFF708FF94
:10361000D4B1E368A3B12368A0689A6861680244E2
:103620009A600B602668019A2B680B487160002530
:103630004FF0FF319A42E560416209D102B070BD9E
:103640000648FFF77DFDE6E70448FFF779FDE0E770
:10365000FDF71EFF1C080020B818002020DC000821
:1036600000B50A4A0A4B11681B6083B00020019123
:10367000019912685B609142C3E90433986002D1FA
:1036800003B05DF804FBFDF703FF00BF1C0800203A
:10369000B81800200000000000000000000000003A
:1036A00070B5164D82B004462B680193FFF7B8FE43
:1036B000ECB194F82030B3B10F2B14D00022A168E4
:1036C0000F4B84F820201B689A688A42FBD2019E27
:1036D00029685A688E42C4E90032204614605C6052
:1036E00009D102B070BD0748FFF72AFDE6E705489B
:1036F000FFF726FDDDE7FDF7CBFE00BF1C0800202D
:10370000B818002030DC00080000000000000000B5
:1037100070B5204D82B02B6801930446202383F3BB
:10372000118800F04DFEFFF7EBFD94F82030072BD9
:1037300010D8DFE803F0150F0F220A040F0AA66A5B
:10374000FFF76EFEB3680133B360D4E900231A605B
:10375000226853604FF0FF33A3622046FFF7A0FFBB
:10376000FFF7EEFD00F044FE002383F31188019A79
:103770002B689A420BD102B070BDA36A00221A6076
:103780004FF0FF33A3622046FFF78AFFE8E7FDF71B
:103790007FFE00BF1C0800200000000000000000A9
:1037A000F0B5194E194C336883B007460193FFF703
:1037B0005FFEA569236885F82070142285F8232010
:1037C0001A68226001215460284683F82010A36102
:1037D000FFF78EFE2946A06900F0A2FDEFF30983F2
:1037E000EA69643B9A4202D90948FFF7A9FC019AA9
:1037F00033689A4206D1A069294603B0BDE8F0407B
:10380000FCF756BDFDF744FE1C080020B818002048
:1038100040DC000800000000000000000000000084
:10382000F0B5154C87B0236805930E460746FFF7A1
:103830001FFE731C18D0114D114AAB693146684602
:10384000FFF79EFE3846FFF7ABFFFFF7E9FD039B4E
:1038500013B16846FFF7D4FE059A2368A9699A4216
:10386000886A06D107B0F0BD3846FFF799FF034DCF
:10387000F2E7FDF70DFE00BF1C080020B81800207D
:1038800011370008000000000000000000000000E8
:10389000F0B51E4D1E4E2B6883B0044601930F46B3
:1038A000FFF7E6FDB069A2688368A7629A421DD956
:1038B000FFF7F6FE0123074684F82030B461FFF7D6
:1038C00017FE3946204600F02BFDEFF30983FA6915
:1038D000643B9A4214D8019A2B689A4214D1394613
:1038E000204603B0BDE8F040FCF7E2BC019A2B682B
:1038F0009A4209D1204603B0BDE8F040FFF7D0BEA0
:103900000448FFF71DFCE6E7FDF7C2FD1C08002098
:10391000B818002040DC0008000000000000000093
:1039200010B50E490E4B8A69086892F823101C687E
:103930008068926882B0019449B9904234BF0020F7
:103940000120019A1B689A4206D102B010BD904234
:1039500094BF00200120F4E7FDF79AFDB81800207D
:103960001C08002000000000000000000000000013
:1039700070B5184C184E2368A5691A682260546007
:10398000012283F8202082B01422316885F8232098
:103990002846A3610191FFF783FE2846FFF7A8FDA3
:1039A0002946A06900F0BCFCEFF30983EA69643B97
:1039B0009A4202D90948FFF7C3FB019A33689A4239
:1039C00006D1A069294602B0BDE87040FCF770BC82
:1039D000FDF75EFDB81800201C08002040DC000840
:1039E0001D4BF0B51A689C6910681C4EA1681860E0
:1039F00043601D4683B09A61012382F82030376806
:103A00000197002384F820302B461B689A68914266
:103A1000FBD35A682046C4E9003214605C60FFF7AB
:103A200067FD2146A86900F07BFCEFF30983E2699A
:103A3000643B9A4202D90A48FFF782FB019A336835
:103A40009A4206D1A869214603B0BDE8F040FCF7D0
:103A50002FBCFDF71DFD00BFB81800201C0800207A
:103A600040DC000800000000000000000000000032
:103A700010B50F4C82B023680193FFF7F9FCFFF7F4
:103A8000CFFC0C4B1A689B6992689B689A42019A1A
:103A9000236803D89A4208D102B010BD9A4204D1DB
:103AA00002B0BDE81040FFF79BBFFDF7F1FC00BF7F
:103AB0001C080020B81800200000000000000000D2
:103AC00000B50E4A0E4B9269196892F8232083B014
:103AD000019142B1019A1B689A420DD103B05DF881
:103AE00004EBFFF77DBF019A1B689A4204D103B033
:103AF0005DF804EBFFF73CBFFDF7CAFCB8180020E7
:103B00001C08002000000000000000000000000071
:103B1000F0B51A4D1A4A2B68416483B004460193EC
:103B20000223576981600126238400234FF0140C7F
:103B300004F1680184F82260C4E90F33A361636271
:103B40002C3004F1300304F15006C4E9042784F852
:103B500023C03C61C4E90C33E062E161304654614A
:103B600000F0E6FA304600F003FB019A2B689A4217
:103B700002D1204603B0F0BDFDF78AFC1C080020EE
:103B8000B818002000000000000000000000000045
:103B900010B5094B82B01C680194884203D200F82A
:103BA000012B8142FBD1019A1B689A4201D102B0DC
:103BB00010BDFDF76DFC00BF1C08002000000000D8
:103BC0002DE9F043174E83B0346801940546DDF8C3
:103BD00028900C4617469846FFF722FC15B1B4F51D
:103BE000BC7F17D21048FFF7ABFA019A33680F4831
:103BF000A4F1640129449A42E960C1F84080C1F807
:103C0000449008660CD13946284603B0BDE8F0431D
:103C1000FFF77EBF7F2FE5D8B8F1000FE5D1E1E7D0
:103C2000FDF736FC1C08002090DC0008C9020008E3
:103C30002DE9F04FDFF8A48087B0D8F80040DDF818
:103C40004090059407468A46934600F1680604466C
:103C5000FF2504F8015BA642FBD107EB0A05A5424C
:103C600004D9552604F8016BA542FBD10393202209
:103C700082F3118800F074FBFFF702FB039BCDF881
:103C800000905A4651463846FFF79AFF00210446F5
:103C9000FFF7FEFDFFF714FB00F07AFB0D4B1A68EF
:103CA0009A4204D0996993688A689A420BD3002398
:103CB00083F31188059AD8F800309A42204606D13D
:103CC00007B0BDE8F08F0448FFF73AFAEFE7FDF7D9
:103CD000DFFB00BFB818002050DC00081C080020E3
:103CE00030B5174C83B0236801930546202383F336
:103CF000118800F035FBFFF7C3FA95F8213043F047
:103D0000040385F82130FFF7DBFA00F041FB0D4B8F
:103D10001A689A4204D0996993688A689A4208D3CB
:103D2000002383F31188019A23689A4205D103B0D6
:103D300030BD0548FFF704FAF2E7FDF7A9FB00BF25
:103D40001C080020B818002050DC0008000000000B
:103D500030B5184C83B0236801930546202383F3C4
:103D6000118800F0FDFAFFF78BFA15B91248FFF73A
:103D7000E7F929460820FFF753FDFFF7A1FA00F005
:103D800007FB0E4B1A689A4204D0996993688A68B7
:103D90009A4208D3002383F31188019A23689A4238
:103DA00005D103B030BD0648FFF7CAF9F2E7FDF7C9
:103DB0006FFB00BF1C08002060DC0008B818002062
:103DC00050DC0008000000000000000000000000BF
:103DD000F0B51C4F83B03B68019304460E46202388
:103DE00083F31188184D00F0BBFAFFF749FAA96A6E
:103DF000331B0C1B9C4219D3FFF762FA00F0C8FA80
:103E00002B68AB4204D0AA699B6892689A4209D396
:103E1000002383F31188019A3B689A4230460FD100
:103E200003B0F0BD0948FFF78BF9F1E7741A02D12E
:103E30000748FFF785F921460820FFF7F1FCDBE78B
:103E4000FDF726FB1C080020B818002050DC0008F5
:103E500060DC00080000000000000000000000001E
:103E600070B5164B164E9C693268E36AA06282B048
:103E700004F12C05AB42019207D01A68E2621846A1
:103E8000FFF70EFCE36AAB42F7D194F821309B07B1
:103E900004D1D4E904231A61226953610F20FFF78A
:103EA0007FFC019A33689A4205D1064802B0BDE80A
:103EB0007040FFF745B9FDF7EBFA00BFB8180020D6
:103EC0001C080020A0DC000800000000000000002A
:103ED00030B50C4C83B0236801930546202383F34F
:103EE000118800F03DFAFFF7CBF9019A23689A4256
:103EF00005D1284603B0BDE83040FFF7B1BFFDF75C
:103F0000C7FA00BF1C0800200000000000000000ED
:103F1000F0B50D4D0D4E03682A68B76983B00446AD
:103F2000019213B10A48FFF70BF927600320BC6226
:103F3000FFF736FC019A2B68B1699A42886A01D171
:103F400003B0F0BDFDF7A4FA1C080020B81800204B
:103F5000B0DC0008000000000000000000000000CD
:103F6000F0B5124D0368124A83B0044628680190E8
:103F70000E46976913B10F48FFF7E2F866B1276064
:103F8000019A2B68BC629A420ED13146032003B0DD
:103F9000BDE8F040FFF744BC019A2B689A424FF00D
:103FA000FF3001D103B0F0BDFDF772FA1C0800200C
:103FB000B8180020C0DC000800000000000000006D
:103FC000F0B5124D04682B6883B00193B4B194F836
:103FD0002030032B06460F460CD100233360019A94
:103FE0002B68A7629A420FD1204603B0BDE8F0408B
:103FF000FFF756BB0648FFF7A3F8EEE7019A2B68D8
:104000009A4201D103B0F0BDFDF742FA1C0800202E
:10401000E0DC0008000000000000000000000000DC
:1040200030B5104A83B01368019381B10E4B019DE6
:10403000126844689B699542C3E9000423604360A9
:104040000DD1042003B0BDE83040FFF7E9BB019972
:10405000136899424FF0FF3001D103B030BDFDF736
:1040600017FA00BF1C080020B8180020000000004C
:1040700070B5124D04682B6882B0A042019315D030
:1040800023680360586094F82030042B0E4602D059
:104090000B48FFF755F8019A2B68A6629A420BD19C
:1040A000204602B0BDE87040FFF7FABA019A2B68CB
:1040B0009A4201D102B070BDFDF7EAF91C08002058
:1040C00070DC00080000000000000000000000009C
:1040D0002DE9F041DFF850800468D8F8003082B054
:1040E000A042019313D00F4F05460E4623682B6064
:1040F0005D6094F82030042B02D03846FFF720F89A
:10410000A6622046FFF7CCFA2C68A542EED1019AB0
:10411000D8F800309A4202D102B0BDE8F081FDF734
:10412000B7F900BF70DC00081C0800200000000088
:1041300030B50C4B83B01A68019201991A684FF0A0
:10414000FF3300240025036091424FF00003C0E9D3
:104150000445C0E90133C36001D103B030BDFDF7B0
:1041600097F900BF1C0800200000000000000000BC
:1041700000B5084B084A196883B001915168019A4B
:104180001B6881609A4202D103B05DF804FBFDF721
:104190007FF900BF1C080020001000E000000000B4
:1041A000F0B51449144B0A68846883B00192134A2D
:1041B0005B68D2F8A864C2681B1BD0E904450132D1
:1041C0009B1BC26042688360E61845F1000793427A
:1041D000C0E9046709D80268934238BF0360019AB6
:1041E0000B689A4203D103B0F0BD4360F7E7FDF7D7
:1041F0004FF900BF1C080020001000E0B818002094
:1042000030B5114D114C2B6889B04FF0FF31079339
:10421000002300226846C4F8A834CDE90133039393
:104220000023CDE904230091FFF7A2FF6846FFF7C2
:10423000B7FF079A2B680299C4F8A8149A4201D1D3
:1042400009B030BDFDF724F91C080020B818002083
:104250002DE97048134E144B326883B001925B68AD
:104260008B60D0E902411B1BD0E90445426814EB86
:10427000030B45F1000C01319342C0E90231C0E962
:1042800004BC0AD80268934238BF0360019A3368BD
:104290009A4204D103B0BDE870884360F6E7FDF7A9
:1042A000F7F800BF1C080020001000E0000000002C
:1042B00030B50D4D0D4C2B6883B004F5976001931C
:1042C0000023C4F8B034C4F8B434FFF731FF019AC6
:1042D0002B689A4206D104F59A6003B0BDE83040DD
:1042E000FFF726BFFDF7D4F81C080020B8180020FF
:1042F00000B50949094A0B6883B001930198D2F8C7
:10430000B034096801338842C2F8B03402D103B036
:104310005DF804FBFDF7BCF81C080020B81800206D
:1043200070B50D4C0D4A236882B00193019DD2F8FF
:10433000B43424680133A542C2F8B43409D10E461E
:1043400000F1500106F1500002B0BDE87040FFF7E7
:104350007FBFFDF79DF800BF1C080020B8180020A3
:1043600000B5084B83B01A680192019A1B689A4203
:1043700005D1054803B05DF804EBFFF7F9BEFDF782
:1043800087F800BF1C080020701D002000000000FE
:1043900000B5084B83B01A680192019A1B689A42D3
:1043A00005D1054803B05DF804EBFFF7F9BEFDF752
:1043B0006FF800BF1C080020701D002000000000E6
:1043C00000B5084B83B01A680192019A1B689A42A3
:1043D00005D1054803B05DF804EBFFF7C9BEFDF752
:1043E00057F800BF1C080020881D002000000000B6
:1043F00000B5084B83B01A680192019A1B689A4273
:1044000005D1054803B05DF804EBFFF7C9BEFDF721
:104410003FF800BF1C080020881D0020000000009D
:1044200030B50B4D83B02B680193044650B1019910
:104430002A68246000239142C4E90143236105D125
:1044400003B030BD0348FEF77BFEF0E7FDF720F830
:104450001C08002020DD0008000000000000000013
:10446000F0B55B4E5B4B32689D6983B004460192A8
:10447000FEF7FEFF002C00F08380A068236900286F
:1044800043D0002B40F39480854275D0AA6883689E
:104490009A4208D990F820308260062B40D0072B32
:1044A00072D0002B5DD02746234603E09968AA68A6
:1044B000914233D31B689C42F8D17B680620C5E942
:1044C00000731D607D60AC62FFF76AF9A368AB42C0
:1044D00002D04148FEF734FE2B6CA34202D03E4886
:1044E000FEF72EFE2369012B05D1019A33689A420B
:1044F0006CD103B0F0BD019A33689A4266D1364858
:1045000003B0BDE8F040FEF71BBE002B55D12A6C6E
:10451000A5600133C4E903232C64E6E71F46CCE71A
:10452000D0E900131960876A0168BC464B603B46BE
:1045300002E09968914245D31B689F42F9D1DCF8AB
:104540000430AA68C0E900C31860CCF80400B86859
:1045500083689342A7D290F820308260062B9ED1C8
:10456000DEE7D0E90023012180F820101A600268FC
:104570005360FFF795F896E7236901332361B4E7A9
:104580001548FEF7DDFD78E7D0E900131960876A6A
:1045900001684B603B4602E09968914214D31B6866
:1045A0009F42F9D17B68C0E90073186078607AE7B0
:1045B0000948FEF7C5FDA06866E70748FEF7C0FD9D
:1045C0002369A4E79C46BAE71F46EBE7FCF760FFC8
:1045D0001C080020B818002030DD00080000000092
:1045E00030B5154C83B0236801930546202383F32F
:1045F0001188FFF7B5FEFEF743FE2846FFF730FFB0
:10460000FEF75EFEFFF7C4FE0C4B1A689A4204D018
:10461000996993688A689A4208D3002383F31188C2
:10462000019A23689A4205D103B030BD0448FEF7D1
:1046300087FDF2E7FCF72CFF1C080020B8180020CB
:1046400010DD000800000000000000000000000075
:104650002DE9F043DFF800813C4FD8F80030BE6907
:1046600083B005460193002864D0202383F311888A
:10467000FFF776FEFEF704FE336C002B5ED09B68DE
:10468000B34202D03248FEF75BFD2B69002B49DDB7
:10469000013B2B615BBB336CAB4202D02C48FEF775
:1046A0004FFDEB683364FEF7E3FE2B689D423ED07E
:1046B000D6E9104964B1FEF7DBFE23689C4203D0C3
:1046C0009B68994538BF9946E468002CF3D12B6864
:1046D000196C1A68C6F80890012028612A601846EB
:1046E0005560C5E9023100211D64FFF7D1F8FEF7DE
:1046F000E7FDFFF74DFE3B68BB4204D0BA699B68FB
:1047000092689A420AD3002383F31188019AD8F859
:1047100000309A4217D103B0BDE8F0830D48FEF790
:104720000FFDF0E70A48FEF70BFD2B69B0E7002309
:10473000AB60DCE70648FEF703FD96E70448FEF7AA
:10474000FFFC336C9BE7FCF7A3FE00BFB81800200A
:1047500040DD000810DD00081C08002000000000FB
:1047600070B5114E82B0044633680193FEF758FECF
:10477000A4B12368A3420BD06FF001051A68226030
:1047800018465460FEF78CFF23688562A342F5D17A
:10479000019A33689A4205D102B070BD0348FEF712
:1047A000CFFCE6E7FCF774FE1C08002060DD000883
:1047B00030B5164C83B0236801930546202383F35C
:1047C0001188FFF7CDFDFEF75BFD2846FFF7C8FF18
:1047D000FFF74EF9FEF774FDFFF7DAFD0C4B1A6890
:1047E0009A4204D0996993688A689A4208D3002350
:1047F00083F31188019A23689A4205D103B030BD32
:104800000448FEF79DFCF2E7FCF742FE1C0800207E
:10481000B818002050DD0008000000000000000073
:104820002DE9F0431D4F83B03C68019491460C463E
:104830009846064658B351B3202383F31188184D88
:10484000FFF78EFDFEF71CFD3368AA692360002385
:104850003460C4E90338C4E90129FEF731FDFFF7EC
:1048600097FD2B68AB4204D0AA699B6892689A4274
:1048700009D3002383F31188019A3B689A420AD135
:1048800003B0BDE8F0830748FEF75AFCF1E706489D
:10489000FEF756FCD0E7FCF7FBFD00BF1C0800202C
:1048A000B818002080DD000890DD0008000000003E
:1048B00070B5184E82B00446336801930D46FEF77A
:1048C000AFFD0CB3E16B94F8203029430A2BE16370
:1048D00016D00B2B05D0019A33689A4218D102B03A
:1048E00070BDA36A8B43F6D1019A336800219A42C6
:1048F000A1620DD1204602B0BDE87040FEF7D0BEE7
:10490000A36A1942F0D1E6E70348FEF719FCD9E79C
:10491000FCF7BEFD1C080020D0DD000800000000F0
:10492000F0B5134F83B006463B6801930D46FEF782
:1049300077FDB6B13468A6420DD0E3682B43E3603F
:1049400015B12269134203D0D4E90101FFF7B0FF8A
:104950002468A642F1D1019A3B689A4205D103B07E
:10496000F0BD0448FEF7ECFBE4E7FCF791FD00BF67
:104970001C080020B0DD000800000000000000005E
:1049800070B50C4CC16082B0266801960A44019E45
:1049900002612268069D4060C0E9051196424FF011
:1049A0000001C36181600562006001D102B070BD89
:1049B000FCF76EFD1C080020000000000000000055
:1049C00070B5164D82B004462B6801930E46FEF773
:1049D00027FDFEF725FDD4E905239A42A36816D0EA
:1049E0000133511CA36061611670D4E904329A420C
:1049F0000AD220460021FFF73BFB0020019A2B68DA
:104A00009A4209D102B070BDE3686361F1E7002BFF
:104A1000E6D06FF00300F1E7FCF73AFD1C08002038
:104A2000F0B5234F83B03B68019304460E46202324
:104A300083F31188FFF794FCFEF722FCE36943B18E
:104A40002046984705E031462046FFF7E9FA051E63
:104A500010DBFEF7E5FCA368002BF4D0A169206908
:104A60004A1C013B8242A360A26128BFE3680D7823
:104A700028BFA361FEF724FCFFF78AFC0D4B1A68E0
:104A80009A4204D0996993688A689A4209D30023AC
:104A900083F31188019A3B689A42284605D103B0F6
:104AA000F0BD0548FEF74CFBF1E7FCF7F1FC00BF59
:104AB0001C080020B8180020E0DD000800000000FD
:104AC0002DE9F04FDFF8F490044685B0D9F80000E6
:104AD00003908A461D46D4F81C809346002A60D075
:104AE000202383F311880193FFF73AFCFEF7C8FBFC
:104AF0002F4E0027B8F1000F07D02046C04704E032
:104B000029462046FFF78CFA60BBFEF789FCA368B4
:104B1000002BF5D0A269013B511CA161A360137861
:104B20000AF8013B2369A2699A4224BFE368A361A2
:104B3000FEF7C6FBFFF72CFC3368B34204D0B26922
:104B40009B6892689A4228D3002383F31188013727
:104B5000BB4519D0019B83F31188FFF701FCFEF7D9
:104B60008FFBC7E7FEF7ACFBFFF712FC3368B342DD
:104B700007D0B2699B6892689A4202D20D48FEF74C
:104B8000DFFA002383F31188039AD9F800309A42A0
:104B900038460AD105B0BDE8F08F0648FEF7D0FAD6
:104BA000D2E70548FEF7CCFA9AE7FCF771FC00BFA4
:104BB000B8180020E0DD0008F0DD00081C08002027
:104BC00070B50B4D82B02E680196019E2D68069C33
:104BD0000060C0E90102AE420A44C0E90312C0E924
:104BE0000511C0E9073401D102B070BDFCF750FCDB
:104BF0001C08002000000000000000000000000071
:104C00002DE9F0412E4F82B03B680193044688465F
:104C10001646202383F31188FFF7A2FBFEF730FB33
:104C200005E031462046FFF7FBF9051E2DDBFEF7B8
:104C3000F7FBA368002BF4D06269013B511C616152
:104C4000A36082F80080D4E904329A4224BFE3686A
:104C50006361E3690BB120469847FEF731FBFFF72C
:104C600097FB184B1A689A4204D0996993688A682E
:104C70009A421ED3002585F31188019A3B689A4217
:104C800028461AD102B0BDE8F081FEF719FBFFF704
:104C90007FFB0C4B1A689A4207D0996993688A681F
:104CA0009A4202D20848FEF74BFA002383F3118898
:104CB000E3E70548FEF744FADCE7FCF7E9FB00BF51
:104CC0001C080020B8180020E0DD000800000000EB
:104CD00070B5154E82B0044633680193FEF7A0FB11
:104CE000FEF79EFBD4E905329342A36815D02069F4
:104CF000511C0133A360A161814215780AD220467C
:104D00000021FFF7B5F92846019A33689A4209D184
:104D100002B070BDE368A361F1E7002BE7D06FF04C
:104D20000200F1E7FCF7B4FB1C08002000000000C3
:104D30002DE9F04F04463B48D4F81C90006885B03C
:104D40000D46039001931646002A61D04FF0200AC9
:104D50008AF31188FFF704FBFEF792FA4FF0000880
:104D6000314FC346FEF75CFBA368002B32D062696B
:104D7000013B511C6161A3602B781370D4E90432AC
:104D80009A4224BFE36863610135B9F1000F01D095
:104D90002046C847FEF794FAFFF7FAFA3B68BB4291
:104DA00007D0BA699B6892689A4202D21F48FEF700
:104DB000C7F98BF31188013E08F101081FD08AF36F
:104DC0001188FFF7CDFAFEF75BFAFEF729FBA3681F
:104DD000002BCCD101992046FFF722F90028C1D041
:104DE000FEF76EFAFFF7D4FA3B68BB4204D0BA690B
:104DF0009B6892689A420FD3002383F31188094B72
:104E0000039A1B689A4240460AD105B0BDE8F08F6C
:104E10000748FEF795F999E70448FEF791F9EBE7A3
:104E2000FCF736FB1C080020B8180020E0DD000865
:104E300000DE00080000000000000000000000008C
:104E400030B50B490B4A0B680B4D0C4C83B022F06C
:104E50000702019301980A4B09682A6023F00703AF
:104E60008842236001D103B030BDFCF711FB00BFC5
:104E70001C0800208F2700202C1F0020281F002046
:104E80000000022000000000000000000000000000
:104E900070B51C4E82B0336801930446202383F31F
:104EA0001188FFF75DFAFEF7EBF9FEF7B9FA164A3B
:104EB000164B15681B68E01D20F007005B1B98422D
:104EC0009ABF401910600025FEF7FAF9FFF760FA63
:104ED0000F4B1A689A4204D0996993688A689A427B
:104EE00009D3002383F31188019A33689A42284634
:104EF00005D102B070BD0748FEF722F9F1E7FCF7D3
:104F0000C7FA00BF1C0800202C1F0020281F00200B
:104F1000B818002020DE000800000000000000009B
:104F200000B50B4B0B481A6883B0019201991A68BF
:104F3000094B036091424FF00003C0E9023305D1F1
:104F4000103003B05DF804EBFFF76ABAFCF7A0FA83
:104F50001C080020301F0020914E000800000000B7
:104F600080B50D4A0D4982B000AF13687B604B6875
:104F700023F001034B60EFF30983683383F309885F
:104F8000002383F3118879681368994202D10837A6
:104F9000BD4680BDFCF77CFA1C08002030EF00E025
:104FA000B0B5194C82B000AF23687B60202383F337
:104FB0001188164B5B6813F4006308D183F31188E2
:104FC0007A6823689A421DD10837BD46B0BDF1EE1C
:104FD000103AEFF309850E4B4FF08072DB6845F80D
:104FE000083C45F84C2CA5F1680383F30988FEF7CB
:104FF00097FC18B1074B45F8503CE1E7064B45F8E4
:10500000503CDDE7FCF744FA1C08002000ED00E00E
:1050100030EF00E0E1020008F402000800000000A8
:1050200010B5184C82B02368019302F051F816486D
:1050300003F04EFB00F0D4F800F00AF900F050F94C
:1050400000F07EF900F0ACF900F0DAF900F060FB56
:1050500000F08EFB00F0FCFF00F002FF01F0D0F842
:1050600001F016F901F0BCF805F002F8019A236886
:105070009A4204D102B0BDE8104001F0F1B8FCF74B
:1050800007FA00BF1C08002000E300080000000031
:10509000F0B51A4D83B02B68019391420E46144629
:1050A000074619D38B1A1F2B16D806F01F03581C5E
:1050B0006209012376098340B24203F1FF3304F011
:1050C0001F0457F822000BD31840E040019A2B68C8
:1050D0009A4210D103B0F0BD0948FEF731F8E4E779
:1050E00057F82610C4F120020B4020FA04F403FA0A
:1050F00002F02043EAE7FCF7CBF900BF1C080020D0
:1051000030DE000800000000000000000000000089
:10511000F0B51D4E83B033680193054670B37E220F
:105120007F212846FFF7B4FF80B1012806D0002078
:10513000019A33689A4225D103B0F0BD2846302247
:105140004521FFF7A5FF01308002F1E73E2249210A
:105150002846FFF79DFF2F22044631212846FFF7FE
:1051600097FF5022074653212846FFF791FF01344D
:1051700002370938BC4004FA00F0D9E70348FDF7CC
:10518000DFFFCCE7FCF784F91C08002050DE0008A4
:10519000F0B5104D83B02B680193044698B194F894
:1051A000D63094F8D770019994F8D4602A6894F8AE
:1051B000D5001B0403EB07633344914203EB00204B
:1051C00005D103B0F0BD0448FDF7BAFFE7E7FCF7EF
:1051D0005FF900BF1C08002070DE0008000000001E
:1051E00000B5074B83B01A680192019A1B689A4276
:1051F00004D103B05DF804EB02F022B9FCF748F9E2
:105200001C0800200000000000000000000000005A
:1052100010B50C4B82B01A68019201991A680124EA
:10522000002391420470C0E90133C0E903334361B4
:1052300005D1183002B0BDE81040FFF7F1B8FCF717
:1052400027F900BF1C08002000000000000000003B
:1052500000B5074B83B01A680192019A1B689A4205
:1052600004D103B05DF804EB02F09ABDFCF710F92D
:105270001C080020000000000000000000000000EA
:1052800030B5134B83B01A680192019C196801254F
:10529000002200F118030570426000F11C0500F1C6
:1052A0002002836100F12403C561026200F1280538
:1052B00000F1080243628C4200F110038562C0E9EC
:1052C0000222C0E9043301D103B030BDFCF7E0F89D
:1052D0001C0800200000000000000000000000008A
:1052E00000B5074B83B01A680192019A1B689A4275
:1052F00004D103B05DF804EB03F0CAB9FCF7C8F8B9
:105300001C08002000000000000000000000000059
:1053100010B50A4B82B01A68019201991A680124EB
:10532000002391420470C0E9043305D1183002B063
:10533000BDE81040FFF774B8FCF7AAF81C0800207D
:1053400000B5074B83B01A680192019A1B689A4214
:1053500004D103B05DF804EB02F042BDFCF798F80D
:105360001C080020000000000000000000000000F9
:1053700010B5084B82B01A680192019A1B6801248B
:1053800000219A420470416001D102B010BDFCF7C7
:105390007FF800BF1C080020000000000000000093
:1053A00000B5074B83B01A680192019A1B689A42B4
:1053B00004D103B05DF804EB04F042BBFCF768F8DD
:1053C0001C08002000000000000000000000000099
:1053D00010B5084B82B01A680192019A1B6801242B
:1053E00000219A420470416001D102B010BDFCF767
:1053F0004FF800BF1C080020000000000000000063
:1054000000B5074B83B01A680192019A1B689A4253
:1054100004D103B05DF804EB03F042BCFCF738F8AC
:105420001C08002000000000000000000000000038
:1054300010B50A4B82B01A680192019A1B680124C8
:1054400000219A420470416005D10C3002B0BDE8E1
:105450001040FEF7E5BFFCF71BF800BF1C0800205A
:1054600070B51F4D82B02B6801930E46044680B381
:1054700079B323785A1E012A04D9052B02D0194882
:10548000FDF75EFE202383F31188FEF769FFFDF729
:10549000F7FE2046666003F02BFC02232370FDF725
:1054A0000FFFFEF775FF104B1A689A4204D09969F6
:1054B00093688A689A4208D3002383F31188019A7B
:1054C0002B689A4209D102B070BD0848FDF738FE3A
:1054D000F2E70448FDF734FECBE7FBF7D9FF00BF46
:1054E0001C080020A0DE0008B818002090DE00088C
:1054F00030B51D4D83B02B680193044670B32378FB
:105500005A1E012A04D9052B02D01848FDF718FEAF
:10551000202383F31188FEF723FFFDF7B1FE204619
:1055200003F026FD01232370FDF7CAFEFEF730FFCE
:105530000F4B1A689A4204D0996993688A689A4214
:1055400008D3002383F31188019A2B689A4209D16A
:1055500003B030BD0748FDF7F3FDF2E70348FDF760
:10556000EFFDCCE7FBF794FF1C080020B0DE00083D
:10557000B818002090DE00080000000000000000C5
:1055800030B5094D83B02B680193044630B1019AC0
:105590002B68A0689A4205D103B030BD0348FDF7DF
:1055A000CFFDF4E7FBF774FF1C080020C0DE000805
:1055B0002DE9F04F304E87B034680594DDF840B0E7
:1055C0000D4690461F46DDE9119A044608B10029B0
:1055D0003DD12A48FDF7B4FD2378022B02D027489D
:1055E000FDF7AEFD202383F31188FEF7B9FEFDF72A
:1055F00047FE4FF0000C0320C4F808C0424629467D
:1056000020703B462046CDE9019ACDF800B003F06A
:10561000FFFC431C0CBF0523022323700546FDF746
:105620004FFEFEF7B5FE164B1A689A4204D09969F0
:1056300093688A689A4218D3002383F31188059AE5
:1056400033689A42284614D107B0BDE8F08F002B8A
:10565000BFD0002ABDD0B9F1000F02D0BBF1000FBE
:10566000B7D0BAF1000FB7D1B3E70648FDF768FD30
:10567000E2E7FBF70DFF00BF1C080020D0DE0008AA
:10568000B818002090DE00080000000000000000B4
:1056900030B50B4C83B023680193054650B1019A95
:1056A00023689A420AD105F10C0003B0BDE83040EE
:1056B000FEF796BF0348FDF743FDF0E7FBF7E8FE72
:1056C0001C080020F0DE00080000000000000000C0
:1056D00030B50B4C83B023680193054650B1019A55
:1056E00023689A420AD105F10C0003B0BDE83040AE
:1056F000FEF7AEBF0348FDF723FDF0E7FBF7C8FE5A
:105700001C08002000DF000800000000000000006E
:1057100000B5074B83B01A680192019A1B689A4240
:1057200004D103B05DF804EB04F0D2B8FBF7B0FE8F
:105730001C08002000000000000000000000000025
:1057400010B5084B82B01A680192019A1B680124B7
:1057500000219A420470416001D102B010BDFBF7F4
:1057600097FE00BF1C0800200000000000000000A1
:1057700000B5074B83B01A680192019A1B689A42E0
:1057800004D103B05DF804EB04F042BAFBF780FEED
:105790001C080020000000000000000000000000C5
:1057A00010B5094B82B01A68019201991A68012458
:1057B0000023914204704360C360037401D102B0BE
:1057C00010BDFBF765FE00BF1C08002000000000B4
:1057D00070B5104D82B02B6801930E46044650B14F
:1057E00049B12379052B0CD00120019A2B689A42EC
:1057F0000ED102B070BD0848FDF7A2FC2379052B3D
:10580000F2D1A36A73604FF4007333600020ECE7B9
:10581000FBF73EFE1C08002080DF000800000000AF
:105820002DE9F047DFF89C8386B002AFD8F800304E
:10583000FB600446002800F019812379022B01D077
:10584000052B2BD103232371204602F061FB00229C
:105850001146204602F0D4FB07F108034FF4D5723D
:105860000821204602F014FCE0B9BB680122C3F312
:1058700003239342226300F0FD80204602F080FB68
:10588000022323710125FA68D8F800309A4228468D
:1058900040F046811037BD46BDE8F087C048FDF7AF
:1058A0004FFCCFE707F1080300223721204602F022
:1058B000EFFB002840F0BE80BB68BA4A1A40002ABD
:1058C00040F0B88022631146204602F099FB266B17
:1058D00006F00F03022B00F0AF80B34EB34ADFF89F
:1058E000C492012B18BF1646642504E0013DC4D0C4
:1058F0000A20FEF72DFA07F108030022372120467F
:1059000002F0C6FB0028B8D1BB6813EA090FB4D176
:1059100007F1080332462921204602F091FB0028B6
:10592000ABD1BB68002BE1DA5B0003D5236B43F0FE
:105930001003236304F1080300220221204602F031
:1059400097FC002899D1024604F138030321204630
:1059500002F09EFB002890D104F118052B46A26BA3
:105960000921204602F084FC002886D13B1DA26B51
:105970000721204602F08CFB824600287FF47DAF91
:10598000236B03F00F03022B00F097806E467E22FC
:1059900090B07F212846FFF77BFB0DF10809002816
:1059A00079D10146B546204602F0D2FA236B03F0C6
:1059B0000F03022B00F096802846FFF7A9FBA06298
:1059C0003B1D4FF400721021204602F061FB05469A
:1059D00000287FF452AF7B68724E33427FF44DAFA4
:1059E000236B03F00F03012B40F2B280022B7FF4F4
:1059F00044AFE36A1A79012A00F0A88017D3022A7B
:105A000040F0E2806A4E1979204602F0D1FA07F19F
:105A1000080332460621204602F03AFB00287FF4B4
:105A20002CAFBA685F4B1340002B7FF426AF0523E1
:105A3000237128E7022323635E4E642505E0013DC0
:105A40003FF41BAF0A20FEF783F907F10803324643
:105A50000121204602F0F4FA00287FF40EAFBB6863
:105A6000002BECDA5B007FF565AF5FE74C48FDF794
:105A700067FBE2E6024607F108033721204602F001
:105A800007FB00287FF4F9AEBA68464B1340002BA1
:105A90007FF4F3AE1BE7CDF800A006234022494671
:105AA000204602F015FC00284ED199F80D3013F075
:105AB000020337D11946B54675E7E36A1B687BB127
:105AC00007F108033C4A0621204602F0E1FA38B902
:105AD000BB6834491940B1FA81F1490963E7B54619
